:020000040800F2
:1000000000800020F903000881030008890300082C
:100010009103000899030008A103000800000000F4
:10002000000000000000000000000000A90300081C
:10003000B703000800000000C503000849040008D9
:10004000490400084904000849040008490400085C
:10005000490400084904000849040008490400084C
:10006000490400084904000849040008490400083C
:10007000490400084904000849040008490400082C
:100080004904000800000000490400084904000871
:10009000490400084904000849040008490400080C
:1000A00049040008490400084904000849040008FC
:1000B00049040008490400084904000849040008EC
:1000C00049040008490400084904000849040008DC
:1000D00049040008490400084904000849040008CC
:1000E00049040008490400084904000849040008BC
:1000F0004904000849040008490400080000000001
:100100000000000049040008000000004904000845
:1001100049040008000000004904000849040008E0
:10012000490400084904000849040008490400087B
:100130004904000800000000000000004904000815
:1001400049040008490400084904000800000000B0
:10015000000000000000000000000000000000009F
:10016000000000000000000000000000490400083A
:10017000490400084904000849040008490400082B
:1001800049040008490400080000000000000000C5
:10019000000000004904000800000000000000000A
:1001A00000000000000000004904000849040008A5
:1001B0004904000849040008490400080000000040
:1001C00000000000490400080000000000000000DA
:0801D00049040008490400087D
:1001D80010B5054C237833B9044B13B10448AFF379
:1001E80000800123237010BD0C00002000000000D7
:1001F8003417000808B5034B1BB103490348AFF394
:10020800008008BD0000000010000020341700081E
:1002180080B400AF00BFBD465DF8047B704780B571
:1002280084B000AF0023FB600BE000F025F8024625
:10023800FB689B0010333B4443F8102CFB680133E8
:10024800FB60FB68072BF0D900F016F8B8603B6834
:10025800BA68D31AB3F5FA7FF6D3BB683B600020BF
:1002680000F050F9F0E780B500AF00F087F900F032
:100278000AF80123184680BD80B500AF00F0D0F918
:100288000346184680BD80B594B000AF07F1180347
:1002980038220021184601F01CFA3B1D00221A6082
:1002A8005A609A60DA601A61002000F05DFC292328
:1002B800BB614FF48033FB610123FB6201233B6385
:1002C80002237B630323BB630123FB6328233B6473
:1002D80002237B640423BB640223FB6407F1180335
:1002E800184600F0F5FC0346002B01D000F018F882
:1002F8000F237B600323BB600023FB6000233B616B
:1003080000237B613B1D0421184600F0F3FF0346E0
:10031800002B01D000F004F800BF5037BD4680BD67
:1003280080B400AF00BFBD465DF8047B7047000095
:1003380080B582B000AF0F4B1B6E0E4A43F001032D
:1003480013660C4B1B6E03F001037B607B68094B43
:100358009B6D084A43F080539365064B9B6D03F0F1
:1003680080533B603B6800F0A3FC00BF0837BD46E4
:1003780080BD00BF0010024080B400AF00BFFDE7A1
:1003880080B400AF00BFFDE780B400AF00BFFDE759
:1003980080B400AF00BFFDE780B400AF00BFFDE749
:1003A80080B400AF00BFBD465DF8047B704780B4E1
:1003B80000AF00BFBD465DF8047B704780B400AF56
:1003C80000BFBD465DF8047B7047000080B400AFF5
:1003D800064BD3F88830054A43F47003C2F88830D6
:1003E80000BFBD465DF8047B704700BF00ED00E02C
:1003F8000D488546FFF7EAFF0C480D490D4A0023D2
:1004080002E0D458C4500433C4188C42F9D30A4AC1
:100418000A4C002301E013600432A242FBD301F02E
:1004280061F901F04BF9FEE7008000200000002090
:100438000C000020741700080C0000202C0000207D
:10044800FEE7000080B588B000AF07F1080300227E
:100458001A605A609A60DA601A611A4BDB6C194AA2
:1004680043F00403D364174BDB6C03F004037B6095
:100478007B680123FB6000233B6100237B61002331
:10048800FB6117E0104AFB69DB0013449B88BB60E3
:100498000D4AFB6952F8333007F108021146184635
:1004A80000F0AEF9FB69DBB2184600F00FF8FB6903
:1004B8000133FB61FB69012BE4DD0123184620377A
:1004C800BD4680BD001002405C17000880B582B0B0
:1004D80000AF0346FB71FB79012B0DD8FB79084A65
:1004E80052F83300FB79064ADB0013449B8800224C
:1004F800194600F007FB00E000BF0837BD4680BD85
:100508005C17000880B582B000AF0346FB71FB7929
:10051800012B0DD8FB79084A52F83320FB7906499C
:10052800DB000B449B881946104600F003FB00E0F3
:1005380000BF0837BD4680BD5C17000880B582B093
:1005480000AF0123FB71FFF78EFE03461A46FB79C5
:100558001340002B14BF01230023FB71FFF772FF28
:1005680003461A46FB791340002B14BF01230023CE
:10057800FB71FB7918460837BD4680BD80B582B04F
:1005880000AF0023FB71032000F008F90F2000F0F2
:100598000DF80346002B02D00123FB7101E0FFF7A1
:1005A800C7FEFB7918460837BD4680BD80B584B0C4
:1005B80000AF78600023FB73164B1B68002B22D01A
:1005C800154B1A68134B1B684FF47A71B1FBF3F3A0
:1005D800B2FBF3F3184600F006F90346002B0FD1DF
:1005E8007B680F2B09D8002279684FF0FF3000F0A4
:1005F800E0F80A4A7B68136007E00123FB7304E014
:100608000123FB7301E00123FB73FB7B18461037C2
:10061800BD4680BD08000020000000200400002026
:1006280080B400AF034B1B681846BD465DF8047BD9
:10063800704700BF2800002080B485B000AF786004
:100648007B6803F00703FB600C4BDB68BB60BA6890
:100658004FF6FF031340BB60FB681A02BB681343E5
:1006680043F0BF6343F40033BB60044ABB68D36004
:1006780000BF1437BD465DF8047B704700ED00E00D
:1006880080B400AF044BDB681B0A03F0070318466D
:10069800BD465DF8047B704700ED00E080B483B090
:1006A80000AF03463960FB7197F90730002B0ADB6E
:1006B8003B68DAB20C4997F907301201D2B20B4401
:1006C80083F800230AE03B68DAB20849FB7903F0B3
:1006D8000F03043B1201D2B20B441A7600BF0C3749
:1006E800BD465DF8047B704700E100E000ED00E0E6
:1006F80080B489B000AFF860B9607A60FB6803F035
:100708000703FB61FB69C3F10703042B28BF04231C
:10071800BB61FB690433062B02D9FB69033B00E08C
:1007280000237B614FF0FF32BB6902FA03F3DA431F
:10073800BB681A407B699A404FF0FF317B6901FA28
:1007480003F3D9437B680B40134318462437BD464F
:100758005DF8047B7047000080B582B000AF786018
:100768007B68013BB3F1807F01D301230FE00A4A84
:100778007B68013B53600F214FF0FF30FFF78EFF7E
:10078800054B00229A60044B07221A600023184682
:100798000837BD4680BD00BF10E000E080B582B0DC
:1007A80000AF78607868FFF747FF00BF0837BD469D
:1007B80080BD80B586B000AF0346B9607A60FB7330
:1007C800FFF75EFF78617A68B9687869FFF790FF8C
:1007D800024697F90F3011461846FFF75FFF00BF32
:1007E8001837BD4680BD80B582B000AF78607868A4
:1007F800FFF7B2FF034618460837BD4680BD000024
:1008080080B487B000AF7860396000237B615AE11B
:100818003B681A6801217B6901FA03F31340FB6006
:10082800FB68002B00F04C813B685B6803F0030316
:10083800012B05D03B685B6803F00303022B30D122
:100848007B689B683B617B695B00032202FA03F3C8
:10085800DB433A6913403B613B68DA687B695B00BC
:1008680002FA03F33A6913433B617B683A699A6079
:100878007B685B683B6101227B6902FA03F3DB4317
:100888003A6913403B613B685B681B0903F001024E
:100898007B6902FA03F33A6913433B617B683A695F
:1008A8005A603B685B6803F00303032B17D07B682F
:1008B800DB683B617B695B00032202FA03F3DB43DD
:1008C8003A6913403B613B689A687B695B0002FAAE
:1008D80003F33A6913433B617B683A69DA603B6822
:1008E8005B6803F00303022B23D17B69DA087B687A
:1008F800083253F822303B617B6903F007039B0001
:100908000F2202FA03F3DB433A6913403B613B6869
:100918001A697B6903F007039B0002FA03F33A693B
:1009280013433B617B69DA087B680832396943F80D
:1009380022107B681B683B617B695B00032202FA1B
:1009480003F3DB433A6913403B613B685B6803F0A0
:1009580003027B695B0002FA03F33A6913433B61C4
:100968007B683A691A603B685B6803F44033002B84
:1009780000F0A6805B4B1B6E5A4A43F001031366D6
:10098800584B1B6E03F00103BB60BB68564A7B697A
:100998009B08023352F823303B617B6903F0030361
:1009A8009B000F2202FA03F3DB433A6913403B61D1
:1009B8007B68B3F1904F1FD07B684C4A934219D0A3
:1009C8007B684B4A934213D07B684A4A93420DD0C6
:1009D8007B68494A934207D07B68484A934201D1D1
:1009E80005230AE0062308E0042306E0032304E0C5
:1009F800022302E0012300E000237A6902F00302E7
:100A0800920093403A6913433B6137497B699B08DD
:100A180002333A6941F82320394B9B683B61FB68F4
:100A2800DB433A6913403B613B685B6803F480131E
:100A3800002B03D03A69FB6813433B61304A3B699A
:100A480093602F4BDB683B61FB68DB433A691340DB
:100A58003B613B685B6803F40013002B03D03A69E1
:100A6800FB6813433B61264A3B69D360244B5B68B0
:100A78003B61FB68DB433A6913403B613B685B6859
:100A880003F40033002B03D03A69FB6813433B613E
:100A98001B4A3B6953601A4B1B683B61FB68DB438D
:100AA8003A6913403B613B685B6803F48033002B71
:100AB80003D03A69FB6813433B61114A3B691360F1
:100AC8007B6901337B613B681A687B6922FA03F30F
:100AD800002B7FF49DAE00BF00BF1C37BD465DF8FC
:100AE800047B7047001002400000014000040048E9
:100AF80000080048000C0048001000480014004896
:100B08000004014080B483B000AF78600B467B805E
:100B180013467B707B78002B03D07A887B689A61B8
:100B280002E07A887B689A6200BF0C37BD465DF8A0
:100B3800047B704780B485B000AF78600B467B803B
:100B48007B685B69FB607A88FB6813401A04FB6862
:100B5800D9437B880B401A437B689A6100BF1437DE
:100B6800BD465DF8047B704780B485B000AF7860FF
:100B78007B68002B41D14B4B1B6803F4C063B3F572
:100B8800806F31D1474BD3F88030464A23F48073C5
:100B9800C2F88030434B1B6823F4C063414A43F4D6
:100BA80000731360404B1B68322202FB03F33F4A79
:100BB800A2FB03239B0C0133FB6002E0FB68013BB3
:100BC800FB60384B5B6903F48063B3F5806F02D137
:100BD800FB68002BF2D1334B5B6903F48063B3F5F8
:100BE800806F58D1032357E02E4BD3F880302D4A1D
:100BF80023F48073C2F880304DE07B68B3F5007F42
:100C080041D1284B1B6803F4C063B3F5806F31D121
:100C1800244BD3F88030234A43F48073C2F88030E1
:100C2800204B1B6823F4C0631E4A43F4007313600F
:100C38001D4B1B68322202FB03F31C4AA2FB032351
:100C48009B0C0133FB6002E0FB68013BFB60154B2A
:100C58005B6903F48063B3F5806F02D1FB68002BF6
:100C6800F2D1104B5B6903F48063B3F5806F12D146
:100C7800032311E00B4BD3F880300A4A43F4807306
:100C8800C2F8803007E0074B1B6823F4C063054AAD
:100C980043F480631360002318461437BD465DF89B
:100CA800047B7047007000400000002083DE1B4377
:100CB80080B400AF054B9B68044A43F480439360BB
:100CC80000BFBD465DF8047B704700BF0070004060
:100CD80080B588B000AF78607B68002B01D1012314
:100CE800FEE27B681B6803F00103002B75D0974B6D
:100CF8009B6803F00C03BB61944BDB6803F00303B0
:100D08007B61BB690C2B02D17B69032B02D0BB69C9
:100D1800082B0BD18D4B1B6803F40033002B5BD0E1
:100D28007B685B68002B57D10123D9E27B685B683D
:100D3800B3F5803F06D1854B1B68844A43F4803362
:100D480013601DE07B685B68B3F5A02F0CD17F4B67
:100D58001B687E4A43F4802313607C4B1B687B4AE4
:100D680043F4803313600BE0784B1B68774A23F415
:100D780080331360754B1B68744A23F48023136017
:100D88007B685B68002B13D0FFF74AFC386108E0EA
:100D9800FFF746FC02463B69D31A642B01D90323AB
:100DA8009EE26A4B1B6803F40033002BF0D014E07A
:100DB800FFF736FC386108E0FFF732FC02463B6972
:100DC800D31A642B01D903238AE2604B1B6803F40E
:100DD8000033002BF0D100E000BF7B681B6803F0F4
:100DE8000203002B75D0594B9B6803F00C03BB61C1
:100DF800564BDB6803F003037B61BB690C2B02D104
:100E08007B69022B02D0BB69042B1FD14F4B1B6897
:100E180003F48063002B05D07B68DB68002B01D1CD
:100E280001235DE2494B5B6823F0FE427B681B6946
:100E38001B06464913434B60454B1B681846FFF792
:100E4800B5FB0346002B43D0012349E27B68DB68EE
:100E5800002B23D03D4B1B683C4A43F4807313603E
:100E6800FFF7DEFB386108E0FFF7DAFB02463B6973
:100E7800D31A022B01D9032332E2344B1B6803F443
:100E88008063002BF0D0314B5B6823F0FE427B6817
:100E98001B691B062D4913434B601AE02B4B1B683B
:100EA8002A4A23F480731360FFF7BAFB386108E01D
:100EB800FFF7B6FB02463B69D31A022B01D903237D
:100EC8000EE2224B1B6803F48063002BF0D100E094
:100ED80000BF7B681B6803F00803002B41D07B68C8
:100EE8005B69002B1CD0194BD3F89430174A43F098
:100EF8000103C2F89430FFF793FB386108E0FFF76D
:100F08008FFB02463B69D31A022B01D90323E7E181
:100F18000E4BD3F8943003F00203002BEFD020E0FF
:100F28000A4BD3F89430094A23F00103C2F89430ED
:100F3800FFF776FB38610DE0FFF772FB02463B696D
:100F4800D31A022B06D90323CAE100BF00100240BE
:100F5800040000208C4BD3F8943003F00203002BDC
:100F6800EAD17B681B6803F00403002B00F0A6801D
:100F78000023FB77844B9B6D03F08053002B01D13A
:100F8800012300E00023002B0DD07F4B9B6D7E4A90
:100F980043F0805393657C4B9B6D03F08053FB605B
:100FA800FB680123FB77794B1B6803F48073002BE4
:100FB80018D1764B1B68754A43F480731360FFF7AA
:100FC8002FFB386108E0FFF72BFB02463B69D31A79
:100FD800022B01D9032383E16C4B1B6803F4807354
:100FE800002BF0D07B689B68012B08D1664BD3F8A7
:100FF8009030654A43F00103C2F8903024E07B68E2
:101008009B68052B10D1604BD3F890305E4A43F0B3
:101018000403C2F890305C4BD3F890305A4A43F03E
:101028000103C2F890300FE0574BD3F89030564A7E
:1010380023F00103C2F89030534BD3F89030524A52
:1010480023F00403C2F890307B689B68002B16D00D
:10105800FFF7E6FA38610AE0FFF7E2FA02463B6971
:10106800D31A41F28832934201D9032338E1464B1F
:10107800D3F8903003F00203002BEDD015E0FFF712
:10108800CFFA38610AE0FFF7CBFA02463B69D31A78
:1010980041F28832934201D9032321E13A4BD3F834
:1010A800903003F00203002BEDD1FB7F012B05D11B
:1010B800354B9B6D344A23F0805393657B681B68DE
:1010C80003F02003002B3CD07B689B69002B1CD0CD
:1010D8002D4BD3F898302C4A43F00103C2F89830CE
:1010E800FFF79EFA386108E0FFF79AFA02463B6973
:1010F800D31A022B01D90323F2E0234BD3F89830FB
:1011080003F00203002BEFD01BE01F4BD3F89830FD
:101118001D4A23F00103C2F89830FFF781FA3861BD
:1011280008E0FFF77DFA02463B69D31A022B01D982
:101138000323D5E0144BD3F8983003F00203002BB7
:10114800EFD17B68DB69002B00F0C9800E4B9B68F0
:1011580003F00C030C2B00F083807B68DB69022B07
:101168005ED1094B1B68084A23F080731360FFF7B0
:1011780057FA38610CE0FFF753FA02463B69D31A75
:10118800022B05D90323ABE0001002400070004099
:10119800554B1B6803F00073002BECD1524BDA68F7
:1011A800524B13407A68116A7A68526A013A1201FE
:1011B80011437A68926A120211437A68126B5208D4
:1011C800013A520511437A68526B5208013A5206A5
:1011D80011437A68D26AD2060A4343491343CB6063
:1011E800414B1B68404A43F0807313603E4BDB68F9
:1011F8003D4A43F08073D360FFF712FA386108E084
:10120800FFF70EFA02463B69D31A022B01D90323D2
:1012180066E0354B1B6803F00073002BF0D05EE0EE
:10122800314B1B68304A23F080731360FFF7F8F9DD
:10123800386108E0FFF7F4F902463B69D31A022B3C
:1012480001D903234CE0284B1B6803F00073002BE3
:10125800F0D1254BDA682449254B1340CB603EE09A
:101268007B68DB69012B01D1012339E01E4BDB6868
:101278007B617B6903F003027B681B6A9A422CD16D
:101288007B6903F0F0027B685B6A013B1B019A42B1
:1012980023D17B6903F4FE427B689B6A1B029A4256
:1012A8001BD17B6903F078427B68DB6ADB069A42D4
:1012B80013D17B6903F4C0027B681B6B5B08013B9D
:1012C8005B059A4209D17B6903F0C0627B685B6B5E
:1012D8005B08013B5B069A4201D0012300E0002332
:1012E80018462037BD4680BD001002400C809F0183
:1012F800FCFFEEFE80B586B000AF78603960002351
:101308007B617B68002B01D101231EE1914B1B6897
:1013180003F00F033A689A4210D98E4B1B6823F0EA
:101328000F028C493B6813430B608A4B1B6803F020
:101338000F033A689A4201D0012306E17B681B68D3
:1013480003F00103002B73D07B685B68032B29D162
:10135800814B1B6803F00073002B01D10123F4E0DB
:1013680000F066F938613B697C4A93423FD97A4B71
:101378009B6803F0F003002B09D07B681B6803F01F
:101388000203002B33D07B689B68002B2FD1724B54
:101398009B6823F0F003704A43F080039360802336
:1013A8007B6124E07B685B68022B07D16A4B1B6872
:1013B80003F40033002B09D10123C6E0664B1B68F8
:1013C80003F48063002B01D10123BEE000F0CEF8C6
:1013D80038613B69614A934209D95F4B9B6823F0A6
:1013E800F0035D4A43F08003936080237B615A4B8E
:1013F8009B6823F003027B685B68574913438B6043
:10140800FFF70EF9F8600AE0FFF70AF90246FB68F1
:10141800D31A41F28832934201D9032395E04E4B07
:101428009B6803F00C027B685B689B009A42EBD1D7
:101438007B681B6803F00203002B23D07B681B68C2
:1014480003F00403002B05D0434B9B68424A43F446
:10145800E06393607B681B6803F00803002B07D0E8
:101468003D4B9B6823F47C533B4A43F4E063936011
:10147800394B9B6823F0F0027B689B68364913431D
:101488008B6008E07B69802B05D1334B9B68324A1F
:1014980023F0F00393602F4B1B6803F00F033A68A7
:1014A8009A421DD22B4B1B6823F00F0229493B6837
:1014B80013430B60FFF7B4F8F8600AE0FFF7B0F8E1
:1014C8000246FB68D31A41F28832934201D90323BA
:1014D8003BE0204B1B6803F00F033A689A42EDD1BA
:1014E8007B681B6803F00403002B08D01A4B9B6829
:1014F80023F4E0627B68DB68174913438B607B68E1
:101508001B6803F00803002B09D0134B9B6823F4D6
:1015180060527B681B69DB000F4913438B6000F046
:1015280025F802460C4B9B681B0903F00F030C4976
:10153800CB5C03F01F0322FA03F30A4A13600A4B39
:101548001B681846FFF732F8034618461837BD4699
:1015580080BD00BF002002400010024000B4C40457
:101568004C170008000000200400002080B487B059
:1015780000AF2C4B9B6803F00C03042B02D12A4BC1
:101588003B6147E0274B9B6803F00C03082B02D113
:10159800264B3B613EE0234B9B6803F00C030C2B6E
:1015A80036D1204BDB6803F00303FB601D4BDB687F
:1015B8001B0903F00F030133BB60FB68032B0CD13D
:1015C8001A4ABB68B2FBF3F3164AD268120A02F051
:1015D8007F0202FB03F37B610CE0134ABB68B2FB9A
:1015E800F3F3104AD268120A02F07F0202FB03F3F7
:1015F8007B6100BF0B4BDB685B0E03F00303013319
:101608005B007B607A697B68B2FBF3F33B6101E0C6
:1016180000233B613B6918461C37BD465DF8047BD7
:10162800704700BF001002400024F40000127A0046
:1016380080B487B000AF1E4BDB6803F003033B6147
:101648001B4BDB681B0903F00F030133FB603B698D
:10165800032B0CD1174AFB68B2FBF3F3144AD26888
:10166800120A02F07F0202FB03F37B610CE0124ACC
:10167800FB68B2FBF3F30E4AD268120A02F07F024B
:1016880002FB03F37B6100BF094BDB685B0E03F0D1
:10169800030301335B00BB607A69BB68B2FBF3F3F9
:1016A8007B607B6818461C37BD465DF8047B704735
:1016B8000010024000127A000024F40080B500AF48
:1016C800FEF73CFFFEF7A4FDFEF7A9FD0023184630
:1016D80080BD02440346934200D1704703F8011BC2
:1016E800F9E7000070B50D4D0D4C641BA4100026E1
:1016F800A64209D10B4D0C4C00F018F8641BA4103D
:101708000026A64205D170BD55F8043B984701361E
:10171800EEE755F8043B98470136F2E76C170008E6
:101728006C1700086C17000870170008F8B500BFA0
:10173800F8BC08BC9E467047F8B500BFF8BC08BCAA
:041748009E46704702
:10174C000000000000000000010203040607080965
:10175C00000800484000010000080048100001008B
:04176C00FD01000873
:04177000D901000893
:0C1774000024F400100000000100000040
:04000005080003F9F3
:00000001FF
