:020000040800F2
:10000000008000205D040008E5030008ED030008FF
:10001000F5030008FD0300080504000800000000C7
:100020000000000000000000000000000D040008B7
:100030001B0400080000000029040008AD040008AB
:10004000AD040008AD040008AD040008AD040008CC
:10005000AD040008AD040008AD040008AD040008BC
:10006000AD040008AD040008AD040008AD040008AC
:10007000AD040008AD040008AD040008AD0400089C
:10008000AD04000800000000AD040008AD04000845
:100090009D080008AD040008AD040008AD04000888
:1000A000AD040008AD040008AD040008AD0400086C
:1000B000AD040008AD040008AD040008AD0400085C
:1000C000AD040008AD040008AD040008AD0400084C
:1000D000AD040008AD040008AD040008AD0400083C
:1000E000AD040008AD040008AD040008AD0400082C
:1000F000AD040008AD040008AD04000800000000D5
:1001000000000000AD04000800000000AD0400087D
:10011000AD04000800000000AD040008AD040008B4
:10012000AD040008AD040008AD040008AD040008EB
:10013000AD0400080000000000000000AD0400084D
:10014000AD040008AD040008AD0400080000000084
:10015000000000000000000000000000000000009F
:10016000000000000000000000000000AD040008D6
:10017000AD040008AD040008AD040008AD0400089B
:10018000AD040008AD0400080000000000000000FD
:1001900000000000AD0400080000000000000000A6
:1001A0000000000000000000AD040008AD040008DD
:1001B000AD040008AD040008AD0400080000000014
:1001C00000000000AD040008000000000000000076
:0801D000AD040008AD040008B5
:1001D80010B5054C237833B9044B13B10448AFF379
:1001E80000800123237010BD8C0100200000000056
:1001F8007C7B000808B5034B1BB103490348AFF3E8
:10020800008008BD00000000900100207C7B0008F1
:1002180080B400AF00BFBD465DF8047B70470000A6
:1002280080B588B000AF0023FB610BE000F057F801
:100238000246FB699B0020333B4443F8182CFB69BA
:100248000133FB61FB69072BF0D900F048F8B8616E
:10025800BB68BA69D31AB3F5FA7F04D3BB69BB602C
:10026800002000F0A5FA00F01FFA0346002B0BD07F
:10027800FB68BA69D31AB3F5FA7F08D3BB69FB6088
:10028800012000F095FA02E0012000F075FA00F074
:1002980012FA0346002BD8D00A4B7B610A4B3B610C
:1002A80000F010FA0346FB710421786900F011FA96
:1002B800FB1D0121184600F00CFA0421386900F0F2
:1002C80008FAC2E7947B00089C7B000880B500AF61
:1002D80002F0C3FD00F00AF80123184680BD80B57E
:1002E80000AF02F00DFE0346184680BD80B594B0FD
:1002F80000AF07F1180338220021184607F00EFC5A
:100308003B1D00221A605A609A60DA601A61002068
:1003180004F0C8FD2923BB614FF48033FB6101233E
:10032800FB6201233B6302237B630323BB6301233B
:10033800FB6328233B6402237B640423BB640223FE
:10034800FB6407F11803184604F060FE0346002B0F
:1003580001D000F018F80F237B600323BB60002353
:10036800FB6000233B6100237B613B1D0421184691
:1003780005F05EF90346002B01D000F004F800BF39
:100388005037BD4680BD80B400AF00BFBD465DF8A4
:10039800047B704780B582B000AF0F4B1B6E0E4ACE
:1003A80043F0010313660C4B1B6E03F001037B60E3
:1003B8007B68094B9B6D084A43F080539365064B55
:1003C8009B6D03F080533B603B6804F00FFE00BF59
:1003D8000837BD4680BD00BF0010024080B400AFA2
:1003E80000BFFDE780B400AF00BFFDE780B400AFF9
:1003F80000BFFDE780B400AF00BFFDE780B400AFE9
:1004080000BFFDE780B400AF00BFBD465DF8047BC8
:10041800704780B400AF00BFBD465DF8047B7047ED
:1004280080B400AF00BFBD465DF8047B7047000094
:1004380080B400AF064BD3F88830054A43F4700304
:10044800C2F8883000BFBD465DF8047B704700BF26
:1004580000ED00E00D488546FFF7EAFF0C480D491E
:100468000D4A002302E0D458C4500433C4188C4207
:10047800F9D30A4A0A4C002301E013600432A2426D
:10048800FBD307F053FB07F03EFBFEE7008000209C
:10049800000000208C010020107C00088C01002046
:1004A8007C1B0020FEE780B487B000AFF860B9601D
:1004B8007A600123FB75FB6800221A60FB68002242
:1004C8005A60FB687A689A60FB680122DA60FB6808
:1004D800BA681A61FB7D18461C37BD465DF8047B77
:1004E800704780B48BB000AFF860B9607A600123C0
:1004F80087F8273000233B6243E0FB681B68013321
:10050800FA689268B3FBF2F101FB02F29B1ABB6135
:10051800FB685B68BA699A422CD0FB681B69002BA0
:1005280024D0BB68002B21D0FB681A69FB681B68C4
:10053800F968C96801FB03F313447B610023FB617D
:100548000AE0FB69BA681A44FB6979690B441278B6
:100558001A70FB690133FB61FB68DA68FB699A4230
:10056800EFD8FB68DB68BA681344BB60FB68BA69FC
:100578001A6003E0002387F8273006E03B6A01335E
:100588003B623B6A7A689A42B7D897F82730184690
:100598002C37BD465DF8047B704780B489B000AF46
:1005A800F860B9607A600123FB770023BB6141E002
:1005B800FB681B69002B24D0BB68002B21D0FB688B
:1005C8001A69FB685B68F968C96801FB03F313449F
:1005D8003B6100237B610AE07B693A691A447B69C5
:1005E800B9680B4412781A707B6901337B61FB6828
:1005F800DA687B699A42EFD8FB68DB68BA6813440B
:10060800BB60FB685A68FB681B689A420CD0FB68A1
:100618005B680133FA689268B3FBF2F101FB02F2FE
:100628009A1AFB685A6002E00023FB7706E0BB6970
:100638000133BB61BB697A689A42B9D8FB7F184617
:100648002437BD465DF8047B704780B485B000AFA1
:1006580078607B689A687B681B681A447B685B686B
:10066800D31A7A689268B3FBF2F101FB02F29B1A83
:10067800FB60FB6818461437BD465DF8047B70477D
:1006880080B582B000AF0123FB7101F04FFD034636
:10069800FB71044AFB791370FB7918460837BD468D
:1006A80080BD00BFA801002080B500AF01F0CCFDDF
:1006B8000346184680BD80B500AF01F055FD0346DE
:1006C800184680BD80B500AF01F058FD03461846B6
:1006D80080BD80B582B000AF7860396039687868CD
:1006E80001F05EFD034618460837BD4680BD000090
:1006F80080B588B000AF07F1080300221A605A607D
:100708009A60DA601A611A4BDB6C194A43F00403E9
:10071800D364174BDB6C03F004037B607B68012315
:10072800FB6000233B6100237B610023FB6117E032
:10073800104AFB69DB0013449B88BB600D4AFB69C8
:1007480052F8333007F108021146184602F0F4FC5B
:10075800FB69DBB2184600F00FF8FB690133FB6157
:10076800FB69012BE4DD012318462037BD4680BD17
:1007780000100240F87B000880B582B000AF034645
:10078800FB71FB79012B0DD8FB79084A52F833002D
:10079800FB79064ADB0013449B880022194602F0C5
:1007A8004DFE00E000BF0837BD4680BDF87B00085D
:1007B80080B582B000AF0346FB71FB79012B0DD8E1
:1007C800FB79084A52F83320FB790649DB000B44D1
:1007D8009B881946104602F049FE00E000BF083722
:1007E800BD4680BDF87B000880B483B000AF01230C
:1007F800FB71FB7918460C37BD465DF8047B7047E2
:1008080080B584B000AF0346FB710023FB73FB790E
:10081800012B2AD100221949194800F045F803464E
:10082800002B01D0002324E01649154800F06CF88D
:100838000346002B01D000231BE01349104801F0A8
:10084800CFFB0346002B01D0002312E00C4800F038
:1008580082F80346002B01D000230AE0FFF710FFBF
:100868000A4B01221A700123FB73094AFB7B1370A0
:10087800FB7B18461037BD4680BD00BF3001002005
:10088800AC0100201000002014010020AA01002063
:10089800A901002080B500AF024802F0F1FE00BFB8
:1008A80080BD00BF7C16002080B586B000AFF86020
:1008B800B9601346FB71FB68002B01D103231FE0CD
:1008C800FB680022C3F8B822FB680022C3F8C022E4
:1008D800FB680022C3F8CC22BB68002B03D0FB685E
:1008E800BA68C3F8B422FB68012283F89C22FB682B
:1008F800FA791A70F86802F05BF80346FB75FB7D1D
:1009080018461837BD4680BD80B584B000AF786002
:1009180039600023FB813B68002B01D1032316E0DB
:100928007B683A68C3F8B8227B68D3F8B832DB6AC8
:10093800002B0BD07B68D3F8B832DB6A07F10E02C4
:100948001046984702467B68C3F8CC220023184615
:100958001037BD4680BD80B582B000AF786078683A
:1009680002F086F8034618460837BD4680BD80B4B5
:1009780083B000AF7860002318460C37BD465DF899
:10098800047B704780B584B000AF78600B46FB707D
:100998000323FB737B68D3F8B832002B09D07B683C
:1009A800D3F8B8321B68FA78114678689847034636
:1009B800FB73FB7B18461037BD4680BD80B582B0FF
:1009C80000AF78600B46FB707B68D3F8B832002B19
:1009D80007D07B68D3F8B8325B68FA781146786834
:1009E8009847002318460837BD4680BD80B584B0B7
:1009F80000AF786039607B6803F2AA23396818462B
:100A080000F046FF7B680122C3F894227B68B3F8A4
:100A1800B0321A467B68C3F898227B6893F8AA32EA
:100A280003F01F03022B1AD0022B22D8002B02D06E
:100A3800012B0AD01DE07B6803F2AA2319467868C7
:100A480000F0EEF90346FB7320E07B6803F2AA236B
:100A58001946786800F052FA0346FB7316E07B6883
:100A680003F2AA231946786800F091FA0346FB734B
:100A78000CE07B6893F8AA3223F07F03DBB21946B7
:100A8800786802F055F80346FB7300BFFB7B1846F5
:100A98001037BD4680BD80B586B000AFF8600B4604
:100AA8007A60FB72FB7A002B38D1FB6803F5AA73D6
:100AB8003B61FB68D3F89432032B4AD13B699A68AF
:100AC8003B69DB689A4213D93B699A683B69DB68E2
:100AD800D21A3B699A603B69DA683B699B68934222
:100AE80028BF13461A467968F86800F0C5FF30E059
:100AF800FB6893F89C32DBB2032B0BD1FB68D3F86D
:100B0800B8321B69002B05D0FB68D3F8B8321B69D3
:100B1800F8689847F86800F0C0FF1AE0FB6893F897
:100B28009C32DBB2032B14D1FB68D3F8B8329B6933
:100B3800002B0ED0FB68D3F8B8329B69FA7A1146BD
:100B4800F86898470346FB75FB7D002B01D0FB7DB9
:100B580000E0002318461837BD4680BD80B586B032
:100B680000AFF8600B467A60FB72FB7A002B6BD102
:100B7800FB6814333B61FB68D3F89432022B56D1DF
:100B88003B699A683B69DB689A4214D93B699A6861
:100B98003B69DB68D21A3B699A603B699B681A46D5
:100BA8007968F86800F03AFF002300220021F8680D
:100BB80002F068F83BE03B69DA683B699B689A4257
:100BC8001CD13B695A683B69DB689A4216D33B697A
:100BD8005A68FB68D3F898329A420FD20022002153
:100BE800F86800F01BFFFB680022C3F89822002376
:100BF80000220021F86802F045F818E0FB6893F835
:100C08009C32DBB2032B0BD1FB68D3F8B832DB681C
:100C1800002B05D0FB68D3F8B832DB68F868984732
:100C28008021F86801F084FFF86800F049FFFB684C
:100C380093F8A032012B22D1F868FFF798FEFB68E1
:100C4800002283F8A0221AE0FB6893F89C32DBB2FA
:100C5800032B14D1FB68D3F8B8325B69002B0ED094
:100C6800FB68D3F8B8325B69FA7A1146F868984796
:100C78000346FB75FB7D002B01D0FB7D00E00023C4
:100C880018461837BD4680BD80B582B000AF786081
:100C98007B68012283F89C227B680022C3F8942297
:100CA8007B6800225A607B680022C3F8A4227B6814
:100CB800D3F8B832002B01D103232FE07B68D3F897
:100CC800BC32002B0FD07B68D3F8B8325B68002B9E
:100CD80009D07B68D3F8B8325B687A685268D2B2B8
:100CE800114678689847402300220021786801F06F
:100CF800DAFE7B680122A3F864217B684022C3F8EE
:100D08006021402300228021786801F0CCFE7B68B6
:100D180001229A847B6840221A6200231846083709
:100D2800BD4680BD80B483B000AF78600B46FB70D1
:100D38007B68FA781A74002318460C37BD465DF8AC
:100D4800047B704780B483B000AF78607B6893F809
:100D58009C32DAB27B6883F89D227B68042283F890
:100D68009C22002318460C37BD465DF8047B70476B
:100D780080B483B000AF78607B6893F89C32DBB2B4
:100D8800042B06D17B6893F89D32DAB27B6883F82E
:100D98009C22002318460C37BD465DF8047B70473B
:100DA80080B582B000AF78607B68D3F8B832002B8A
:100DB80001D1032312E07B6893F89C32DBB2032B4A
:100DC8000BD17B68D3F8B832DB69002B05D07B6880
:100DD800D3F8B832DB697868984700231846083793
:100DE800BD4680BD80B487B000AF78607B687B610A
:100DF8007B691B787B827B6901337B617B691B780C
:100E08003B823B8A1B021AB2B7F9123013431BB25A
:100E1800FB81FB8918461C37BD465DF8047B70478B
:100E280080B584B000AF786039600023FB733B68FD
:100E38001B7803F06003402B05D0402B53D8002BC0
:100E48000BD0202B4FD17B68D3F8B8329B68396818
:100E5800786898470346FB734AE03B685B78092B40
:100E68003BD801A252F823F0C50E0008D90E00089D
:100E7800E30E0008CF0E0008E30E0008A30E0008DA
:100E8800990E0008E30E0008BB0E0008AD0E00081E
:100E98003968786800F0DEF924E03968786800F08D
:100EA8006DFB1FE03968786800F0ACFB0346FB7304
:100EB80018E03968786800F04BFC13E03968786806
:100EC80000F07CFC0EE03968786800F0ABFC09E0C3
:100ED8003968786800F0BAFC04E03968786800F08E
:100EE80011FD00BF04E03968786800F00BFD00BF11
:100EF800FB7B18461037BD4680BD00BF80B584B067
:100F080000AF786039600023FB733B681B7803F0FF
:100F18006003402B05D0402B2FD8002B01D0202B6D
:100F28002BD17B6893F89C32DBB2013B022B1DD896
:100F38003B689B88DBB2012B13D87B68D3F8B832A7
:100F48009B683968786898470346FB733B68DB8879
:100F5800002B10D1FB7B002B0DD1786800F09DFD94
:100F680009E03968786800F0CDFC04E039687868F1
:100F780000F0C8FC00E000BF04E03968786800F0C1
:100F8800C1FC00BFFB7B18461037BD4680BD80B54D
:100F980084B000AF786039600023FB733B689B889E
:100FA800BB733B681B7803F06003402B07D0402BD2
:100FB80000F24581002B0CD0202B40F040817B684B
:100FC800D3F8B8329B683968786898470346FB734A
:100FD8003AE13B685B78032B07D0032B00F32981A8
:100FE800002B7FD0012B3CD023E17B6893F89C3207
:100FF800DBB2022B02D0032B16D02CE0BB7B002BDC
:101008000DD0BB7B802B0AD0BB7B1946786801F0DA
:101018008FFD8021786801F08BFD00BF20E03968E2
:10102800786800F06FFC1BE03B685B88002B0ED1F2
:10103800BB7B002B0BD0BB7B802B08D03B68DB88AD
:10104800002B04D1BB7B1946786801F071FD7868E4
:1010580000F023FD04E03968786800F053FC00BF15
:10106800ECE07B6893F89C32DBB2022B02D0032BB6
:1010780016D030E0BB7B002B0DD0BB7B802B0AD079
:10108800BB7B1946786801F053FD8021786801F030
:101098004FFD00BF25E03968786800F033FC20E098
:1010A8003B685B88002B1BD1BB7B03F07F03002BC5
:1010B80004D0BB7B1946786801F059FD786800F0C8
:1010C800ECFC7B68D3F8B8329B6839687868984735
:1010D8000346FB7304E03968786800F013FC00E00D
:1010E80000BFABE07B6893F89C32DBB2022B02D0E6
:1010F800032B32D097E0BB7B002B07D0BB7B802B28
:1011080004D03968786800F0FDFB91E097F90E305B
:10111800002B0BDABB7B03F07F0213469B001344C2
:101128009B0010337A68134404330BE0BB7B03F055
:101138007F0213469B0013449B0003F5A8737A684B
:1011480013440433BB60BB6800221A60BB680222E8
:101158001946786800F047FC6AE097F90E30002BD2
:1011680011DABB7B03F00F02796813469B00134426
:101178009B000B4424331B88002B17D139687868EF
:1011880000F0C0FB54E0BB7B03F00F027968134604
:101198009B0013449B000B4403F5B2731B88002B80
:1011A80004D13968786800F0ADFB41E097F90E305A
:1011B800002B0BDABB7B03F07F0213469B00134422
:1011C8009B0010337A68134404330BE0BB7B03F0B5
:1011D8007F0213469B0013449B0003F5A8737A68AB
:1011E80013440433BB60BB7B002B02D0BB7B802B3A
:1011F80003D1BB6800221A600EE0BB7B19467868F1
:1012080001F0D4FC0346002B03D0BB6801221A600E
:1012180002E0BB6800221A60BB680222194678689F
:1012280000F0E1FB04E03968786800F06BFB00BF70
:1012380004E03968786800F065FB00BF04E03968AD
:10124800786800F05FFB00BFFB7B18461037BD468F
:1012580080BD000080B584B000AF7860396000239D
:101268003B810023FB600023FB723B685B881B0A01
:101278009BB2013B0E2B00F2528101A252F823F0DF
:10128800F912000811130008511300082715000867
:1012980027150008C7140008F314000827150008CC
:1012A8002715000827150008271500082715000826
:1012B8002715000827150008C51200087B68D3F811
:1012C800B432DB69002B0BD07B68D3F8B432DB690E
:1012D8007A68127C07F1080110469847F86026E101
:1012E8003968786800F00EFBFB7A0133FB721EE167
:1012F8007B68D3F8B4321B687A68127C07F108015E
:1013080010469847F86012E17B681B7C002B0DD1D2
:101318007B68D3F8B8329B6A07F1080210469847F1
:10132800F860FB68013302221A7000E17B68D3F889
:10133800B832DB6A07F1080210469847F860FB6884
:10134800013302221A70F2E03B685B88DBB2052B9E
:1013580000F2AC8001A252F823F000BF7D13000810
:10136800B1130008E5130008191400084D1400080B
:10137800811400087B68D3F8B4325B68002B0BD06B
:101388007B68D3F8B4325B687A68127C07F108018D
:1013980010469847F86091E03968786800F0B2FA2A
:1013A800FB7A0133FB7289E07B68D3F8B4329B681F
:1013B800002B0BD07B68D3F8B4329B687A68127C18
:1013C80007F1080110469847F86077E039687868AF
:1013D80000F098FAFB7A0133FB726FE07B68D3F870
:1013E800B432DB68002B0BD07B68D3F8B432DB68EF
:1013F8007A68127C07F1080110469847F8605DE0AA
:101408003968786800F07EFAFB7A0133FB7255E0A0
:101418007B68D3F8B4321B69002B0BD07B68D3F8F8
:10142800B4321B697A68127C07F1080110469847A4
:10143800F86043E03968786800F064FAFB7A0133B1
:10144800FB723BE07B68D3F8B4325B69002B0BD0AE
:101458007B68D3F8B4325B697A68127C07F10801BB
:1014680010469847F86029E03968786800F04AFA29
:10147800FB7A0133FB7221E07B68D3F8B4329B69B5
:10148800002B0BD07B68D3F8B4329B697A68127C46
:1014980007F1080110469847F8600FE03968786846
:1014A80000F030FAFB7A0133FB7207E0396878689C
:1014B80000F028FAFB7A0133FB7200BF37E07B6843
:1014C8001B7C002B09D17B68D3F8B8325B6B07F122
:1014D800080210469847F86029E03968786800F0F3
:1014E80011FAFB7A0133FB7221E07B681B7C002B2D
:1014F8000DD17B68D3F8B8321B6B07F10802104690
:101508009847F860FB68013307221A700FE03968C2
:10151800786800F0F7F9FB7A0133FB7207E0396865
:10152800786800F0EFF9FB7A0133FB7200BFFB7AB1
:10153800002B1ED13B68DB88002B16D03B89002B83
:101548000ED03B68DA883B89934228BF13469BB28A
:101558003B813B891A46F968786800F044FA09E04B
:101568003968786800F0CEF904E0786800F095FAF8
:1015780000E000BF1037BD4680BD00BF80B584B015
:1015880000AF786039603B689B88002B31D13B689D
:10159800DB88002B2DD13B685B887F2B29D83B68E3
:1015A8005B88DBB203F07F03FB737B6893F89C32A4
:1015B800DBB2032B04D13968786800F0A3F91DE089
:1015C8007B68FA7B83F89E22FB7B1946786801F0DA
:1015D80019FB786800F061FAFB7B002B04D07B686C
:1015E800022283F89C2209E07B68012283F89C226E
:1015F80004E03968786800F085F900BF00BF10374B
:10160800BD4680BD80B584B000AF786039600023E6
:10161800FB733B685B88DAB24C4B1A704B4B1B78F8
:10162800012B05D93968786800F06CF9032388E044
:101638007B6893F89C32DBB2022B02D0032B25D0B7
:1016480071E0424B1B78002B1CD0404B1B781A468C
:101658007B685A603D4B1B7819467868FFF792F90A
:101668000346FB73FB7B002B04D03968786800F0D5
:1016780049F965E0786800F010FA7B68032283F87E
:101688009C225DE0786800F008FA59E02F4B1B783F
:10169800002B12D17B68022283F89C222B4B1B78EB
:1016A8001A467B685A60294B1B7819467868FFF7F9
:1016B80085F9786800F0F1F942E0244B1B781A4666
:1016C8007B685B689A422AD07B685B68DBB2194604
:1016D8007868FFF773F91D4B1B781A467B685A60C8
:1016E8001A4B1B7819467868FFF74CF90346FB73C9
:1016F800FB7B002B0FD03968786800F003F97B6812
:101708005B68DBB219467868FFF758F97B680222F4
:1017180083F89C2214E0786800F0BFF910E078683C
:1017280000F0BBF90CE03968786800F0EBF8074B7B
:101738001B7819467868FFF741F90323FB7300BF4C
:10174800FB7B18461037BD4680BD00BF7C040020D7
:1017580080B582B000AF786039603B68DB88012BC8
:1017680004D03968786800F0CDF823E07B6893F8F6
:101778009C32DBB2022B02DC002B03DC15E0032BCE
:101788000BD012E07B6800229A607B680833012244
:101798001946786800F027F90CE07B6804330122C9
:1017A8001946786800F01FF904E03968786800F095
:1017B800A9F800BF00BF0837BD4680BD80B582B01C
:1017C80000AF786039607B6893F89C32DBB2013BEC
:1017D800022B1ED83B68DB88022B04D03968786856
:1017E80000F090F81AE07B680122DA607B68D3F891
:1017F800A432002B05D07B68DB6843F002027B68CB
:10180800DA607B680C3302221946786800F0EBF83E
:1018180004E03968786800F075F800BF00BF083741
:10182800BD4680BD80B582B000AF786039603B6846
:101838005B88012B06D17B680122C3F8A422786853
:1018480000F02BF900BF0837BD4680BD80B582B0D7
:1018580000AF786039607B6893F89C32DBB2013B5B
:10186800022B0BD83B685B88012B0CD17B680022CC
:10187800C3F8A422786800F010F904E039687868A1
:1018880000F040F800E000BF00BF0837BD4680BD4B
:1018980080B584B000AF786039603B68FB60FB6856
:1018A8001A787B681A70FB680133FB60FB681A784A
:1018B8007B685A70FB680133FB60F868FFF792FA9F
:1018C80003461A467B685A80FB680133FB60FB6855
:1018D8000133FB60F868FFF785FA03461A467B6810
:1018E8009A80FB680133FB60FB680133FB60F86892
:1018F800FFF778FA03461A467B68DA8000BF10378C
:10190800BD4680BD80B582B000AF78603960802167
:10191800786801F00DF90021786801F009F900BF35
:101928000837BD4680BD80B586B000AFF860B960A5
:101938007A600023FB75FB68002B36D0FB683B619F
:10194800386900F036F8034601339BB25B009AB25F
:101958007B681A80FB7DBA6813447A6812781A701B
:10196800FB7D0133FB75FB7DBA68134403221A70B3
:10197800FB7D0133FB7513E0FB7DBA6813443A69BC
:1019880012781A703B6901333B61FB7D0133FB75AB
:10199800FB7DBA68134400221A70FB7D0133FB7586
:1019A8003B691B78002BE7D100E000BF1837BD4624
:1019B80080BD80B485B000AF78600023FB737B687E
:1019C800BB6005E0FB7B0133FB73BB680133BB6085
:1019D800BB681B78002BF5D1FB7B18461437BD4636
:1019E8005DF8047B704780B584B000AFF860B960DB
:1019F8007A60FB680222C3F89422FB687A689A61CD
:101A0800FB687A68DA617B68BA680021F86801F0D7
:101A180018F9002318461037BD4680BD80B584B03C
:101A280000AFF860B9607A607B68BA680021F8682E
:101A380001F007F9002318461037BD4680BD80B570
:101A480084B000AFF860B9607A60FB680322C3F81D
:101A58009422FB687A68C3F85821FB687A68C3F84F
:101A68005C217B68BA680021F86801F00BF9002353
:101A780018461037BD4680BD80B584B000AFF86009
:101A8800B9607A607B68BA680021F86801F0FAF8F2
:101A9800002318461037BD4680BD80B582B000AF20
:101AA80078607B680422C3F8942200230022002176
:101AB800786801F0C6F8002318460837BD4680BD8F
:101AC80080B582B000AF78607B680522C3F89422A5
:101AD800002300220021786801F0D4F8002318467A
:101AE8000837BD4680BD80B584B000AF78600B462E
:101AF800FB704FF4077001F02FF9F860FB68002BBA
:101B080005D17B680022C3F8BC22022366E07B680B
:101B1800FA68C3F8BC227B681B7C002B19D14FF4F0
:101B2800007302228121786800F0BDFF7B680122E2
:101B38001A874FF4007302220121786800F0B3FF7E
:101B48007B680122A3F878217B681022A3F84E2035
:101B580016E0402302228121786800F0A4FF7B6808
:101B680001221A87402302220121786800F09BFF96
:101B78007B680122A3F878217B681022A3F84E2005
:101B8800082303228221786800F08DFF7B680122F8
:101B9800A3F84C207B68D3F8C0321B689847FB68D1
:101BA8000022C3F81422FB680022C3F818227B68BD
:101BB8001B7C002B09D1FB68D3F804224FF4007377
:101BC8000121786801F05EF807E0FB68D3F8042289
:101BD80040230121786801F055F800231846103792
:101BE800BD4680BD80B582B000AF78600B46FB7003
:101BF8008121786800F07DFF7B6800221A87012127
:101C0800786800F076FF7B680022A3F878218221AB
:101C1800786800F06EFF7B680022A3F84C207B6890
:101C28000022A3F84E207B68D3F8BC32002B0ED0DC
:101C38007B68D3F8C0325B6898477B68D3F8BC32BE
:101C4800184601F097F87B680022C3F8BC220023ED
:101C580018460837BD4680BD80B586B000AF7860AD
:101C680039607B68D3F8BC323B6100237B73002367
:101C78007B810023FB753B69002B01D10323AFE077
:101C88003B681B7803F06003002B3FD0202B40F00B
:101C98009F803B68DB88002B2ED03B681B785BB2AB
:101CA800002B16DA7B68D3F8C0329B683A68507804
:101CB80039693A68D28898473B68DB88072B28BF80
:101CC8000723FB813B69FA8919467868FFF78BFE81
:101CD80085E03B685A783B6983F800223B68DB88DB
:101CE800DAB23B6983F8012239693B68DB881A4616
:101CF8007868FFF7A4FE72E07B68D3F8C0329B686F
:101D08003A68507800223968984768E03B685B7801
:101D18000B2B52D801A252F823F000BF551D000822
:101D2800D11D0008C31D0008C31D0008C31D0008FD
:101D3800C31D0008C31D0008C31D0008C31D0008FB
:101D4800C31D00087F1D0008A91D00087B6893F8C3
:101D58009C32DBB2032B07D107F10A030222194692
:101D68007868FFF740FE32E039687868FFF7CAFD07
:101D78000323FB752BE07B6893F89C32DBB2032BC3
:101D880007D107F10D03012219467868FFF72BFEEA
:101D98001DE039687868FFF7B5FD0323FB7516E089
:101DA8007B6893F89C32DBB2032B0FD039687868D4
:101DB800FFF7A8FD0323FB7508E039687868FFF78B
:101DC800A1FD0323FB7502E000BF08E000BF06E0A9
:101DD80039687868FFF796FD0323FB7500BFFB7D24
:101DE80018461837BD4680BD80B584B000AF78600E
:101DF8000B46FB707B68D3F8C432FB607B68D3F872
:101E0800BC32002B01D103234FE07B68D3F8BC32EE
:101E1800BB60FA78796813469B0013449B000B4417
:101E280018331B68002B29D0FA78796813469B0071
:101E380013449B000B4418331A68F978F8680B466A
:101E48009B000B44DB00034420331B68B2FBF3F117
:101E580001FB03F3D31A002B10D1FA7879681346E3
:101E68009B0013449B000B44183300221A60F97836
:101E780000230022786800F0E4FE15E0BB68002229
:101E8800C3F814227B68D3F8C0321B69002B0BD02F
:101E98007B68D3F8C0321B69BA68D2F80802BA68FE
:101EA80002F50471FA789847002318461037BD46A2
:101EB80080BD80B584B000AF78600B46FB707B684E
:101EC800D3F8BC32FB607B68D3F8BC32002B01D15D
:101ED800032315E0FB781946786800F0F4FE024603
:101EE800FB68C3F80C227B68D3F8C032DB68FA6859
:101EF800D2F80402FA6802F50372114698470023E3
:101F080018461037BD4680BD80B584B000AF7860F4
:101F18007B68D3F8BC32FB60FB68002B01D103233C
:101F28001AE07B68D3F8C032002B14D0FB6893F812
:101F38000032FF2B0FD07B68D3F8C0329B68FA6859
:101F480092F80002F968FA6892F801229847FB684B
:101F5800FF2283F80022002318461037BD4680BDB3
:101F680080B483B000AF78607B6843221A80034B4B
:101F780018460C37BD465DF8047B70478C0000207E
:101F880080B483B000AF78607B6843221A80034B2B
:101F980018460C37BD465DF8047B704748000020A2
:101FA80080B483B000AF78607B6843221A80034B0B
:101FB80018460C37BD465DF8047B7047D0000020FA
:101FC80080B483B000AF78607B680A221A80034B24
:101FD80018460C37BD465DF8047B704704000020A6
:101FE80080B483B000AF786039603B68002B01D1C2
:101FF800032304E07B683A68C3F8C022002318462C
:102008000C37BD465DF8047B704780B487B000AFDD
:10201800F860B9607A60FB68D3F8BC327B617B6991
:10202800002B01D1032308E07B69BA68C3F80822B2
:102038007B697A68C3F81022002318461C37BD460E
:102048005DF8047B704780B485B000AF7860396074
:102058007B68D3F8BC32FB60FB68002B01D10323FB
:1020680004E0FB683A68C3F80422002318461437D2
:10207800BD465DF8047B704780B584B000AF7860DA
:102088007B68D3F8BC32BB600123FB737B68D3F851
:10209800BC32002B01D103231AE0BB68D3F81432F9
:1020A800002B14D1BB680122C3F81422BB68D3F8F3
:1020B80010227B68DA62BB68D3F80822BB68D3F8C1
:1020C80010328121786800F0BCFD0023FB73FB7B94
:1020D80018461037BD4680BD80B584B000AF786023
:1020E8007B68D3F8BC32FB607B68D3F8BC32002B2A
:1020F80001D1032316E07B681B7C002B09D1FB6808
:10210800D3F804224FF400730121786800F0BAFD77
:1021180007E0FB68D3F8042240230121786800F027
:10212800B1FD002318461037BD4680BD80B500AF0D
:10213800084B00221A704FF4806207490748FEF7DF
:10214800B2F94FF4806206490648FEF7ACF901235C
:10215800184680BD78140020780C0020500C002010
:1021680078100020640C002080B500AF0248FEF70C
:102178006CFA0346184680BD500C002080B582B02A
:1021880000AF0023FB71FB1D012219460348FEF72F
:1021980004FAFB7918460837BD4680BD500C00206C
:1021A80090B587B000AF7860396000F04DF803460D
:1021B80083F00103DBB2002B01D000233EE00023B3
:1021C8003B61FEF78CF8F8602FE01E4B9C681D48B9
:1021D800FEF73BFA0346E31A013BBB603B687B61B1
:1021E8007A69BB689A4201D9BB687B617B69002B1D
:1021F8000CD07A6979681348FEF773F97A687B69B5
:1022080013447B603A697B6913443B6100F01CF816
:10221800034683F00103DBB2002B0BD1FEF75FF816
:102228000246FB68D31A632B06D83A693B689A4280
:10223800CBD302E000BF00E000BF3B6918461C3763
:10224800BD4690BD640C002080B400AF114BD3F89C
:10225800BC32002B01D1002317E00F4B1B7883F011
:102268000103DBB2002B01D000230EE0094B93F8E9
:102278009C32DBB2032B01D0002306E0054B5B68E0
:10228800002B01D1002300E001231846BD465DF86C
:10229800047B7047AC0100207814002090B587B00B
:1022A80000AF7860234B1B78002B15D0224B9C681D
:1022B8002148FEF7CAF90346E31A013B3B613B6933
:1022C8003F2B09D91D491E48FFF7BDFE1C48FFF7E3
:1022D80003FF184B00221A701A48FEF7B6F9786106
:1022E8007B6903F03F03002B05D17B69002B02D0EB
:1022F8007B69013B7B617B69002B15D0104BD3F8C0
:10230800BC32FB60FB68D3F81432002B0CD17A691D
:102318000D490C48FEF741F97A690B490848FFF75F
:1023280074FE0748FFF7A8FE002318461C37BD4671
:1023380090BD00BF79140020500C002080040020BC
:10234800AC010020640C00206808002080B500AFB4
:10235800002207490748FFF758FE07490548FFF7D5
:1023680072FE064B00221A700023184680BD00BF7B
:1023780068080020AC0100208004002078140020A8
:1023880080B400AF044B00221A7000231846BD46E3
:102398005DF8047B704700BF7814002080B485B0D6
:1023A80000AF03463960FB711346BB803B68FB6096
:1023B800FB79232B00F2B78001A252F823F000BF6B
:1023C8002F2500082F2500082F2500082F25000895
:1023D8002F2500082F2500082F2500082F25000885
:1023E8002F2500082F2500082F2500082F25000875
:1023F8002F2500082F2500082F2500082F25000865
:102408002F2500082F2500082F2500082F25000854
:102418002F2500082F2500082F2500082F25000844
:102428002F2500082F2500082F2500082F25000834
:102438002F2500082F2500082F2500082F25000824
:1024480059240008BF240008132500082F25000878
:102458003B681B78BB603B6801331B781B02BA687A
:102468001343BB603B6802331B781B04BA681343F1
:10247800BB603B6803331B781B06BA681343BB6019
:102488003B681A792C4B1A713B685A792A4B5A7156
:102498003B689A79284B9A71B968284BA3FB0123AA
:1024A800DA0813469B0013445B00CA1ABB689B1AE0
:1024B800214A136038E0204B1B68DAB23B681A7077
:1024C8001D4B1B681A0A3B680133D2B21A701A4BAB
:1024D8001B681A0C3B680233D2B21A70164B1B6881
:1024E8001A0E3B680333D2B21A703B680433124A9F
:1024F80012791A703B6805330F4A52791A703B6893
:1025080006330D4A92791A700EE0FB685B8803F077
:102518000103002B03D00A4B01221A7004E0084B78
:1025280000221A7000E000BF002318461437BD4689
:102538005DF8047B704700BF28010020CDCCCCCCCF
:102548007814002090B585B000AF786039603B689A
:102558001B681A4679680F48FDF7C3FF0D4B9C6846
:102568000C48FEF772F80346E31A013BFB60FB6870
:102578003F2B07D979680848FFF765FD0648FFF73C
:10258800ABFD02E0054B01221A70002318461437F0
:10259800BD4690BD500C0020AC01002079140020ED
:1025A80080B487B000AFF860B9601346FB710023B0
:1025B800FB7597F9173018461C37BD465DF8047B44
:1025C8007047000080B483B000AF03463960FB71E8
:1025D8003B6812221A80034B18460C37BD465DF83B
:1025E800047B70475001002080B483B000AF0346DD
:1025F8003960FB713B6804221A80034B18460C377C
:10260800BD465DF8047B70476401002080B582B048
:1026180000AF03463960FB71FB79002B05D13A689E
:1026280007490848FFF77FF904E03A680449054874
:10263800FFF779F9024B18460837BD4680BD00BF41
:102648007C140020A07B000880B582B000AF034650
:102658003960FB713A6804490448FFF764F9024B92
:1026680018460837BD4680BD7C140020B87B00089A
:1026780080B582B000AF03463960FB713B681A220F
:102688001A8000F043F8024B18460837BD4680BD53
:102698006801002080B582B000AF03463960FB7145
:1026A800FB79002B05D13A6807490848FFF73BF941
:1026B80004E03A6804490548FFF735F9024B184623
:1026C8000837BD4680BD00BF7C140020CC7B0008C5
:1026D80080B582B000AF03463960FB71FB79002BEF
:1026E80005D13A6807490848FFF71DF904E03A6838
:1026F80004490548FFF717F9024B18460837BD4645
:1027080080BD00BF7C140020D87B000880B584B051
:1027180000AF0F4B1B68FB600E4B1B68BB600E4B7A
:102728001B687B60FA687B681344FB60FB68002BBE
:1027380009D008220949F86800F014F80422084969
:10274800B86800F00FF800BF1037BD4680BD00BF65
:102758009075FF1F9475FF1F9875FF1F6A01002071
:102768007A01002080B487B000AFF860B9601346E2
:10277800FB710023FB750023FB7527E0FB681B0F2B
:10278800092B0BD8FB681B0FDAB2FB7D5B001946DF
:10279800BB680B443032D2B21A700AE0FB681B0FD8
:1027A800DAB2FB7D5B001946BB680B443732D2B204
:1027B8001A70FB681B01FB60FB7D5B000133BA6884
:1027C800134400221A70FB7D0133FB75FA7DFB79F7
:1027D8009A42D3D300BF00BF1C37BD465DF8047BC7
:1027E8007047000080B594B000AF786007F10C0323
:1027F80044220021184605F091F97B681B68154AA8
:10280800934222D14FF40053FB6000233B6407F14D
:102818000C03184603F0F0F80346002B01D0FDF72F
:10282800B2FD0D4B9B6D0C4A43F4000393650A4BB4
:102838009B6D03F40003BB60BB68002205211420D4
:1028480000F045FC142000F05CFC00BF5037BD468A
:1028580080BD00BF005C00400010024080B582B01F
:1028680000AF78607B68D3F8D8227B6803F52673BD
:1028780019461046FEF7BAF800BF0837BD4680BDB6
:1028880080B582B000AF78600B46FB707B68D3F8E8
:10289800D802FA78796813469B001344DB000B448E
:1028A80003F5B2731A68FB781946FEF7F4F800BF0F
:1028B8000837BD4680BD80B582B000AF78600B4652
:1028C800FB707B68D3F8D802FA78796813469B00C6
:1028D8001344DB000B4424331A68FB781946FEF7CF
:1028E8003DF900BF0837BD4680BD80B582B000AF56
:1028F80078607B68D3F8D8321846FEF751FA00BFE3
:102908000837BD4680BD80B584B000AF786001232C
:10291800FB737B685B79022B01D0FDF734FD7B6884
:10292800D3F8D832FA7B11461846FEF7FBF97B68D4
:10293800D3F8D8321846FEF7A7F900BF1037BD46BE
:1029480080BD000080B582B000AF78607B68D3F8A6
:10295800D8321846FEF7F6F97B685B7A002B05D06B
:10296800044B1B69034A43F00603136100BF083791
:10297800BD4680BD00ED00E080B582B000AF786054
:102988007B685B7A002B07D0084B1B69074A23F04A
:102998000603136100F0F8F97B68D3F8D8321846BB
:1029A800FEF7E6F900BF0837BD4680BD00ED00E040
:1029B80080B582B000AF78602B4A7B68C2F8D83205
:1029C8007B68294AC3F8C422274B284A1A60264B39
:1029D80008221A71244B02225A71234B0222DA71FF
:1029E800214B01221A72204B00225A721E4B0022E0
:1029F8009A721D4B0022DA721B4800F051FD034603
:102A0800002B01D0FDF7BFFC7B68D3F8C402182364
:102A18000022002102F0D8F97B68D3F8C4025823B9
:102A28000022802102F0D0F97B68D3F8C402C023C9
:102A38000022812102F0C8F97B68D3F8C4024FF460
:102A480088730022012102F0BFF97B68D3F8C40221
:102A58004FF480730022822102F0B6F90023184651
:102A68000837BD4680BD00BF7C160020005C0040D2
:102A780080B584B000AF78600023FB730023BB737C
:102A88007B68D3F8C432184600F0D8FD0346FB73C0
:102A9800FB7B184600F07EF90346BB73BB7B1846E8
:102AA8001037BD4680BD80B584B000AF7860084659
:102AB80011461A460346FB700B46BB7013463B8013
:102AC8000023FB730023BB737B68D3F8C402BB7875
:102AD8003A88F97800F01FFF0346FB73FB7B184622
:102AE80000F058F90346BB73BB7B18461037BD4648
:102AF80080BD80B584B000AF78600B46FB700023C2
:102B0800FB730023BB737B68D3F8C432FA78114691
:102B1800184600F05FFF0346FB73FB7B184600F086
:102B280039F90346BB73BB7B18461037BD4680BDD9
:102B380080B584B000AF78600B46FB700023FB7350
:102B48000023BB737B68D3F8C432FA781146184661
:102B580001F008F80346FB73FB7B184600F01AF9EE
:102B68000346BB73BB7B18461037BD4680BD80B596
:102B780084B000AF78600B46FB700023FB73002322
:102B8800BB737B68D3F8C432FA781146184601F053
:102B98003BF80346FB73FB7B184600F0FBF8034643
:102BA800BB73BB7B18461037BD4680BD80B485B06B
:102BB80000AF78600B46FB707B68D3F8C432FB60CB
:102BC80097F90330002B0BDAFB7803F07F02F968E2
:102BD80013469B001344DB000B4412331B780BE0B5
:102BE800FB7803F07F02F96813469B001344DB006F
:102BF8000B4403F5A9731B7818461437BD465DF8D6
:102C0800047B704780B584B000AF78600B46FB70DA
:102C18000023FB730023BB737B68D3F8C432FA78B4
:102C28001146184600F053FE0346FB73FB7B18461B
:102C380000F0B0F80346BB73BB7B18461037BD469F
:102C480080BD80B586B000AFF8607A603B600B4607
:102C5800FB720023FB750023BB75FB68D3F8C40225
:102C6800F97A3B687A6800F046FF0346FB75FB7DFE
:102C7800184600F08FF80346BB75BB7D1846183719
:102C8800BD4680BD80B586B000AFF8607A603B6015
:102C98000B46FB720023FB750023BB75FB68D3F85A
:102CA800C402F97A3B687A6800F0DCFE0346FB75DB
:102CB800FB7D184600F06EF80346BB75BB7D1846D1
:102CC8001837BD4680BD80B582B000AF78600B462E
:102CD800FB707B68D3F8C432FA781146184600F0C6
:102CE800F2FE034618460837BD4680BD80B582B05F
:102CF80000AF78600B46FB70FB78002B02D0012BED
:102D080013D023E07B685B7A002B07D000F03CF8F7
:102D1800104B1B690F4A23F0060313617B68D3F835
:102D2800D8321846FEF724F810E07B68D3F8D8327A
:102D38001846FEF707F87B685B7A002B05D0054B31
:102D48001B69044A43F00603136100BF00BF08373C
:102D5800BD4680BD00ED00E080B483B000AF786070
:102D6800034B18460C37BD465DF8047B704700BF1F
:102D78005819002080B483B000AF786000BF0C37CA
:102D8800BD465DF8047B704780B500AFFDF7AEFA2D
:102D980000BF80BD80B485B000AF0346FB7100233F
:102DA800FB73FB79032B17D801A252F823F000BF5D
:102DB800C92D0008CF2D0008D52D0008DB2D0008EF
:102DC8000023FB730BE00323FB7308E00123FB7371
:102DD80005E00323FB7302E00323FB7300BFFB7BC7
:102DE80018461437BD465DF8047B704780B582B03D
:102DF80000AF0123FB71FDF769FA03461A46FB7918
:102E08001340002B14BF01230023FB71FDF770FC56
:102E180003461A46FB791340002B14BF01230023F5
:102E2800FB71FDF7E1FC03461A46FB791340002BC2
:102E380014BF01230023FB710120FDF7E1FC0346C9
:102E48001A46FB791340002B14BF01230023FB71A2
:102E5800FB7918460837BD4680BD80B582B000AF03
:102E68000023FB71032000F027F90F2000F00EF873
:102E78000346002B02D00123FB7101E0FDF78AFA1B
:102E8800FB7918460837BD4680BD000080B584B080
:102E980000AF78600023FB73164B1B68002B22D011
:102EA800154B1A68134B1B684FF47A71B1FBF3F397
:102EB800B2FBF3F3184600F032F90346002B0FD1AA
:102EC8007B680F2B09D8002279684FF0FF3000F09B
:102ED800FEF80A4A7B68136007E00123FB7304E0ED
:102EE8000123FB7301E00123FB73FB7B18461037BA
:102EF800BD4680BD8801002000000020840100201C
:102F080080B400AF034B1B681846BD465DF8047BD0
:102F1800704700BF781B002080B485B000AF786090
:102F28007B6803F00703FB600C4BDB68BB60BA6887
:102F38004FF6FF031340BB60FB681A02BB681343DC
:102F480043F0BF6343F40033BB60044ABB68D360FB
:102F580000BF1437BD465DF8047B704700ED00E004
:102F680080B400AF044BDB681B0A03F00703184664
:102F7800BD465DF8047B704700ED00E080B483B087
:102F880000AF0346FB7197F90730002B0BDBFB7989
:102F980003F01F02074997F907305B09012000FA7F
:102FA80002F241F8232000BF0C37BD465DF8047BD0
:102FB800704700BF00E100E080B483B000AF034673
:102FC8003960FB7197F90730002B0ADB3B68DAB2EE
:102FD8000C4997F907301201D2B20B4483F8002349
:102FE8000AE03B68DAB20849FB7903F00F03043BB7
:102FF8001201D2B20B441A7600BF0C37BD465DF8F9
:10300800047B704700E100E000ED00E080B489B087
:1030180000AFF860B9607A60FB6803F00703FB61F2
:10302800FB69C3F10703042B28BF0423BB61FB69B9
:103038000433062B02D9FB69033B00E000237B61C4
:103048004FF0FF32BB6902FA03F3DA43BB681A4058
:103058007B699A404FF0FF317B6901FA03F3D9434A
:103068007B680B40134318462437BD465DF8047B44
:103078007047000080B582B000AF78607B68013B84
:10308800B3F1807F01D301230FE00A4A7B68013B3B
:1030980053600F214FF0FF30FFF78EFF054B0022E2
:1030A8009A60044B07221A60002318460837BD4669
:1030B80080BD00BF10E000E080B582B000AF78604E
:1030C8007868FFF729FF00BF0837BD4680BD80B587
:1030D80086B000AF0346B9607A60FB73FFF740FF24
:1030E80078617A68B9687869FFF790FF024697F9BE
:1030F8000F3011461846FFF75FFF00BF1837BD466F
:1031080080BD80B582B000AF0346FB7197F90730E8
:103118001846FFF733FF00BF0837BD4680BD80B5AE
:1031280082B000AF78607868FFF7A4FF03461846BE
:103138000837BD4680BD000080B487B000AF786016
:10314800396000237B615AE13B681A6801217B6979
:1031580001FA03F31340FB60FB68002B00F04C817D
:103168003B685B6803F00303012B05D03B685B6891
:1031780003F00303022B30D17B689B683B617B69BA
:103188005B00032202FA03F3DB433A6913403B6115
:103198003B68DA687B695B0002FA03F33A69134318
:1031A8003B617B683A699A607B685B683B61012296
:1031B8007B6902FA03F3DB433A6913403B613B68DE
:1031C8005B681B0903F001027B6902FA03F33A69A1
:1031D80013433B617B683A695A603B685B6803F05C
:1031E8000303032B17D07B68DB683B617B695B00BB
:1031F800032202FA03F3DB433A6913403B613B685D
:103208009A687B695B0002FA03F33A6913433B61EE
:103218007B683A69DA603B685B6803F00303022B5A
:1032280023D17B69DA087B68083253F822303B6186
:103238007B6903F007039B000F2202FA03F3DB43C9
:103248003A6913403B613B681A697B6903F00703DD
:103258009B0002FA03F33A6913433B617B69DA087E
:103268007B680832396943F822107B681B683B6128
:103278007B695B00032202FA03F3DB433A691340DC
:103288003B613B685B6803F003027B695B0002FA01
:1032980003F33A6913433B617B683A691A603B68F8
:1032A8005B6803F44033002B00F0A6805B4B1B6E79
:1032B8005A4A43F001031366584B1B6E03F001038F
:1032C800BB60BB68564A7B699B08023352F82330BF
:1032D8003B617B6903F003039B000F2202FA03F3AF
:1032E800DB433A6913403B617B68B3F1904F1FD0D1
:1032F8007B684C4A934219D07B684B4A934213D05F
:103308007B684A4A93420DD07B68494A934207D06A
:103318007B68484A934201D105230AE0062308E066
:10332800042306E0032304E0022302E0012300E073
:1033380000237A6902F00302920093403A6913432A
:103348003B6137497B699B0802333A6941F823207E
:10335800394B9B683B61FB68DB433A6913403B612F
:103368003B685B6803F48013002B03D03A69FB6861
:1033780013433B61304A3B6993602F4BDB683B61E9
:10338800FB68DB433A6913403B613B685B6803F4C5
:103398000013002B03D03A69FB6813433B61264AAC
:1033A8003B69D360244B5B683B61FB68DB433A694C
:1033B80013403B613B685B6803F40033002B03D088
:1033C8003A69FB6813433B611B4A3B6953601A4BDC
:1033D8001B683B61FB68DB433A6913403B613B6810
:1033E8005B6803F48033002B03D03A69FB6813430E
:1033F8003B61114A3B6913607B6901337B613B6820
:103408001A687B6922FA03F3002B7FF49DAE00BF94
:1034180000BF1C37BD465DF8047B704700100240B2
:10342800000001400004004800080048000C004863
:1034380000100048001400480004014080B483B024
:1034480000AF78600B467B8013467B707B78002B3F
:1034580003D07A887B689A6102E07A887B689A62EE
:1034680000BF0C37BD465DF8047B704780B485B05B
:1034780000AF78600B467B807B685B69FB607A886D
:10348800FB6813401A04FB68D9437B880B401A4336
:103498007B689A6100BF1437BD465DF8047B7047AE
:1034A80080B584B000AF78607B68002B01D1012320
:1034B800C0E07B6893F89132DBB2002B06D17B68C1
:1034C800002283F890227868FFF78CF97B68032242
:1034D80083F891227B681B68184602F094FC00234D
:1034E800FB733EE0FA7B796813469B001344DB00CC
:1034F8000B44113301221A70FA7B796813469B003A
:103508001344DB000B441033FA7B1A70FA7B79689A
:1035180013469B001344DB000B44133300221A703C
:10352800FA7B796813469B001344DB000B44203375
:1035380000221A60FA7B796813469B001344DB006B
:103548000B44243300221A60FB7B79685A1C13460B
:103558009B001344DB000B4400221A60FB7B013301
:10356800FB737B681B79FA7B9A42BBD30023FB73FE
:1035780044E0FA7B796813469B001344DB000B4454
:1035880003F2511300221A70FA7B796813469B00E4
:103598001344DB000B4403F5A873FA7B1A70FA7B1B
:1035A800796813469B001344DB000B4403F2531362
:1035B80000221A70FA7B796813469B001344DB00DB
:1035C8000B4403F5B07300221A60FA7B796813463E
:1035D8009B001344DB000B4403F5B27300221A600E
:1035E800FA7B796813469B001344DB000B4403F510
:1035F800B47300221A60FB7B0133FB737B681B7971
:10360800FA7B9A42B5D37B6818687B68043393E8E1
:10361800060002F013FC7B6800221A737B68012203
:1036280083F891227B689B7A012B02D1786801F09C
:103638000EFC002318461037BD4680BD80B582B009
:1036480000AF78607B6893F89032012B01D1022398
:1036580012E07B68012283F890227B681B68184679
:1036680002F0BAFB7B681B68184604F097F97B6880
:10367800002283F89022002318460837BD4680BDF3
:1036880080B584B000AF78607B681B68184604F08A
:103698009CF9F860FB6803F40043002B03D07868BA
:1036A80000F006FB10E1FB6803F48063002B13D0E5
:1036B8007B681B68B3F844309AB27B681B6822F4B5
:1036C800806292B2A3F844207868FFF71CF90021C1
:1036D800786800F0FCF8F7E0FB6803F48043002BFF
:1036E8000CD07B681B68B3F844309AB27B681B68BF
:1036F80022F4804292B2A3F84420E5E0FB6803F488
:103708000053002B0CD07B681B68B3F844309AB286
:103718007B681B6822F4005292B2A3F84420D3E0DD
:10372800FB6803F48053002B34D07B681B68B3F824
:1037380040309AB27B681B6822F0040292B2A3F868
:1037480040207B681B68B3F840309AB27B681B68DE
:1037580022F0080292B2A3F840207B6893F8C8329E
:10376800012B07D17B68002283F8C82200217868E2
:10377800FFF7BCFA7868FFF7FFF87B681B68B3F8B7
:1037880044309AB27B681B6822F4805292B2A3F844
:10379800442099E0FB6803F40063002B27D07B6882
:1037A8001B68B3F840309AB27B681B6842F0080285
:1037B80092B2A3F840207B681B68B3F844309AB2F1
:1037C8007B681B6822F4006292B2A3F844207B68ED
:1037D8001B68B3F840309AB27B681B6842F0040259
:1037E80092B2A3F840207868FFF7ACF86CE0FB6869
:1037F80003F08003002B40D07B681B68B3F844308B
:103808009AB27B681B6822F0800292B2A3F8442027
:103818007B6893F8C832002B2BD17B681B68B3F800
:1038280040309AB27B681B6842F0040292B2A3F857
:1038380040207B681B68B3F840309AB27B681B68ED
:1038480042F0080292B2A3F840207B68012283F874
:10385800C8227B681B68B3F854309BB29B0803F0FE
:103868003C027B68C3F8CC2201217868FFF73EFA56
:103878002AE07868FFF766F826E0FB6803F400732F
:10388800002B0FD07B681B68B3F844309AB27B6872
:103898001B6822F4007292B2A3F844207868FFF7FC
:1038A80024F811E0FB6803F48073002B0CD07B68CC
:1038B8001B68B3F844309AB27B681B6822F48072A4
:1038C80092B2A3F8442000BF1037BD4680BD80B532
:1038D80082B000AF78600B46FB707B6893F890323B
:1038E800012B01D1022312E07B68012283F8902288
:1038F8007B68FA781A737B681B68FA781146184651
:1039080004F038F87B68002283F8902200231846D8
:103918000837BD4680BD80B584B000AF78600846E2
:1039280011461A460346FB700B463B801346BB7094
:103938000023FB7297F90330002B0EDAFB7803F0B3
:10394800070213469B001344DB0010337A681344C4
:10395800FB60FB6801225A700EE0FB7803F0070257
:1039680013469B001344DB0003F5A8737A681344DD
:10397800FB60FB6800225A70FB7803F00703DAB299
:10398800FB681A703B88C3F30A02FB681A61FB687C
:10399800BA78DA70BB78022B02D1FB6800221A7160
:1039A8007B6893F89032012B01D102230EE07B68EB
:1039B800012283F890227B681B68F968184602F098
:1039C8005BFA7B68002283F89022FB7A184610374E
:1039D800BD4680BD80B584B000AF78600B46FB70F3
:1039E80097F90330002B0EDAFB7803F00702134631
:1039F8009B001344DB0010337A681344FB60FB68B8
:103A080001225A700EE0FB7803F0070213469B0070
:103A18001344DB0003F5A8737A681344FB60FB6862
:103A280000225A70FB7803F00703DAB2FB681A70B9
:103A38007B6893F89032012B01D102230EE07B685A
:103A4800012283F890227B681B68F968184602F007
:103A5800FBFE7B68002283F890220023184610376B
:103A6800BD4680BD80B586B000AFF8607A603B6027
:103A78000B46FB72FB7A03F0070213469B001344C4
:103A8800DB0003F5A873FA6813447B617B697A68E5
:103A98005A617B693A689A617B690022DA617B69BD
:103AA80000225A70FB7A03F00703DAB27B691A70B6
:103AB800FB681B687969184603F0B3F800231846B9
:103AC8001837BD4680BD80B483B000AF78600B4620
:103AD800FB70FB7803F00702796813469B001344D8
:103AE800DB000B4403F5B6731B6818460C37BD465C
:103AF8005DF8047B704780B586B000AFF8607A60E7
:103B08003B600B46FB72FB7A03F0070213469B00EF
:103B18001344DB001033FA6813447B617B697A68CD
:103B28005A617B693A689A617B69012283F824208B
:103B38007B693A681A627B690022DA617B69012233
:103B48005A70FB7A03F00703DAB27B691A70FB68D4
:103B58001B687969184603F064F80023184618377B
:103B6800BD4680BD80B584B000AF78600B46FB7061
:103B7800FB7803F007037A681279934201D901238D
:103B88003EE097F90330002B0EDAFB7803F00702CA
:103B980013469B001344DB0010337A681344FB6020
:103BA800FB6801225A700CE0FA7813469B00134414
:103BB800DB0003F5A8737A681344FB60FB680022F6
:103BC8005A70FB6801229A70FB7803F00703DAB297
:103BD800FB681A707B6893F89032012B01D102239D
:103BE8000EE07B68012283F890227B681B68F968E5
:103BF800184603F0C5FD7B68002283F89022002355
:103C080018461037BD4680BD80B584B000AF7860D7
:103C18000B46FB70FB7803F00F037A681279934226
:103C280001D9012340E097F90330002B0EDAFB7825
:103C380003F0070213469B001344DB0010337A6835
:103C48001344FB60FB6801225A700EE0FB7803F016
:103C5800070213469B001344DB0003F5A8737A6838
:103C68001344FB60FB6800225A70FB6800229A70BC
:103C7800FB7803F00703DAB2FB681A707B6893F8E5
:103C88009032012B01D102230EE07B68012283F8D8
:103C980090227B681B68F968184603F0C2FD7B68B0
:103CA800002283F89022002318461037BD4680BDB5
:103CB80080B592B000AF786033E37B681B68B3F8D7
:103CC80044307B877B8FDBB203F00F0387F83930F2
:103CD80097F83930002B40F008817B8F03F01003F0
:103CE800002B4CD17B681B681B889BB223F4E143F3
:103CF80023F070033B817B681A683B896FEA434372
:103D08006FEA53439BB213807B6810333B647B6834
:103D18001B68B3F850309BB21A463B6C1B78DB002B
:103D280013447A681268134403F202431B88C3F3EE
:103D380009023B6CDA613B6C5A693B6CDB691A44DB
:103D48003B6C5A6100217868FEF7B5FD7B681B7BE8
:103D5800DBB2002B00F0E5823B6C9B69002B40F046
:103D6800E0827B681B7BDBB263F07F03DAB27B689F
:103D78001B68A3F84C207B6800221A73D1E27B6889
:103D880003F5A8733B647B681B681B88FB86FB8E66
:103D980003F40063002B32D07B681B68B3F8503003
:103DA8009BB21A463B6C1B78DB0013447A68126896
:103DB800134403F206431B88C3F309023B6CDA6120
:103DC8007B6818687B6803F526713B6CDA883B6C66
:103DD800DB699BB203F04BFE7B681B681B889AB2B9
:103DE80040F68F7313407B817B681B687A8942F0A9
:103DF800800292B21A807868FEF730FD91E2B7F936
:103E08003630002B80F28D827B681B681B889AB243
:103E180040F68F731340FB817B681B68FA8942F078
:103E2800800292B21A807B681B68B3F850309BB24C
:103E38001A463B6C1B78DB0013447A6812681344FB
:103E480003F206431B88C3F309023B6CDA613B6C3F
:103E5800DB69002B19D03B6C5B69002B15D07B68A4
:103E680018683B6C59693B6CDA883B6CDB699BB220
:103E780003F0FDFD3B6C5A693B6CDB691A443B6CF3
:103E88005A6100217868FEF7FBFC7B681B681B8879
:103E9800FB86FB8E03F40063002B40F04282FB8E0E
:103EA80003F44053B3F5405F00F03B827B681B6826
:103EB8001B889BB223F4804323F07003BB81BB892A
:103EC80083F48053BB81BB8983F40053BB817B6837
:103ED8001A68BB8943F07F4343F47F0343F40043EC
:103EE80043F080039BB213801BE27B681B681A4671
:103EF80097F839309B0013441B88FB86B7F9363096
:103F0800002B80F2F1807B681B681A4697F83930DD
:103F18009B0013441B889AB240F68F731340BB86EC
:103F28007B681B681A4697F839309B001344BA8E91
:103F380042F0800292B21A8097F8392013469B000B
:103F48001344DB0003F5A8737A6813443B643B6CA5
:103F58001B7B002B23D17B681B68B3F850309BB2C6
:103F68001A463B6C1B78DB0013447A6812681344CA
:103F780003F206431B88C3F30903A7F84630B7F8D2
:103F88004630002B00F08B807B6818683B6C5969C1
:103F98003B6CDA88B7F8463003F069FD7FE03B6C8C
:103FA800DB78022B09D1FB8E1A46396C786800F051
:103FB800C6F90346A7F8463071E07B681B681A46C5
:103FC8003B6C1B789B0013441B889BB223F4E04393
:103FD80023F07003BB877B681B681A463B6C1B7811
:103FE8009B001A44BB8F43F07F4343F47F0343F4A1
:103FF800004343F0C0039BB213807B681B681A46DA
:104008003B6C1B789B0013441B889BB203F48043D2
:10401800002B22D07B681B68B3F850309BB21A463D
:104028003B6C1B78DB0013447A681268134403F274
:1040380002431B88C3F30903A7F84630B7F8463094
:10404800002B2CD07B6818683B6C59693B6C1A892B
:10405800B7F8463003F00BFD21E07B681B68B3F826
:1040680050309BB21A463B6C1B78DB0013447A68CD
:104078001268134403F206431B88C3F30903A7F825
:104088004630B7F84630002B09D07B6818683B6C7F
:1040980059693B6C5A89B7F8463003F0E8FC3B6C29
:1040A800DA69B7F846301A443B6CDA613B6C5A69F6
:1040B800B7F846301A443B6C5A613B6C9B69002B3D
:1040C80005D0B7F846203B6C1B699A4206D23B6C78
:1040D8001B7819467868FEF7D3FB05E07B681B68F8
:1040E800396C184602F09DFDFB8E03F08003002B0F
:1040F80000F0178197F8392013469B001344DB0022
:1041080010337A6813443B647B681B681A4697F837
:1041180039309B0013441B889BB223F4E14323F0FE
:104128007003FB877B681B681A4697F839309B0039
:104138001A44FB8F6FEA43436FEA53439BB21380E1
:104148003B6CDB78012B40F0A1803B6C00229A612C
:104158003B6C1B7B002B00F09280FB8E03F040032E
:10416800002B46D03B6C5B78002B26D17B681B6804
:104178007B617B681B68B3F850309BB21A467B6939
:1041880013447B613B6C1B78DA007B69134403F2B0
:1041980002433B613B691B889BB2C3F309039AB294
:1041A8003B691A803B691B889BB26FEA43436FEAFD
:1041B80053439AB23B691A8061E03B6C5B78012BF0
:1041C8005DD17B681B68FB617B681B68B3F8503066
:1041D8009BB21A46FB691344FB613B6C1B78DA00FF
:1041E800FB69134403F20243BB61BB6900221A80D6
:1041F80045E07B681B68FB623B6C5B78002B26D133
:104208007B681B687B627B681B68B3F850309BB285
:104218001A467B6A13447B623B6C1B78DA007B6A24
:10422800134403F206433B623B6A1B889BB2C3F309
:1042380009039AB23B6A1A803B6A1B889BB26FEAF1
:1042480043436FEA53439AB23B6A1A8017E03B6CC8
:104258005B78012B13D17B681B68B3F850309BB295
:104268001A46FB6A1344FB623B6C1B78DA00FB6A54
:10427800134403F20643BB62BB6A00221A803B6CFC
:104288001B7819467868FEF716FB4AE0FB8E03F4A4
:104298008073002B3FD17B681B68B3F850309BB20A
:1042A8001A463B6C1B78DB0013447A681268134487
:1042B80003F202431B88C3F309037B863B6C9A69AC
:1042C8007B8E9A4206D93B6C9A697B8ED21A3B6CDC
:1042D8009A6102E03B6C00229A613B6C9B69002B5F
:1042E80006D13B6C1B7819467868FEF7E4FA18E0AB
:1042F8003B6C5A697B8E1A443B6C5A613B6CDA6999
:104308007B8E1A443B6CDA617B681B68396C1846F3
:1043180002F087FC05E0FB8E1A46396C786800F0DD
:1043280017F97B681B68B3F844309BB21BB2002BAB
:10433800FFF6C3AC002318464837BD4680BD80B59C
:1043480088B000AFF860B9601346FB80FB8803F4BF
:104358008043002B7CD0FB681B68B3F850309BB2BD
:104368001A46BB681B78DB001344FA6812681344CA
:1043780003F202431B88C3F309037B83BB689A6972
:104388007B8B9A4206D3BB689A697B8BD21ABB682F
:104398009A6102E0BB6800229A61BB689B69002BA6
:1043A80023D1FB681B681A46BB681B789B00134423
:1043B8001B889BB223F4804323F070033B833B8B21
:1043C80083F400533B83FB681B681A46BB681B7861
:1043D8009B001A443B8B43F07F4343F47F0343F431
:1043E800004343F080039BB21380FB8803F0400333
:1043F800002B1FD0FB681B681A46BB681B789B0004
:1044080013441B889BB223F4E04323F07003FB8220
:10441800FB681B681A46BB681B789B001A44FB8A1A
:1044280043F07F4343F47F0343F4004343F0C00366
:104438009BB213807B8B002B00F08580FB6818688B
:10444800BB685969BB681A897B8B03F010FB7AE05B
:10445800FB681B68B3F850309BB21A46BB681B78E0
:10446800DB001344FA681268134403F206431B88FE
:10447800C3F309037B83BB689A697B8B9A4206D393
:10448800BB689A697B8BD21ABB689A6102E0BB68E9
:1044980000229A61BB689B69002B23D1FB681B68CB
:1044A8001A46BB681B789B0013441B889BB223F4F5
:1044B800804323F07003FB83FB8B83F40053FB835F
:1044C800FB681B681A46BB681B789B001A44FB8B69
:1044D80043F07F4343F47F0343F4004343F08003F6
:1044E8009BB21380FB8803F04003002B1FD1FB68AD
:1044F8001B681A46BB681B789B0013441B889BB239
:1045080023F4E04323F07003BB83FB681B681A465F
:10451800BB681B789B001A44BB8B43F07F4343F472
:104528007F0343F4004343F0C0039BB213807B8BAB
:10453800002B08D0FB681868BB685969BB685A89A2
:104548007B8B03F094FA7B8B18462037BD4680BDE1
:1045580080B5A6B000AFF860B9601346FB80FB8851
:1045680003F04003002B00F0F781FB681B68B3F8E9
:1045780050309BB21A46BB681B78DB001344FA68BC
:104588001268134403F202431B88C3F30903A7F814
:104598009630BB689A69B7F896309A4207D9BB68D3
:1045A8009A69B7F89630D21ABB689A6102E0BB687C
:1045B80000229A61BB689B69002B40F0E180BB68D0
:1045C8005B78002B26D1FB681B683B63FB681B6884
:1045D800B3F850309BB21A463B6B13443B63BB683D
:1045E8001B78DA003B6B134403F20243FB62FB6A5D
:1045F8001B889BB2C3F309039AB2FB6A1A80FB6A51
:104608001B889BB26FEA43436FEA53439AB2FB6A33
:104618001A801AE0BB685B78012B16D1FB681B680F
:10462800BB63FB681B68B3F850309BB21A46BB6B80
:104638001344BB63BB681B78DA00BB6B134403F2FB
:1046480002437B637B6B00221A80FB681B68BB629A
:10465800BB685B78002B26D1FB681B683B62FB6854
:104668001B68B3F850309BB21A463B6A13443B624E
:10467800BB681B78DA003B6A134403F20643FB610C
:10468800FB691B889BB2C3F309039AB2FB691A80C2
:10469800FB691B889BB26FEA43436FEA53439AB2A4
:1046A800FB691A8017E0BB685B78012B13D1FB68A4
:1046B8001B68B3F850309BB21A46BB6A1344BB62FE
:1046C800BB681B78DA00BB6A134403F206437B62BB
:1046D8007B6A00221A80BB68DB78022B23D1FB6837
:1046E8001B681A46BB681B789B0013441B889BB247
:1046F80023F4E04323F040037B837B8B83F0200388
:104708007B83FB681B681A46BB681B789B001A44AE
:104718007B8B43F07F4343F47F0343F4004343F030
:1047280080039BB21380BB681B781946F868FEF7B4
:10473800C2F8FB8803F48043002B1FD0FB681B687A
:104748001A46BB681B789B0013441B889BB223F452
:10475800E04323F070033B83FB681B681A46BB6881
:104768001B789B001A443B8B43F07F4343F47F0341
:1047780043F4404343F080039BB2138000231FE3BC
:10478800FB8803F48043002B21D0FB681B681A4682
:10479800BB681B789B0013441B889BB223F4E0433F
:1047A80023F07003A7F84E30FB681B681A46BB68F5
:1047B8001B789B001A44B7F84E3043F07F4343F40C
:1047C8007F0343F4404343F080039BB21380BB68EC
:1047D80093F82430012B40F0CA82BB685A69B7F8B5
:1047E80096301A44BB685A61BB68DA69B7F89630E4
:1047F8001A44BB68DA61BB681A6ABB681B699A42CB
:1048080009D3BB681B69BB65BB681A6ABB6DD21A42
:10481800BB681A6215E0BB681B6A002B07D1B7F8A2
:104828009630BB65BB68002283F8242009E0BB688A
:10483800002283F82420BB681B6ABB65BB68002282
:104848001A62BB685B78002B5FD1FB681B683B640E
:10485800FB681B68B3F850309BB21A463B6C134494
:104868003B64BB681B78DA003B6C134403F20243D9
:10487800FB63FB6B1B889BB2C3F309039AB2FB6B08
:104888001A80BB6D002B0AD1FB6B1B889BB26FEAA9
:1048980043436FEA53439AB2FB6B1A8051E0BB6DF6
:1048A8003E2B16D8BB6D5B083B65BB6D03F001035F
:1048B800002B02D03B6D01333B65FB6B1B889AB222
:1048C8003B6D9BB29B029BB213439AB2FB6B1A805F
:1048D80037E0BB6D5B093B65BB6D03F01F03002B25
:1048E80002D13B6D013B3B65FB6B1B889AB23B6D6C
:1048F8009BB29B029BB213439BB26FEA43436FEA9E
:1049080053439AB2FB6B1A801BE0BB685B78012BA0
:1049180017D1FB681B68BB64FB681B68B3F8503091
:104928009BB21A46BB6C1344BB64BB681B78DA00A5
:10493800BB6C134403F202437B64BB6D9AB27B6C7D
:104948001A80FB681868BB685969BB681A89BB6D0F
:104958009BB203F04AF80AE2FB681B68B3F85030D0
:104968009BB21A46BB681B78DB001344FA681268CE
:10497800134403F206431B88C3F30903A7F89630D0
:10498800BB689A69B7F896309A4207D3BB689A69A8
:10499800B7F89630D21ABB689A6102E0BB68002269
:1049A8009A61BB689B69002B40F0F680BB685B7816
:1049B800002B26D1FB681B687B67FB681B68B3F874
:1049C80050309BB21A467B6F13447B67BB681B78D9
:1049D800DA007B6F134403F202433B673B6F1B888B
:1049E8009BB2C3F309039AB23B6F1A803B6F1B88D3
:1049F8009BB26FEA43436FEA53439AB23B6F1A8004
:104A08001AE0BB685B78012B16D1FB681B68FB6753
:104A1800FB681B68B3F850309BB21A46FB6F13440F
:104A2800FB67BB681B78DA00FB6F134403F2024391
:104A3800BB67BB6F00221A80FB681B68C7F884300D
:104A4800BB685B78002B2FD1FB681B68C7F88C30DC
:104A5800FB681B68B3F850309BB21A46D7F88C3005
:104A68001344C7F88C30BB681B78DA00D7F88C3051
:104A7800134403F20643C7F88830D7F888301B88F8
:104A88009BB2C3F309039AB2D7F888301A80D7F8D3
:104A980088301B889BB26FEA43436FEA53439AB24C
:104AA800D7F888301A801CE0BB685B78012B18D1D6
:104AB800FB681B68B3F850309BB21A46D7F88430AD
:104AC8001344C7F88430BB681B78DA00D7F8843001
:104AD800134403F20643C7F88030D7F88030002229
:104AE8001A80BB68DB78022B27D1FB681B681A4643
:104AF800BB681B789B0013441B889BB223F4E043DC
:104B080023F04003A7F89430B7F8943083F02003DB
:104B1800A7F89430FB681B681A46BB681B789B0093
:104B28001A44B7F8943043F07F4343F47F0343F4C7
:104B3800004343F080039BB21380BB681B7819467F
:104B4800F868FDF7B8FEFB8803F48043002B21D1F9
:104B5800FB681B681A46BB681B789B0013441B88BC
:104B68009BB223F4E04323F07003A7F89230FB686C
:104B78001B681A46BB681B789B001A44B7F892302A
:104B880043F07F4343F47F0343F4404343F08003FF
:104B98009BB21380002313E1FB8803F48043002BAE
:104BA80021D1FB681B681A46BB681B789B0013441D
:104BB8001B889BB223F4E04323F07003A7F8563018
:104BC800FB681B681A46BB681B789B001A44B7F839
:104BD800563043F07F4343F47F0343F4404343F0AC
:104BE80080039BB21380BB6893F82430012B40F0FC
:104BF800BE80BB685A69B7F896301A44BB685A61D8
:104C0800BB68DA69B7F896301A44BB68DA61BB68E2
:104C18001A6ABB681B699A4209D3BB681B69BB65E2
:104C2800BB681A6ABB6DD21ABB681A6215E0BB680A
:104C38001B6A002B07D1B7F89630BB65BB6800220A
:104C480083F8242009E0BB681B6ABB65BB680022A7
:104C58001A62BB68002283F82420FB681B68FB6586
:104C6800BB685B78002B5FD1FB681B68BB66FB6881
:104C78001B68B3F850309BB21A46BB6E1344BB6630
:104C8800BB681B78DA00BB6E134403F206437B66ED
:104C98007B6E1B889BB2C3F309039AB27B6E1A80A2
:104CA800BB6D002B0AD17B6E1B889BB26FEA434316
:104CB8006FEA53439AB27B6E1A804EE0BB6D3E2B6F
:104CC80016D8BB6D5B083B66BB6D03F00103002B78
:104CD80002D03B6E01333B667B6E1B889AB23B6EFB
:104CE8009BB29B029BB213439AB27B6E1A8034E04C
:104CF800BB6D5B093B66BB6D03F01F03002B02D144
:104D08003B6E013B3B667B6E1B889AB23B6E9BB247
:104D18009B029BB213439BB26FEA43436FEA534330
:104D28009AB27B6E1A8018E0BB685B78012B14D1AD
:104D3800FB681B68B3F850309BB21A46FB6D1344EE
:104D4800FB65BB681B78DA00FB6D134403F206436E
:104D5800FB66BB6D9AB2FB6E1A80FB681868BB686D
:104D68005969BB685A89BB6D9BB202F03EFEFB686D
:104D78001B681A46BB681B789B0013441B889BB2B0
:104D880023F4E04323F04003FB82FB8A83F0100303
:104D9800FB82FB8A83F02003FB82FB681B681A46B0
:104DA800BB681B789B001A44FB8A43F07F4343F49B
:104DB8007F0343F4004343F080039BB21380002336
:104DC80018469837BD4680BD80B487B000AFF860FC
:104DD8007B600B467B8113463B817B8903F0800314
:104DE8009BB2002B0BD07B8903F0070213469B0074
:104DF8001344DB001033FA6813447B6109E07A89B5
:104E080013469B001344DB0003F5A873FA681344A8
:104E18007B613B89002B07D17B6900221A737B6871
:104E28009AB27B69DA800BE07B6901221A737B688E
:104E38009AB27B691A817B681B0C9AB27B695A818A
:104E4800002318461C37BD465DF8047B704780B4C4
:104E580085B000AF78607B681B68FB607B680122C7
:104E6800C3F8D0227B68002283F8C822FB68B3F815
:104E780054309BB243F001039AB2FB68A3F8542064
:104E8800FB68B3F854309BB243F002039AB2FB6854
:104E9800A3F85420002318461437BD465DF8047B58
:104EA8007047000080B485B000AF78607B68002B45
:104EB80041D14B4B1B6803F4C063B3F5806F31D10C
:104EC800474BD3F88030464A23F48073C2F88030C9
:104ED800434B1B6823F4C063414A43F400731360D7
:104EE800404B1B68322202FB03F33F4AA2FB032319
:104EF8009B0C0133FB6002E0FB68013BFB60384B15
:104F08005B6903F48063B3F5806F02D1FB68002B03
:104F1800F2D1334B5B6903F48063B3F5806F58D1EA
:104F2800032357E02E4BD3F880302D4A23F48073A7
:104F3800C2F880304DE07B68B3F5007F41D1284B43
:104F48001B6803F4C063B3F5806F31D1244BD3F8E9
:104F58008030234A43F48073C2F88030204B1B68AA
:104F680023F4C0631E4A43F4007313601D4B1B688F
:104F7800322202FB03F31C4AA2FB03239B0C0133DE
:104F8800FB6002E0FB68013BFB60154B5B6903F4C7
:104F98008063B3F5806F02D1FB68002BF2D1104B10
:104FA8005B6903F48063B3F5806F12D1032311E0CA
:104FB8000B4BD3F880300A4A43F48073C2F8803030
:104FC80007E0074B1B6823F4C063054A43F480637A
:104FD8001360002318461437BD465DF8047B7047FC
:104FE800007000400000002083DE1B4380B400AF47
:104FF800054B9B68044A43F48043936000BFBD4659
:105008005DF8047B704700BF0070004080B588B031
:1050180000AF78607B68002B01D10123FEE27B683A
:105028001B6803F00103002B75D0974B9B6803F0B6
:105038000C03BB61944BDB6803F003037B61BB6922
:105048000C2B02D17B69032B02D0BB69082B0BD137
:105058008D4B1B6803F40033002B5BD07B685B68C7
:10506800002B57D10123D9E27B685B68B3F5803FF9
:1050780006D1854B1B68844A43F4803313601DE0D6
:105088007B685B68B3F5A02F0CD17F4B1B687E4A09
:1050980043F4802313607C4B1B687B4A43F48033C2
:1050A80013600BE0784B1B68774A23F48033136056
:1050B800754B1B68744A23F4802313607B685B6814
:1050C800002B13D0FDF71CFF386108E0FDF718FF2F
:1050D80002463B69D31A642B01D903239EE26A4B2B
:1050E8001B6803F40033002BF0D014E0FDF708FF31
:1050F800386108E0FDF704FF02463B69D31A642BC8
:1051080001D903238AE2604B1B6803F40033002BA8
:10511800F0D100E000BF7B681B6803F00203002B9E
:1051280075D0594B9B6803F00C03BB61564BDB6889
:1051380003F003037B61BB690C2B02D17B69022B53
:1051480002D0BB69042B1FD14F4B1B6803F480634B
:10515800002B05D07B68DB68002B01D101235DE2C1
:10516800494B5B6823F0FE427B681B691B06464976
:1051780013434B60454B1B681846FDF787FE0346F3
:10518800002B43D0012349E27B68DB68002B23D046
:105198003D4B1B683C4A43F480731360FDF7B0FE37
:1051A800386108E0FDF7ACFE02463B69D31A022BD2
:1051B80001D9032332E2344B1B6803F48063002BCC
:1051C800F0D0314B5B6823F0FE427B681B691B06FD
:1051D8002D4913434B601AE02B4B1B682A4A23F4D2
:1051E80080731360FDF78CFE386108E0FDF788FED8
:1051F80002463B69D31A022B01D903230EE2224B44
:105208001B6803F48063002BF0D100E000BF7B68CB
:105218001B6803F00803002B41D07B685B69002BF7
:105228001CD0194BD3F89430174A43F00103C2F845
:105238009430FDF765FE386108E0FDF761FE02462F
:105248003B69D31A022B01D90323E7E10E4BD3F8AC
:10525800943003F00203002BEFD020E00A4BD3F880
:105268009430094A23F00103C2F89430FDF748FE50
:1052780038610DE0FDF744FE02463B69D31A022B64
:1052880006D90323CAE100BF0010024084010020B0
:105298008C4BD3F8943003F00203002BEAD17B68DF
:1052A8001B6803F00403002B00F0A6800023FB77A3
:1052B800844B9B6D03F08053002B01D1012300E048
:1052C8000023002B0DD07F4B9B6D7E4A43F080530B
:1052D80093657C4B9B6D03F08053FB60FB68012357
:1052E800FB77794B1B6803F48073002B18D1764B3E
:1052F8001B68754A43F480731360FDF701FE38613B
:1053080008E0FDF7FDFD02463B69D31A022B01D9DF
:10531800032383E16C4B1B6803F48073002BF0D0EC
:105328007B689B68012B08D1664BD3F89030654A9F
:1053380043F00103C2F8903024E07B689B68052B9A
:1053480010D1604BD3F890305E4A43F00403C2F8A2
:1053580090305C4BD3F890305A4A43F00103C2F8BE
:1053680090300FE0574BD3F89030564A23F00103A2
:10537800C2F89030534BD3F89030524A23F00403CC
:10538800C2F890307B689B68002B16D0FDF7B8FDFB
:1053980038610AE0FDF7B4FD02463B69D31A41F2D1
:1053A8008832934201D9032338E1464BD3F8903031
:1053B80003F00203002BEDD015E0FDF7A1FD3861E5
:1053C8000AE0FDF79DFD02463B69D31A41F2883297
:1053D800934201D9032321E13A4BD3F8903003F0EB
:1053E8000203002BEDD1FB7F012B05D1354B9B6DC3
:1053F800344A23F0805393657B681B6803F02003CD
:10540800002B3CD07B689B69002B1CD02D4BD3F81C
:1054180098302C4A43F00103C2F89830FDF770FD2C
:10542800386108E0FDF76CFD02463B69D31A022B90
:1054380001D90323F2E0234BD3F8983003F0020399
:10544800002BEFD01BE01F4BD3F898301D4A23F0F8
:105458000103C2F89830FDF753FD386108E0FDF705
:105468004FFD02463B69D31A022B01D90323D5E02D
:10547800144BD3F8983003F00203002BEFD17B686C
:10548800DB69002B00F0C9800E4B9B6803F00C030E
:105498000C2B00F083807B68DB69022B5ED1094B03
:1054A8001B68084A23F080731360FDF729FD3861F3
:1054B8000CE0FDF725FD02463B69D31A022B05D9FE
:1054C8000323ABE00010024000700040554B1B68FE
:1054D80003F00073002BECD1524BDA68524B1340A7
:1054E8007A68116A7A68526A013A120111437A6835
:1054F800926A120211437A68126B5208013A5205F5
:1055080011437A68526B5208013A520611437A687D
:10551800D26AD2060A4343491343CB60414B1B6806
:10552800404A43F0807313603E4BDB683D4A43F0CA
:105538008073D360FDF7E4FC386108E0FDF7E0FC18
:1055480002463B69D31A022B01D9032366E0354B87
:105558001B6803F00073002BF0D05EE0314B1B6832
:10556800304A23F080731360FDF7CAFC386108E005
:10557800FDF7C6FC02463B69D31A022B01D9032367
:105588004CE0284B1B6803F00073002BF0D1254B2F
:10559800DA682449254B1340CB603EE07B68DB6921
:1055A800012B01D1012339E01E4BDB687B617B694C
:1055B80003F003027B681B6A9A422CD17B6903F0D3
:1055C800F0027B685B6A013B1B019A4223D17B692D
:1055D80003F4FE427B689B6A1B029A421BD17B69DB
:1055E80003F078427B68DB6ADB069A4213D17B6959
:1055F80003F4C0027B681B6B5B08013B5B059A42A6
:1056080009D17B6903F0C0627B685B6B5B08013B77
:105618005B069A4201D0012300E000231846203798
:10562800BD4680BD001002400C809F01FCFFEEFECD
:1056380080B586B000AF7860396000237B617B68F5
:10564800002B01D101231EE1914B1B6803F00F03CE
:105658003A689A4210D98E4B1B6823F00F028C4986
:105668003B6813430B608A4B1B6803F00F033A68CF
:105678009A4201D0012306E17B681B6803F001030D
:10568800002B73D07B685B68032B29D1814B1B6887
:1056980003F00073002B01D10123F4E000F066F958
:1056A80038613B697C4A93423FD97A4B9B6803F047
:1056B800F003002B09D07B681B6803F00203002B62
:1056C80033D07B689B68002B2FD1724B9B6823F0EB
:1056D800F003704A43F08003936080237B6124E0E9
:1056E8007B685B68022B07D16A4B1B6803F40033A5
:1056F800002B09D10123C6E0664B1B6803F48063C5
:10570800002B01D10123BEE000F0CEF838613B69DF
:10571800614A934209D95F4B9B6823F0F0035D4AC5
:1057280043F08003936080237B615A4B9B6823F08E
:1057380003027B685B68574913438B60FDF7E0FB06
:10574800F8600AE0FDF7DCFB0246FB68D31A41F279
:105758008832934201D9032395E04E4B9B6803F0AE
:105768000C027B685B689B009A42EBD17B681B68E4
:1057780003F00203002B23D07B681B6803F00403AB
:10578800002B05D0434B9B68424A43F4E063936087
:105798007B681B6803F00803002B07D03D4B9B6810
:1057A80023F47C533B4A43F4E0639360394B9B6892
:1057B80023F0F0027B689B68364913438B6008E04E
:1057C8007B69802B05D1334B9B68324A23F0F00369
:1057D80093602F4B1B6803F00F033A689A421DD25F
:1057E8002B4B1B6823F00F0229493B6813430B60BE
:1057F800FDF786FBF8600AE0FDF782FB0246FB68CE
:10580800D31A41F28832934201D903233BE0204B5B
:105818001B6803F00F033A689A42EDD17B681B6856
:1058280003F00403002B08D01A4B9B6823F4E062B2
:105838007B68DB68174913438B607B681B6803F040
:105848000803002B09D0134B9B6823F460527B6834
:105858001B69DB000F4913438B6000F025F80246F3
:105868000C4B9B681B0903F00F030C49CB5C03F03E
:105878001F0322FA03F30A4A13600A4B1B681846EF
:10588800FDF704FB034618461837BD4680BD00BF28
:10589800002002400010024000B4C404E87B000865
:1058A800000000208401002080B487B000AF2C4B9A
:1058B8009B6803F00C03042B02D12A4B3B6147E0A1
:1058C800274B9B6803F00C03082B02D1264B3B6146
:1058D8003EE0234B9B6803F00C030C2B36D1204B86
:1058E800DB6803F00303FB601D4BDB681B0903F057
:1058F8000F030133BB60FB68032B0CD11A4ABB684A
:10590800B2FBF3F3164AD268120A02F07F0202FBD6
:1059180003F37B610CE0134ABB68B2FBF3F3104A54
:10592800D268120A02F07F0202FB03F37B6100BF18
:105938000B4BDB685B0E03F0030301335B007B60FA
:105948007A697B68B2FBF3F33B6101E000233B61BA
:105958003B6918461C37BD465DF8047B704700BF9D
:10596800001002400024F40000127A0080B487B0CE
:1059780000AF1E4BDB6803F003033B611B4BDB6886
:105988001B0903F00F030133FB603B69032B0CD1A8
:10599800174AFB68B2FBF3F3144AD268120A02F002
:1059A8007F0202FB03F37B610CE0124AFB68B2FB47
:1059B800F3F30E4AD268120A02F07F0202FB03F3E5
:1059C8007B6100BF094BDB685B0E03F00303013307
:1059D8005B00BB607A69BB68B2FBF3F37B607B68F2
:1059E80018461C37BD465DF8047B7047001002401E
:1059F80000127A000024F40080B586B000AF786009
:105A08000023FB740023BB747B681B6803F400232A
:105A1800002B00F0988000237B74434B9B6D03F0B0
:105A28008053002B0DD1404B9B6D3F4A43F0805370
:105A380093653D4B9B6D03F08053BB60BB680123AE
:105A48007B743A4B1B68394A43F480731360FDF743
:105A580057FAF86009E0FDF753FA0246FB68D31AD3
:105A6800022B02D90323FB7405E0304B1B6803F4B7
:105A78008073002BEFD0FB7C002B59D12A4BD3F835
:105A8800903003F440737B617B69002B1ED07B68E8
:105A98001B6C7A699A4219D0234BD3F8903023F4BF
:105AA80040737B61204BD3F890301F4A43F4803316
:105AB800C2F890301C4BD3F890301B4A23F4803343
:105AC800C2F89030184A7B69C2F890307B6903F0BD
