:020000040800F2
:1000000000500020512C00083D2800083F2800081F
:100010004128000843280008452800080000000087
:100020000000000000000000000000004728000859
:1000300049280008000000004B2800084D2800084F
:10004000992C0008992C0008992C0008992C00087C
:10005000992C0008992C0008992C0008992C00086C
:10006000992C0008992C0008992C0008992C00085C
:10007000992C0008992C0008992C0008992C00084C
:10008000992C0008992C0008992C0008992C00083C
:100090005D280008992C0008992C0008992C00086C
:1000A000992C0008992C0008992C0008992C00081C
:1000B000992C0008992C0008992C0008992C00080C
:1000C000992C0008992C0008992C0008992C0008FC
:1000D000992C0008992C0008992C0008992C0008EC
:1000E000992C0008992C0008992C000800000000A9
:1000F0000000000000000000000000000000000000
:0C01000000000000000000005FF808F1A3
:10010C0010B5054C237833B9044B13B10448AFF345
:10011C0000800123237010BDC000002000000000EF
:10012C00E42C000808B5034B1BB103490348AFF39B
:10013C00008008BD00000000C4000020E42C000872
:10014C0038B50E4B054618784FF47A73B3FBF0F3C1
:10015C000B4A1068B0FBF3F000F09CF8044658B959
:10016C000F2D09D8024629464FF0FF3000F054F805
:10017C002046044B1D6038BD0120FCE70000002028
:10018C006C00002004000020074A08B51368032007
:10019C0043F01003136000F02DF80020FFF7D0FFA0
:1001AC0002F0F6FA002008BD00200240034A044B7E
:1001BC0011681B780B441360704700BFF8050020D2
:1001CC0000000020014B1868704700BFF8050020A4
:1001DC0038B50446FFF7F6FF0546631C1EBF044BFB
:1001EC001B78E418FFF7EEFF431BA342FAD338BD8C
:1001FC000000002007490302CA6803F4E06322F4FC
:10020C00E0621204120C134343F0BF6343F4003357
:10021C00CB60704700ED00E0164B30B5DC68C4F3E2
:10022C000224C4F10703251D042B28BF0423062D2B
:10023C004FF0FF3598BF002405FA03F388BF033C49
:10024C0021EA0303A34005FA04F422EA040200287D
:10025C0043EA0203ACBF00F16040074A4FEA0313C4
:10026C00DBB2B5BF00F00F0000F56140135480F80D
:10027C00003330BD00ED00E014ED00E00123420935
:10028C0000F01F0003FA00F0014B43F82200704706
:10029C0000E100E00138B0F1807F0AD2F021064B7A
:1002AC00064A586082F823100020072298601A60D2
:1002BC0070470120704700BF10E000E000ED00E047
:1002CC00044B04281A680CBF42F0040222F004020A
:1002DC001A60704710E000E0704708B5FFF7FCFFAC
:1002EC0008BD0000114AD36813F0100305D0104963
:1002FC00CB6943F00203CB611023D268500706D5BB
:10030C000B4943F00403CA6942F00102CA61074A6F
:10031C00D169C90708D50648C16941F00401C1611A
:10032C00D16921F00101D161D360704700200240F6
:10033C0000060020064B186910F0800007D0054A13
:10034C005A6002F188325A601869C0F3C0107047C5
:10035C000020024023016745034A0020136943F043
:10036C0080031361704700BF00200240F8B50446BB
:10037C00FFF728FF114D07462E46EB68D80712D41D
:10038C00EB68990644BF2023EB60F368DA0606D4C9
:10039C00F369DB0703D4F06810F0040007D0FFF713
:1003AC00A1FF012003E0631CE7D00CB90320F8BDCA
:1003BC00FFF708FFC01BA042DFD9F7E7002002407F
:1003CC002DE9F84F254E1F46337E0546012B8846F6
:1003DC00914640D001234CF250303376FFF7C6FFE4
:1003EC00A8BB012D03D0022D0CBF022504254FF014
:1003FC00000A5346DFF868B04FEA0A14C4F1200132
:10040C00A4F1200207FA01F129FA04F4F3610C4378
:10041C0027FA02F21443DBF81020A4B242F00102D6
:10042C00CBF810204CF2503028F81A40FFF79EFF02
:10043C00DBF8102022F00102CBF8102038B90AF1B9
:10044C00010A5FFA8AF295424FF00003D4D80023D8
:10045C003376BDE8F88F0220FBE700BF00060020D2
:10046C00002002400022064BDA61064B1A6942F06A
:10047C0004021A611A6942F040021A61704700BF07
:10048C0000060020002002400022064BDA61064BD9
:10049C001A6942F002021A6158611A6942F040026C
:1004AC001A61704700060020002002402DE9F0413F
:1004BC00224E0546337E8846012B3DD001243476EE
:1004CC0003684CF25030022B13D1FFF74FFF20B1D1
:1004DC00012000233376BDE8F081FFF7C3FF4CF217
:1004EC005030FFF743FF164A136923F004031361DE
:1004FC00EFE7FFF73BFF0028EAD14FF0FF33C8F8D6
:10050C0000302046AF680E4CD5E9023203EB822353
:10051C00BB42DED93846FFF7B7FF4CF25030FFF73D
:10052C0025FF236923F00203236110B1C8F8007082
:10053C00CFE707F58067E7E70220CCE7000600204D
:10054C00002002402DE9F74F00221646644BDFF8DD
:10055C00A0C1DFF8A0E14FF001080D6808FA06F819
:10056C0008EA050438EA05057CD14D68032D07D847
:10057C00013D022D00F28E80DFE805F09CA1A70062
:10058C00122D00F09F8074D8112D00F09580FF2C57
:10059C0098BF82464FF00F0988BF00F1040A4FEA5A
:1005AC008605DAF8008088BF203D09FA05FB28EAA9
:1005BC000B0802FA05F548EA0505CAF80050D1F80F
:1005CC0004A01AF0805F4DD0464F26F00308BD6999
:1005DC0008F1804845F00105BD61BD6908F580381A
:1005EC0005F00105019506F0030B019D4FEA8B0BFD
:1005FC00D8F8085009FA0BF925EA09093A4DA8422E
:10060C0067D005F58065A84265D005F58065A842E0
:10061C0063D005F58065A8420CBF0325042505FAB7
:10062C000BF545EA0905C8F808501D681AF4803F17
:10063C0014BF2543A5431D605D681AF4003F14BF29
:10064C002543A5435D609D681AF4801F14BF2543A4
:10065C00A5439D60DD681AF4001F14BF2C4325EAE6
:10066C000404DC600136102E7FF475AF03B0BDE8D6
:10067C00F08F1E4FBD420DD018D8DFF87C904D4541
:10068C0008D009F570294D4504D0A9F580194D45C0
:10069C007FF47DAF8A68D2B1012A08BFC0F8108000
:1006AC004FF0080218BFC0F8148070E76545F1D010
:1006BC007545EDE7CA686AE7CA68043267E7CA6835
:1006CC00083264E7CA680C3261E700225FE7042253
:1006DC005DE70025A3E70125A1E702259FE700BF01
:1006EC0000040140001002400008014000002210EC
:1006FC000000311000003210000012108368194203
:10070C0014BF0120002070472DE9F041044686B04B
:10071C0000285ED090F8293403F0FF021BB980F852
:10072C00282402F0DDF8032325466E4684F829348C
:10073C0055F8100B00F0AAFE0FCD0FC62B6804F174
:10074C000408336098E80E00206800F08FFE00214A
:10075C00206800F0A5FE002123462246012608460B
:10076C0004F1100582F82810918601310F29C2E995
:10077C000E0082F8296082F82B00106402F120022E
:10078C00F0D10022174683F828229A8601320F2ACC
:10079C00C3E98E7783F8297283F82B72C3F8407201
:1007AC0003F12003EFD16E460FCD0FC62B683360DB
:1007BC0098E80E00206800F075FE012384F8247080
:1007CC00206884F8293401F07CF8002006B0BDE8DC
:1007DC00F0810120FAE710B590F828340446012B7B
:1007EC000ED0012180F8281402F08DF9206801F058
:1007FC0066F8206800F041FE002084F8280410BD43
:10080C000220FCE710B590F828340446012B0FD0D9
:10081C00012380F82834006800F038FE206801F0CD
:10082C003DF8206801F04DF8002084F8280410BD34
:10083C000220FCE710B590F828240446012A0BD0BE
:10084C00012280F8241080F82824006801F031F887
:10085C00002084F8280410BD0220FCE738B50446BB
:10086C0048B2002801F07F05B5BF04EB451104EB3D
:10087C004111283101F50A71C00F0D7048700A61E1
:10088C00CB7094F82834012B09D00123206884F80C
:10089C00283400F023FE002084F8280438BD022000
:1008AC00FCE738B5002501F07F0100EB411484F81A
:1008BC002812C4E98F23C4F8445284F8295204F551
:1008CC000A71006801F014F8284638BD01F07F0168
:1008DC0038B500EB41140025C4E90F2384F8281027
:1008EC0001232146656484F829302831006800F022
:1008FC00FFFF284638BD00002DE9F3470446006889
:10090C0000F0E1FF000400F19880206800F0DBFFAC
:10091C0041050FD522682046B2F8443023F4806399
:10092C001B041B0CA2F8443002F013F800212046E3
:10093C00FFF780FF206800F0C6FF470408D5226847
:10094C00B2F8443023F480431B041B0CA2F844304F
:10095C00206800F0B8FF860408D52268B2F844304D
:10096C0023F400531B041B0CA2F84430206800F045
:10097C00AAFFC5041CD522682046B2F8403023F0EB
:10098C0004031B041B0CA2F84030B2F8403023F0D7
:10099C0008031B041B0CA2F8403001F0F7FF22687F
:1009AC00B2F8443023F480531B041B0CA2F84430DF
:1009BC00206800F088FF00051DD52068B0F8403095
:1009CC009BB243F00803A0F84030B0F8443023F455
:1009DC0000631B041B0CA0F84430B0F840309BB2F1
:1009EC0043F00403A0F8403000F06DFFC10402D4C2
:1009FC00204601F0BBFF206800F065FF82050BD597
:100A0C0022682046B2F8443023F400731B041B0CFC
:100A1C00A2F8443001F099FF206800F054FFC305A0
:100A2C0008D52268B2F8443023F480731B041B0CE5
:100A3C00A2F8443002B0BDE8F0870023C64FDFF8BF
:100A4C001C83DFF81C93ADF80430ADF80630206839
:100A5C00B0F844309BB2ADF804301B047FF555AFB1
:100A6C00BDF8045015F00F0540F0AB80BDF8041034
:100A7C00038811F010019BB226D13B400380B0F8E3
:100A8C00503094F828209BB203EBC20300EB4300D8
:100A9C00D0F80434E26BC3F3090363641344E363D7
:100AAC00204601F04BFF94F82430002BCFD0226C61
:100ABC00002ACCD194F82430216843F08003A1F8AB
:100ACC004C3084F82420C2E7ADF80630BDF806306F
:100ADC001A051FD5B0F8503094F828229BB203EBBE
:100AEC00C20300EB4303D3F80C34B4F82C22C3F349
:100AFC000903C4F8443204F22C4100F0E7FF2268E9
:100B0C002046138823F070031B051B0D138001F086
:100B1C0007FF9CE7BDF806301B0498D5038823F02B
:100B2C0070031B051B0D0380B0F8503094F828227D
:100B3C009BB203EBC20300EB4303D3F80C34C3F3B7
:100B4C000903C4F8443263B1B4F82C22D4F83C1233
:100B5C0000F0BCFFD4F83C32D4F844221344C4F85F
:100B6C003C320021204601F0E1FE2268D4F83852D4
:100B7C00B2F850103E2D89B201F1060102F58060E9
:100B8C0017D9C5F34F13EE0604BF03F1FF339BB225
:100B9C0049EA83239BB240F8113013889BB203EAD5
:100BAC00080383F4405343F4004343F08003138061
:100BBC004DE7C5F34F03ED0744BF01339BB29B02D6
:100BCC00E8E730F825309BB2ADF80630BDF80630BA
:100BDC0019043FD530F8253004EB451123F0700390
:100BEC001B051B0D20F8253091F8323200F5806280
:100BFC004FEA451A002B72D1B0F8503091F82862A8
:100C0C009BB2063303EBC60352F81360C6F3090616
:100C1C0036B1B1F82C223346D1F83C1200F056FF15
:100C2C0004EB0A01D1F84432D1F83C223344C1F828
:100C3C004432D1F840323244C1F83C2223B1D1F8CD
:100C4C003802864280F08180A24420469AF828120D
:100C5C0001F06CFEBDF806301A067FF5F8AE206880
:100C6C0004EB451130F825306E019BB23B4020F867
:100C7C00253091F8323000F580620235002B71D1AD
:100C8C00B0F8503091F828C09BB2023303EBCC0380
:100C9C0052F8133004EB4515C3F309036B601BB119
:100CAC008A8DC96B00F015FE22682644B2F85030CC
:100CBC0096F828109BB2023303EBC10302EB4303FB
:100CCC00D3F80024F36BC2F3090272641A44336C38
:100CDC002046F263002B7CD101F030FEB7E691F890
:100CEC00283230F823C0DE00B0F850301CF4804FAE
:100CFC009BB233441ED0023352F81360C6F309067C
:100D0C0036B13346B1F82E22D1F83C1200F0DEFE9B
:100D1C0004EB0A0393F82812226832F8213023F0EE
:100D2C00F0031B051B0D43F4004343F0C00322F8F2
:100D3C00213075E7063352F81360C6F30906002E0E
:100D4C00E6D03346B1F83022DEE7204691F828127F
:100D5C00FFF7A7FD7EE700BF0F8FFFFF8FBFFFFFE1
:100D6C000080FFFF91F8283030F823E04FEAC30CE5
:100D7C00B0F850301EF0400F9BB263441DD00233CC
:100D8C0052F8133004EB4515C3F309036B601BB128
:100D9C00CA8DC96B00F09DFDA31993F82810226829
:100DAC0032F8213023F0F0031B051B0D43F44043B4
:100DBC0043F0800322F8213076E7063352F81330E3
:100DCC0004EB4515C3F309036B60002BE4D00A8ECA
:100DDC00DFE7FFF77BFD3AE6012238B54BB2002B7B
:100DEC0001F07F05B5BF00EB451100EB4111283137
:100DFC0001F50A71DB0F8A700D704B7090F8283476
:100E0C00044693420ED080F82824006800F0D2FCEF
:100E1C0025B9206804F22C4100F059FD002084F81B
:100E2C00280438BD0220FCE738B500254BB2002B56
:100E3C0001F07F02B5BF00EB421100EB41112831EC
:100E4C0001F50A71DB0F8D700A704B7090F8283425
:100E5C000446012B09D0012380F82834006800F0E7
:100E6C00DBFC284684F8285438BD0220FCE711F03E
:100E7C00800F1BBF01F07F0100EB411000EB411014
:100E8C00283008BF00F50A7099B21AB982728180B5
:100E9C000020704701221B0C8272C1800381F7E78E
:100EAC0003682DE9F341DB07054610D42B689F0737
:100EBC005ED42B68190700F195802B685A0700F156
:100ECC00BF80EA69002A40F02D81002014E0904C8C
:100EDC00636803F00C03042B07D0636803F00C0366
:100EEC00082B0CD16368DE0309D523689C03DDD580
:100EFC006B68002BDAD1012002B0BDE8F0816B6881
:100F0C00B3F5803F10D1236843F480332360FFF79F
:100F1C0059F9064623689803C8D4FFF753F9801B88
:100F2C006428F7D90320E7E79BB9236823F48033BF
:100F3C002360236823F480232360FFF743F90646DC
:100F4C0023689903B2D5FFF73DF9801B6428F7D9C4
:100F5C00E8E7B3F5A02F236803D143F48023236083
:100F6C00D1E723F480332360236823F48023CDE777
:100F7C00674C636813F00C0F07D0636803F00C0325
:100F8C00082B10D16368DA030DD423689B0702D5B4
:100F9C002B69012BAFD123686A6923F0F80343EA6C
:100FAC00C203236085E72A695A4B6AB101221A6091
:100FBC00FFF708F9064623689F07ECD4FFF702F900
:100FCC00801B0228F7D9ADE71A60FFF7FBF806463D
:100FDC00236898077FF56DAFFFF7F4F8801B0228A4
:100FEC00F6D99FE7AA694A4E4B4BDAB101221A6037
:100FFC00FFF7E8F80446736A9B070DD54FF4FA52D5
:10100C00464B1B68B3FBF2F3019300BF019B5A1EC6
:10101C000192002BF9D150E7FFF7D4F8001B0228FE
:10102C00E9D97FE71A60FFF7CDF80446736A9F078A
:10103C007FF543AFFFF7C6F8001B0228F6D971E71E
:10104C00334CE369D80024D40127E36943F080537F
:10105C00E361E36903F080530093009B304E3368E7
:10106C00D90518D5EB68012B26D1236A43F001036F
:10107C002362FFF7A7F841F288380646236A9B07DC
:10108C003FD5002F3FF41DAFE36923F08053E3619C
:10109C0017E70027E2E7336843F480733360FFF708
:1010AC0091F880463368DA05DCD4FFF78BF8A0EBB7
:1010BC0008006428F6D935E7ABB9236A41F28838C1
:1010CC0023F001032362236A23F004032362FFF756
:1010DC0079F80646236A9807D3D5FFF773F8801B77
:1010EC004045F7D91EE7052B236A03D143F00403CF
:1010FC002362BAE723F001032362236A23F004037B
:10110C00B6E7FFF75FF8801B4045B7D90AE700BF89
:10111C000010024000004242800442426C00002059
:10112C0000700040224C636803F00C03082B3FF462
:10113C00E2AE00231F4E022A33602BD1FFF742F898
:10114C000746236899011FD42B6AB3F5803F05D15C
:10115C006268A96822F400320A436260696A6268B4
:10116C000B4322F474121343636001233360FFF7C3
:10117C0029F8054623689A013FF5A7AEFFF722F838
:10118C00401B0228F6D9CDE6FFF71CF8C01B02283D
:10119C00D7D9C7E6FFF716F8054623689B017FF5FC
:1011AC0094AEFFF70FF8401B0228F6D9BAE600BF41
:1011BC00001002406000424230B5184B87B002ACC0
:1011CC0003F11005224618685968083303C2AB4274
:1011DC001446F7D140F201231149ADF804304B68A5
:1011EC0003F00C02082A17D1C3F3834206A8024469
:1011FC00DB0312F8102C0CD54B680A48C3F34043A0
:10120C00504306AA134413F8143CB0FBF3F007B098
:10121C0030BD05485043FAE70248F8E7FC2C0008BB
:10122C000010024000127A0000093D004C4A2DE9E2
:10123C00F0411368044603F007038B420D4627D395
:10124C002268910731D4D20737D4454A136803F08A
:10125C000703AB4271D82268424D12F0040F77D1CC
:10126C00130706D56B68226923F4605343EAC20363
:10127C006B60FFF7A1FF6B683B4AC3F30313D35CAE
:10128C00D8403A4B18600020FEF75AFF00200AE0C5
:10129C00136823F007030B431360136803F0070371
:1012AC008B42CDD00120BDE8F0812E49A0684B685F
:1012BC0023F0F00303434B60C5E76268294E012A13
:1012CC0033681BD113F4003FECD0736841F28838BB
:1012DC0023F0030313437360FEF774FF6368074640
:1012EC00012B13D1736803F00C03042BADD0FEF764
:1012FC0069FFC01B4045F5D90320D4E7022A02D16F
:10130C0013F0007FE0E713F0020FDDE7022B0FD1A3
:10131C00736803F00C03082B97D0FEF753FFC01B28
:10132C004045F5D9E8E7FEF74DFFC01B4045E3D833
:10133C00736813F00C0FF6D187E7136823F00703DB
:10134C002B431360136803F00703AB42AAD182E767
:10135C006B68E16823F4E0630B436B6080E700BFCC
:10136C0000200240001002400D2D00086C000020EF
:10137C00014B1868704700BF6C00002003682DE912
:10138C00F341D907054620D5354CE369DA0032D450
:10139C000127E36943F08053E361E36903F0805371
:1013AC000193019B2F4E3368DB0526D5236A13F47A
:1013BC00407336D1236A6A6823F440731343236263
:1013CC001FB1E36923F08053E3612868830706D5D6
:1013DC002349AB684A6822F440421A434A6010F031
:1013EC0010001BD01E4AE9685368002023F48003C8
:1013FC000B43536012E00027D4E7336843F4807347
:10140C003360FEF7DFFE80463368D805CED4FEF796
:10141C00D9FEA0EB08006428F6D9032002B0BDE881
:10142C00F0816A6802F440729A42C3D001200E4ADD
:10143C00236A1060002023F4407110602162D907E8
:10144C00B8D5FEF7BFFE41F288380646236A9A07E4
:10145C00B0D4FEF7B7FE801B4045F7D9DDE700BFDF
:10146C0000100240007000404004424284B001A8C9
:10147C0080E80E0004B000207047B0F840309BB2FA
:10148C0043F43F43A0F8403000207047B0F84030A0
:10149C0023F474535B045B0CA0F8403000207047BD
:1014AC000020704784B010B5044603A880E80E00F5
:1014BC0000200123A4F84030A4F84000A4F8440014
:1014CC00A4F85000B4F840309BB243F43F43A4F866
:1014DC004030BDE8104004B07047000070B5CB78C8
:1014EC000A78032B0FD8DFE803F00264505930F868
:1014FC00223023F4EC4323F070031B041B0C43F445
:10150C00007320F8223040F60F730C7830F824204A
:10151C001A40224342F4004242F0800220F8242078
:10152C008A7A0D7800F58064002A40F090808A88D1
:10153C004E7852085200ED00002E45D0B0F85060A5
:10154C00B6B2354444F815200C7830F824205206F5
:10155C0008D530F82420134043F4004343F0C00373
:10156C0020F824300A7830F8223023F4E04323F0BA
:10157C0040031B041B0C83F0200343F4004343F093
:10158C00800320F82230002070BD30F8223023F484
:10159C00EC4323F070031B041B0CB2E730F8223031
:1015AC0023F4EC4323F070031B041B0C43F4C063C3
:1015BC00A7E730F8223023F4EC4323F070031B042C
:1015CC001B0C43F480639CE7B0F850309BB22B4467
:1015DC00043344F81320B0F850200D690B7892B204
:1015EC0006323E2D02EBC30229D9C5F34F16EB068A
:1015FC0004BF06F1FF339EB26D4B43EA86239BB2C8
:10160C0044F812300A7830F822305E040BD530F8EA
:10161C00223023F0F0031B051B0D43F4404343F031
:10162C00800320F822300A7830F8223023F48043EB
:10163C0023F070031B041B0C83F440539DE7C5F38C
:10164C004F03ED0744BF01339BB29B02D7E730F841
:10165C00252022F4F8721205120D42F4014242F0D8
:10166C00800220F82520B0F850200D7892B202EBC1
:10167C00C502CD886D086D0044F81250B0F85020AA
:10168C000D7892B2043202EBC5020D896D086D0023
:10169C0044F812504A780C78002A47D130F82420AC
:1016AC00550408D530F82420134043F4404343F04C
:1016BC00800320F824300A7830F822305C060BD5F1
:1016CC0030F8223023F0F0031B051B0D43F40043CC
:1016DC0043F0C00320F822300A7830F8223023F08F
:1016EC00F0031B051B0D43F4004343F0C00320F82B
:1016FC00223048F280020C7830F8243023F48043F6
:10170C0023F070031B041B0C83F44053134320F889
:10171C002430097830F8213023F4E04323F04003DF
:10172C001B041B0C134320F821302CE730F8242029
:10173C00520408D530F82420134043F4404343F0BE
:10174C00800320F824300A7830F822305B060BD561
:10175C0030F8223023F0F0031B051B0D43F400433B
:10176C0043F0C00320F822300A7830F8223023F0FE
:10177C00F0031B051B0D43F4404343F0800320F89A
:10178C00223048F280020C7830F8243023F4E04305
:10179C0023F040031B041B0C134320F8243009785E
:1017AC0030F8213023F4804323F07003B8E700BFF6
:1017BC000080FFFF0A788AB9038823F4804323F062
:1017CC0040031B041B0C83F4805383F0100343F47D
:1017DC00004343F080030380002070474B7883B1B3
:1017EC0030F8223023F4E04323F040031B041B0C9D
:1017FC0083F0100343F4004343F0800320F82230BD
:10180C00EAE730F8223023F4804323F070031B0402
:10181C001B0C83F48053EDE74B780A7813B330F844
:10182C0022305B060BD530F8223023F0F0031B0579
:10183C001B0D43F4004343F0C00320F822300A7818
:10184C0030F8223023F4E04323F040031B041B0C3C
:10185C0083F0300343F4004343F0800320F822303C
:10186C000020704730F822305B040BD530F8223062
:10187C0023F0F0031B051B0D43F4404343F080039E
:10188C0020F822300A7830F8223023F4804323F0F9
:10189C0070031B041B0C83F44053DBE7012203464B
:1018AC00A0F8402000200322A3F84400A3F8402015
:1018BC00704711B98023A0F84C30002070470020ED
:1018CC00704700207047B0F8440080B27047002089
:1018DC007047013300F580605B1000EB420203B9E6
:1018EC00704731F8020B013B22F8040BF7E70000BC
:1018FC00F8B54A780546012A0E468C690B69887A38
:10190C005BD19C428ABFE21A00221C468A61A3B2B8
:10191C00496905F58067F8B9B2882846FFF7D9FF01
:10192C00B5F8503032789BB2023303EBC20347F860
:10193C001340327835F8223023F4E04323F040038F
:10194C001B041B0C83F0300343F4004343F080036F
:10195C00002025F82230F8BD327835F822C0D000AE
:10196C00B5F850201CF0400F92B2024402F1020272
:10197C0047F81240284614BF3289F288FFF7A9FFB6
:10198C007378327863B935F8223023F0F0031B05F5
:10199C001B0D43F4004343F0C00325F82230C8E785
:1019AC00012BC6D135F8223023F0F0031B051B0D9B
:1019BC0043F4404343F08003EFE79C4294BF002183
:1019CC00E11AB16188BF1C46337858BBB5F850207A
:1019DC003E2C92B202F1060202EBC30205F58060C6
:1019EC0018D9C4F34F11E40604BF01F1FF3399B2C7
:1019FC00354B43EA81239BB240F81230327835F8EC
:101A0C00223023F4804323F070031B041B0C83F45B
:101A1C00405399E7C4F34F03E10744BF01339BB232
:101A2C009B02E8E7BAB9B5F850203E2C92B202F10D
:101A3C00020202EBC30205F5806028D9C4F34F11F2
:101A4C00E30604BF01F1FF3399B21F4B43EA812334
:101A5C009BB240F812307378327843BBB5F85030F3
:101A6C003E2C9BB203F1060303EBC20305F5806029
:101A7C0015D9C4F34F11E40604BF01F1FF3291B242
:101A8C00114A42EA812292B240F81320B6E7C4F31D
:101A9C004F03E70744BF01339BB29B02D8E7C4F363
:101AAC004F02E10744BF013292B29202EBE7012BE5
:101ABC00A4D1B5F850309BB2023303EBC20305EB53
:101ACC004303C3F8004499E70080FFFF10B50024DE
:101ADC00013300F580605B1000EB42009C4200D1AA
:101AEC0010BD50F8242021F814200134F6E7000032
:101AFC001B230380004870474400002000207047DF
:101B0C00002070470A2303800048704760000020C3
:101B1C0037B5D0F81842054694F80034042B65D13B
:101B2C00D4F80814002952D12378A3B9D4F80C3472
:101B3C00012B3DD10322002384F800244FF4407282
:101B4C00C4F80C34C4F80834A4F80234A4F80424FF
:101B5C00184603B030BD212B10D1D4F80C34052B12
:101B6C0026D1E378A2781B0403EB0223627813449A
:101B7C00227903EB0263C4F81034DBE7412B17D155
:101B8C00D4F80C34052B13D1E378A0781B0403EBA9
:101B9C00002360780344207903EB0060D5F81C32F5
:101BAC00C4F81004DB6898470028C3D00223CFE7A1
:101BBC000023C4F80C34C4F808348DF80030012329
:101BCC0069462846ADF8063000F0E9FCB2E7012979
:101BDC00B0D9D4F81004D5F81C32023900EB8121AD
:101BEC001B692046D4F80C249847DDE7072B4FF0EF
:101BFC000003ADD1154A84F80734127D12F00402AB
:101C0C0007D00622A4F8023484F800244FF4C062F2
:101C1C009CE7082384F800344FF40063A4F80224F2
:101C2C00A4F8043400F01AFAD5F81C329B689847D3
:101C3C00BFF34F8F0649074BCA6802F4E0621343A7
:101C4C00CB60BFF34F8F00BFFDE700BF4400002007
:101C5C0000ED00E00400FA05022238B50025044628
:101C6C00D0F81832A3F8002483F80524C3F80854DC
:101C7C00C3F80C54D0F81C329B689847D4F818025F
:101C8C0000F040FF2846C4F8185238BD10B5044681
:101C9C004FF4836000F032FFC4F81802A8B102229E
:101CAC000023C0F800244FF40072C0F81434C0F8BC
:101CBC000834C0F80C34064BC0F80424C0F81034B7
:101CCC00D4F81C325B68984700B1022010BD00BFED
:101CDC0000000108062908B507D8D0F81C320449C1
:101CEC00186800F067FC024808BD0020FCE700BF44
:101CFC00DC0000202DE9F0410D78064615F060055A
:101D0C008C46D0F8184200F05881202D25D191F83E
:101D1C000180B8F1060F00F24A81DFE818F01E01CD
:101D2C00070039009C00E900FF000301CA8894F801
:101D3C000034CAB1022B01D0052B10D1BCF80230F3
:101D4C002146C4F8083403233046C4F80C2484F824
:101D5C00003484F8053400F05EFC002515E0614683
:101D6C00304600F01CFCF8E7052B01D0022BF6D115
:101D7C00012384F807340623002584F800344FF43B
:101D8C00C063A4F80254A4F804342846BDE8F081DA
:101D9C00CA88002A55D094F80034022B01D0092BA4
:101DAC0049D1BCF80270C4F80C24C4F80874B7B953
:101DBC004FF40453032A98BF4FF0090823804123A2
:101DCC000322214684F80084A4F8027484F8047475
:101DDC0084F80584A370304600F008FCBDE7012FA1
:101DEC004FF0000519D0092384F800344FF4106328
:101DFC00A4F80254A4F80434D4F81004D6F81C3215
:101E0C00023F21465B6900EB872098470146B4F8F6
:101E1C000C24304600F0EAFBB7E70F2384F80034BB
:101E2C004FF47063A4F80254A4F8043461463046AD
:101E3C0000F0B5FBA9E70025C4F80C54C4F808540D
:101E4C00F4E7022384F800344FF40073A4F802245E
:101E5C00A4F8043481E794F8003404F20145032B10
:101E6C0004D0062B2AD006222946B4E7D4F80C3429
:101E7C00D3B1042384F800340023A4F802344FF4C3
:101E8C008063A4F80434D0F81C32D4F808149B698D
:101E9C00D4F8100429B92278412A02D12A4698474D
:101EAC00E1E72A460121FAE70522A4F802344FF4AF
:101EBC00A06384F80024A4F80434D4E794F807341D
:101ECC00012B07D10722A4F8023484F800244FF424
:101EDC00E063F0E7002BC6D1474A127D5207C2D50A
:101EEC000222A4F8023484F800244FF40073E2E7D1
:101EFC0094F8003400250A2B0BBF022340F60A632A
:101F0C00C4F80034C4F800340CBF4FF400734FF421
:101F1C00206384F80654A4F8043436E7012204F54F
:101F2C00806158E794F80034092B3FF616AF4FF454
:101F3C001B75DD40ED4315F001057FF40EAF022358
:101F4C00C4F800344FF4007384F80654A4F8043435
:101F5C00C4F80854C4F80C5417E794F80024092A60
:101F6C0013D84FF41B73D340DB4313F001030CD194
:101F7C000222C4F800244FF4007284F80634A4F84A
:101F8C000424C4F80834C4F80C341B4B5D7D15F0E4
:101F9C00100507D0304600F061F8304600F059F8D3
:101FAC004546F2E6BCF80200FEF712F9EDE6614692
:101FBC00304600F0F4FA0225E7E64B780A2B10D0F5
:101FCC000B2B12D0062BF2D14B881B0A212B05D1DF
:101FDC00CA880A49092A28BF09221AE72A4629462B
:101FEC0017E7012204F2144114E78D78002DE0D19B
:101FFC00C4F81454C9E600BF440000205600002069
:10200C000020704700207047002070470020704768
:10201C0009B1C0F81C120020704708B580B1D0F887
:10202C00143213B10023C0F8143209B1C0F81012E5
:10203C000123027080F8FC3100F0ACFC002008BDDC
:10204C000220FCE719B1C0F81412002070470220DE
:10205C00704708B500F0D0FC002008BD10B5044650
:10206C00D0F8143201795B689847204600F0D2FC16
:10207C00002010BD08B5D0F814320BB9022008BDF1
:10208C001B6898470028FAD0F8E708B5D0F8143246
:10209C005B689847002008BD38B500F5027504460A
:1020AC00284600F068FA012394F80812C4F8F431B9
:1020BC00B4F80E32C4F8F83101F01F03012B08D02C
:1020CC00022B0BD07BB92946204600F0D9F8002012
:1020DC0038BD2946204600F0D3F9F8E729462046BA
:1020EC0000F0E6F9F3E7204601F0800100F0B0FCC7
:1020FC00EDE738B50446154601BBD0F8F431032B97
:10210C000DD1D0E943239A420BD9D21A9A42C0F886
:10211C000C2128BF1A46294692B200F089FA0020F9
:10212C0038BDD0F814321B6923B190F8FC21032A76
:10213C0000D19847204600F083FAF0E7D0F814322B
:10214C009B69002BEBD090F8FC21032AE7D1984730
:10215C00E5E7F8B5044613460F4600293DD1D0F803
:10216C00F421022A0FD1D0E90756B54214D9AE1B7F
:10217C001946C661B2B200F046FA3B461A461946F9
:10218C00204600F0ADFC94F80032012B02D1002364
:10219C0084F800320020F8BD8369B3FBF6F506FB2A
:1021AC00153565B99E420AD8D0F8F821934206D26B
:1021BC002A4600F028FA2B46C4F8F851DEE7D4F88A
:1021CC001432DB682BB194F8FC21032A01D1204690
:1021DC009847204600F03FFAD5E7D0F814325B69F7
:1021EC00002BD7D090F8FC21032AD3D19847D1E704
:1021FC00002238B5044640251146402300F018FC57
:10220C002B46002280212046C4F8105100F010FC0F
:10221C00012384F8FC31D4F8183225622BB1D4F8A0
:10222C00143220465B6821799847002038BD017430
:10223C000020704790F8FC3180F8FD31042380F8C1
:10224C00FC310020704790F8FD3180F8FC31002003
:10225C00704708B590F8FC21032A04D1D0F8143249
:10226C00DB6903B19847002008BD10B504468021F6
:10227C0000F0EEFB2046BDE81040002100F0E8BB6A
:10228C0037B54B7804460D46092B7DD8DFE813F0A3
:10229C00D000EC007C00E0007C0074000A007C00A4
:1022AC00C000940049880B0A013B062B6CD8DFE870
:1022BC0003F0041C296B6B505900D0F810321B68CA
:1022CC00207C0DF106019847BDF80620002A6ED03F
:1022DC00EB88002B6BD09A4228BF1A460146ADF80A
:1022EC000620204600F082F961E0027CD0F814321E
:1022FC0032B99B6A0DF10600984702234370E3E75D
:10230C00DB6AF7E7C9B205291CD8DFE801F003073F
:10231C000B0F1317D0F810325B68D1E7D0F81032DE
:10232C009B68CDE7D0F81032DB68C9E7D0F81032E3
:10233C001B69C5E7D0F810325B69C1E7D0F81032E1
:10234C009B69BDE7D0F814320DF106029B6B9847E0
:10235C00BAE7037CC3B9D0F814320DF106005B6BFD
:10236C009847B1E7037C7BB9D0F814320DF1060025
:10237C001B6B98470723C1E78B882BB9CB881BB9FC
:10238C0090F8FC31032B03D12046FFF76EFF0EE0D3
:10239C008D7805F07F05294680F8FE5100F084FB0E
:1023AC00204600F04DF92DB1022384F8FC310020B9
:1023BC0003B030BD0123F8E78978304D012929702D
:1023CC00E2D890F8FC31022B0CD0032BDCD1B1B944
:1023DC000223416080F8FC31FFF757FE204600F0E5
:1023EC002FF9E4E70029F9D001210323416080F89B
:1023FC00FC312046FFF73EFE0228EFD1C4E74168CE
:10240C000129EBD0C9B2FFF740FE29786160F0E7F3
:10241C00CA88012AB8D190F8FC31022B03D0032BC7
:10242C00B2D1011D5DE70146002341F8083F58E792
:10243C0090F8FC31023B012BA6D80123C360D0F8E5
:10244C0004320BB10323C360022204F10C0148E7F0
:10245C004B88012BABD1C4F80432D4F81432294682
:10246C0020469B689847B9E790F8FC31023B012B5A
:10247C008AD84B88012B9AD10023ECE7DB01002092
:10248C0038B590F8FC310446032B0D460DD10B7971
:10249C00012B0AD8D0F814329B689847EB8813B9F3
:1024AC00204600F0CDF8002038BDFFF7DEFEFAE73D
:1024BC0070B50A78044602F06002202A0D468E8818
:1024CC000B7905D1D0F814329B689847002070BD69
:1024DC004A78012A3AD0032A1DD0002AF6D190F866
:1024EC00FC21022A41D0032A1BD103F07F0500EB0B
:1024FC000515320619464CBF143505F5827500F0EA
:10250C00C3FA003818BF0120022228602946204651
:10251C0000F06CF8DAE790F8FC21022A25D0032AA7
:10252C0003D02046FFF7A1FED0E74A8822B95A060D
:10253C0002D0194600F08CFAD4F814322946204601
:10254C009B689847204600F07BF8BFE790F8FC2189
:10255C00022A0AD0032AE4D14A88002AB6D15E06A0
:10256C00F0D0194600F082FAE6E75906AED01946CB
:10257C0000F06EFAAAE70B7803704B784370CA78B8
:10258C008B7803EB022343804A790B7903EB02230C
:10259C008380CA798B7903EB0223C380704710B513
:1025AC000446802100F054FA2046BDE8104000217A
:1025BC0000F04EBA30B588B1002501382B460135F4
:1025CC00445D002CFAD1DBB201335B0013800B703D
:1025DC0003234B70022310F8015F05B930BD5A1C60
:1025EC00CD54D2B20233DBB28C54F4E71346022240
:1025FC0010B5C0E90633C0F8F4210A46002100F0FA
:10260C0061FA002010BD08B513460A46002100F0FF
:10261C0059FA002008BD1346032210B5C0E9423315
:10262C00C0F8F4210A46002100F05AFA002010BD2F
:10263C0008B513460A46002100F052FA002008BDE6
:10264C0008B50423C0F8F43100231A46194600F0EB
:10265C0039FA002008BD08B50523C0F8F431002371
:10266C001A46194600F03CFA002008BD30B54FF46C
:10267C0080330124022595B00022CDE90A43CDE92F
:10268C0011534FF480130AA80C920E941393FEF777
:10269C0007FC00B1FEE70F23CDE905354FF480634D
:1026AC000790CDE90830214605A8FEF7BFFD00B123
:1026BC00FEE7102301934FF4800301A80493FEF767
:1026CC005DFE044600B1FEE7FEF752FE4FF47A734E
:1026DC00B0FBF3F0FDF7DEFD0420FDF7F1FD224623
:1026EC0021464FF0FF30FDF797FD15B030BD0000CF
:1026FC0090B589B000AFFDF747FDFFF7B7FF1E4B54
:10270C004FF480449A691D4842F010029A619A690C
:10271C0007F1100102F010027A607A689A6942F0AF
:10272C0020029A619A6902F02002BA60BA689A692A
:10273C0042F004029A619B6903F00403FB60FB689E
:10274C000023C7E90443BB61FDF7FCFE21460B489F
:10275C00FDF7D4FF68B10A490A4B0A68013A1340E5
:10276C00B3F1005F05D1084B1B680A6882F3088837
:10277C00984700F099F8FEE7001002400010014065
:10278C000000010800B0FF2F04000108FEE7000064
:10279C00254B07B59A69032042F001029A619A69A8
:1027AC0002F001020092009ADA6942F08052DA617A
:1027BC00DB6903F080530193019BFDF71BFD0022A5
:1027CC006FF00B001146FDF727FD00226FF00A0099
:1027DC001146FDF721FD00226FF009001146FDF7AF
:1027EC001BFD00226FF004001146FDF715FD0022C1
:1027FC006FF003001146FDF70FFD00226FF0010092
:10280C001146FDF709FD00224FF0FF301146FDF790
:10281C0003FD064A536823F0E06343F000735360F2
:10282C0003B05DF804FB00BF001002400000014043
:10283C007047FEE7FEE7FEE7FEE77047704770471C
:10284C0008B5FDF7B3FCBDE80840FDF746BD000038
:10285C000148FEF751B800BF440800200F4B1A681E
:10286C0042F001021A6059680D4A0A405A601A680F
:10287C0022F0847222F480321A601A6822F48022C8
:10288C001A605A6822F4FE025A604FF41F029A60D2
:10289C004FF00062034B9A60704700BF001002407B
:1028AC000000FFF800ED00E010B5094C00222046B6
:1028BC000849FFF7B2FB20460749FFF7C3FB204648
:1028CC000649FFF7A5FB2046BDE81040FFF7C1BB4A
:1028DC00200600207000002008000020A40000202A
:1028EC0007B50E4B02689A4215D103F5DA33DA6953
:1028FC00142042F40002DA610022DB69114603F471
:10290C0000030193019BFDF787FC142003B05DF8D5
:10291C0004EBFDF7B3BC03B05DF804FB005C0040B6
:10292C0000F22C41D0F85C04FFF7B6BB00EB41136E
:10293C00D3F83C22D0F85C04FFF7DBBB00EB41136F
:10294C00DA6BD0F85C04FFF704BCD0F85C04FFF73A
:10295C0080BC10B504460121D0F85C04FFF767FC7D
:10296C00D4F85C04BDE81040FFF742BC10B5044637
:10297C00D0F85C04FFF75EFCA36923B1024A13692B
:10298C0043F00603136110BD00ED00E0D0F85C04C9
:10299C00FFF759BC082310B5144A04461448022109
:1029AC00C0E900230323C0E902130023C0F85C44F0
:1029BC00C4F82002C0E906330362FDF7A5FE20B17E
:1029CC004FF497710B48FFF7E1FE002218231146D4
:1029DC00D4F82002FEF74BFA582300228021D4F8B9
:1029EC002002FEF744FA002010BD00BF005C00403E
:1029FC00440800201D2D000808B5D0F82002FDF772
:102A0C00EAFE032896BF024B0220185C08BD00BFEB
:102A1C00302D000808B5D0F82002FDF7F3FE03288E
:102A2C0096BF024B0220185C08BD00BF302D000879
:102A3C0010B51446D0F820021A462346FDF70EFFB7
:102A4C00032896BF014B0220185C10BD302D0008E6
:102A5C0008B5D0F82002FEF7BFF9032896BF024B49
:102A6C000220185C08BD00BF302D000808B5D0F856
:102A7C002002FEF7D9F9032896BF024B0220185CFE
:102A8C0008BD00BF302D00080A06D0F8203245BF23
:102A9C0001F07F0103EB411103EB411191F82A0086
:102AAC0058BF91F82A02704708B5D0F82002FDF7FC
:102ABC00C1FE032896BF024B0220185C08BD00BF64
:102ACC00302D000808B5D0F82002FDF7FFFE0328D2
:102ADC0096BF024B0220185C08BD00BF302D0008C9
:102AEC0008B5D0F82002FDF7DCFE032896BF024B98
:102AFC000220185C08BD00BF302D0008004870474C
:102B0C00DC01002070477047122301480B8070478E
:102B1C008C000020042301480B807047A00000208B
:102B2C0010B5044C0A4604482146FFF743FD2046E5
:102B3C0010BD00BFA40C0020342D000810B5044CAF
:102B4C000A4604482146FFF735FD204610BD00BF5C
:102B5C00A40C0020472D000810B5044C0A4604486C
:102B6C002146FFF727FD204610BD00BFA40C002016
:102B7C00662D000810B5044C0A4604482146FFF7A0
:102B8C0019FD204610BD00BFA40C0020732D0008B9
:102B9C0010B5044C0A4604482146FFF70BFD2046AD
:102BAC0010BD00BFA40C00207E2D0008034610B5FC
:102BBC0008461A440139934200D110BD13F8014B59
:102BCC0001F8014FF7E700207047F8B517460D469E
:102BDC00061FC0F10404A3199F4201D80020F8BDC0
:102BEC000023294602207268FDF7EAFB38B955F834
:102BFC00043B56F8042F9A42EDD00220EFE7012057
:102C0C00EDE77FB500230293012301A9CDE904036D
:102C1C0002A80393FDF74AFC002814BF02200020F1
:102C2C0007B05DF804FB08B5FDF796FB002008BD66
:102C3C0008B5FDF77FFB3022014B0020DA6008BDA0
:102C4C0000200240002103E00B4B5B584350043141
:102C5C000A480B4B42189A42F6D30A4A02E0002368
:102C6C0042F8043B084B9A42F9D3FFF7F7FD00F00A
:102C7C000FF8FFF73DFD7047D02D00080000002035
:102C8C00C0000020C0000020A40E0020FEE70000C1
:102C9C0070B500260C4D0D4C641BA410A64209D136
:102CAC0000F01AF800260A4D0A4C641BA410A64228
:102CBC0005D170BD55F8043B98470136EEE755F841
:102CCC00043B98470136F2E7C82D0008C82D0008D0
:102CDC00C82D0008CC2D0008F8B500BFF8BC08BC06
:102CEC009E467047F8B500BFF8BC08BC9E467047BE
:102CFC0002030405060708090A0B0C0D0E0F101031
:102D0C000000000000000000000102030406070898
:102D1C00092E2E2F5372632F757362645F636F6E6F
:102D2C00662E63000002010253544D6963726F6595
:102D3C006C656374726F6E6963730053544D3332F8
:102D4C0020446F776E4C6F6164204669726D7761B9
:102D5C0072652055706461746500303030303030ED
:102D6C003030303031410044465520436F6E666937
:102D7C00670044465520496E746572666163650050
:102D8C0040496E7465726E616C20466C617368208C
:102D9C0020202F307830383030303030302F3132F6
:102DAC002A3030314B612C35322A3030314B672C84
:0C2DBC0036342A3030314B670000000034
:042DC80031010008CD
:042DCC000D010008ED
:102DD0000100000010000000991C0008651C00089C
:102DE000011D00081D1B00080D1B0008091B000821
:102DF0001120000819200008152000080D200008E7
:102E0000FD1A0008FD1A0008FD1A0008111B000831
:102E1000E11C000809021B00010102C03209040084
:102E20000000FE01020609210BFF0000041A010048
:102E30000A060002000000400100000000A24A044F
:102E4000152B0008212B00082D2B0008492B00080A
:102E5000652B0008812B00089D2B00081201000241
:102E600000000040830411DF0002010203010000A2
:102E7000040309048C2D00083D2C0008332C0008A5
:102E80000F2C0008D72B0008B92B0008D32B000803
:0400000508002C5172
:00000001FF
