:100000000FEF04F00000000000EF00F0000000001F
:0A0010000000000000000000F3D71C
:10001C00086A096A100E0C6E013408360936045051
:10002C00085E0550D8A0053C095ED8B007D0045036
:10003C0008260550D8B0053C0926D8900036013664
:06004C000C2EEAD71200A1
:10005200C7B409D01F0EC514016E0150000A03E196
:0A006200010E006E1200006A120089
:10006C000001C26BC36BC351120802E1C2518E086E
:10007C0008E3E9DF005201E004D00001C24BC32BBE
:10008C00F2D70001120EC35D02E18F0EC25D03E3D5
:10009C007B0E006E1200C580C5A001D0FDD7006A92
:0200AC00120040
:1000AE009E96C5869EB601D0FDD7C9CF01F0000140
:1000BE00C251000A02E1C58A01D0C59A9E96C58832
:0C00CE009EB601D0FDD701C000F012006A
:1000DA009E96C2C0C9FFC7A401D0FDD79EB601D063
:1000EA00FDD7C5BC02D0006A1200C584020E006E9C
:0200FA001200F2
:0400FC00C5841200A5
:0E010000ACB202D00000FCD7C2C0ADFF1200AE
:10010E000001C66B050EC65D0AE2C651C425E16E3E
:10011E00000EC521E26E200EE66EC62BF3D7C65139
:10012E00C425E16E000EC521E26EE66AC607C65111
:10013E00C425C76F000EC521C86F0A0E046E000ECF
:10014E00056EC2C000F0C3C001F061DF08C000F050
:10015E0009C001F0300E0026C7C0E1FFC8C0E2FFA3
:10016E0000C0E6FF0A0E046E000E056EC2C000F05F
:10017E00C3C001F04CDF00C0C2F001C0C3F0000EDE
:10018E00011802E1000E001801E102D0C607CFD718
:02019E0012004D
:1001A0000001BA6B63DFB8C0C2F097DFB9C0C2F01C
:1001B00094DF5CDFB851010FC26F8FDF0001C26BAB
:0E01C00076DF00C0BAF09ADFBAC000F012007D
:1001CE000001BE6BBF6BB8C0C0F0B9C0C1F0800EED
:1001DE00B919006E800E005C02E1000EB85D0BE2F4
:1001EE00010EBE6F000EBF6FB8510008C06FB9C0D0
:1001FE00C1F0000EC157C0C0C2F0C1C0C3F0BAC03A
:10020E00C4F0BBC0C5F07CDF060EBC6F000EBD6F28
:10021E00000E006EBD51005C02E1BC51000819E2F7
:10022E00BC51BA25E16EBD51BB21E26E010EBC5D23
:10023E00006E000EBD59016E0050BA25E96E0150D8
:10024E00BB21EA6EEECFE6FF010EBC5F000EBD5B7A
:10025E00DFD7BAC0E1FFBBC0E2FF200EE66EBE5193
:10026E00BF111AE0BC6BBD6BBC51BA25E96EBD5116
:10027E00BB21EA6EEE50200A03E1BC4BBD2BF4D736
:10028E00010EBC5F000EBD5BBC51BA25E16EBD51C7
:0A029E00BB21E26E2D0EE66E120089
:1002A8000001BB6BB8C0E9FFB9C0EAFFEECFBAF0F6
:1002B800BA51000A0EE0BAC0C2F01EDF0001BB2B23
:1002C800BB51B825E96E000EB921EA6EEECFBAF03F
:0402D800EFD712004A
:1002DC00C7DE3C0EC26FFBDEB8C0C2F0F8DEB9C0A0
:0802EC00C2F0F5DE05DF12008F
:1002F400AFC0B8F0B0C0B9F0B10E0001BA6F000ED3
:10030400BB6F63DFB10EB86F000EB96FCBDF1200A5
:100314000001B86B180EB96FDFDF010E0001B86F72
:10032400A00EB96FD9DF020E0001B86FB96BD4DF2C
:020334001200B5
:100336009ADEA60EC26FCEDE2D0E0001C26FCADE99
:100346000001C26BC7DED7DE4E0E0C6EEB0E0D6ED5
:100356000D2EFED70C2EFCD786DEA60EC26FBADE99
:10036600310E0001C26FB6DE080E0001C26FB2DEAA
:10037600C2DE4E0E0C6EEB0E0D6E0D2EFED70C2E43
:10038600FCD771DEA60EC26FA5DE2C0E0001C26F71
:10039600A1DE090E0001C26F9DDEADDE4E0E0C6EB3
:1003A600EB0E0D6E0D2EFED70C2EFCD75CDEA60EC8
:1003B600C26F90DE2D0E0001C26F8CDE080E0001AA
:0803C600C26F88DE98DE120010
:1003CE004EDE3C0EC26F82DE030E0001C26F7EDE79
:1003DE0046DE3D0EC26F7ADE010E0001C26F60DE98
:1003EE0000C0AFF0010E0001C26F5ADE00C0B0F0C7
:1003FE00010E0001C26F54DE00C0B1F0010E00010B
:10040E00C26F4EDE00C0B2F0010E0001C26F48DEB8
:10041E0000C0B3F00001C26B43DE00C0B4F067DE73
:10042E00AFC003F0000E046E03C001F0006A0001BD
:10043E00B05100109B6F01C09CF0000E9C13B3C016
:10044E0003F0000E046E03C001F0006AB4510010F8
:10045E00996F01C09AF0000E9A13B1C003F0000E0E
:10046E00046E03C001F0006AB25100109D6F01C00E
:08047E009EF0000E9E13120017
:10048600F2DDD00EC26F26DE3E0E0001C26F22DE06
:10049600800E0001C26F1EDE2EDEE5DDD00EC26FBD
:1004A60019DE150E0001C26F15DE0A0E0001C26FBD
:1004B60011DE21DED8DDD00EC26F0CDE160E000175
:1004C600C26F08DE1B0E0001C26F04DE14DECBDD38
:1004D600D00EC26FFFDD3E0E0001C26FFBDD030EC4
:0A04E6000001C26FF7DD07DE12000F
:1004F000A60E0001B86F320EB96F52DE00C0AFF029
:10050000A60E0001B86F330EB96F4ADE00C0B0F01E
:10051000A60E0001B86F340EB96F42DE00C0B1F014
:10052000A60E0001B86F350EB96F3ADE00C0B2F00A
:10053000A60E0001B86F360EB96F32DE00C0B3F000
:10054000A60E0001B86F370EB96F2ADE00C0B4F0F6
:10055000B0C004F0000E056E04C002F0016A000194
:10056000AF510110A56F02C0A6F0000EA613B2C0D5
:1005700004F0000E056E04C002F0016AB1510110D2
:10058000A76F02C0A8F0000EA81300C003F0000E71
:10059000046E03C001F0006AB3510010A96F01C0DE
:0805A000AAF0000EAA131200DC
:1005A80061DDD00EC26F95DD1D0E0001C26F91DDB9
:1005B80059DDD10EC26F8DDD010E0001C26F73DDF2
:1005C80000C0AFF0010E0001C26F6DDD00C0B0F0D9
:1005D800010E0001C26F67DD00C0B1F0010E00011D
:1005E800C26F61DD00C0B2F0010E0001C26F5BDDB9
:1005F80000C0B3F00001C26B56DD00C0B4F07ADD74
:10060800AFC003F0000E046E03C001F0006A0001E1
:10061800B05100109F6F01C0A0F0000EA013B1C030
:1006280003F0000E046E03C001F0006AB25100101E
:10063800A16F01C0A2F0000EA213B3C003F0000E18
:10064800046E03C001F0006AB4510010A36F01C02A
:08065800A4F0000EA41312002F
:10066000939093928A908A9293809382C79EC79C1C
:06067000380EC66E1200F8
:100676000900F5CFE6FF0006FBE10106F9E11200ED
:10068600000E0001896F010E8A6FC20E8B6F000E7D
:100696008C6FFF0E956FFF0E966F000E976F000E14
:1006A600986FFF0E916FFF0E926F000E936F000E04
:1006B600946FFF0E8D6FFF0E8E6F000E8F6F000E04
:1006C600906FAC8A900EAB6E948E949C9EAA03D0CB
:0806D600AECF00F0FBD71200CB
:0806DE0008DF76DE62DF120086
:1006E600390E0001B86F000EB96FDBDDA5C0AFF0A3
:1006F600A6C0B0F0FCDD360EB86F000EB96FD1DDC6
:10070600580EB86F000EB96FCCDDA7C0AFF0A8C009
:10071600B0F0EDDD550EB86F000EB96FC2DD4E0EAE
:10072600B86F000EB96FBDDDA9C0AFF0AAC0B0F0BA
:10073600DEDD330EB86F000EB96FB3DD1F0EB86F76
:10074600000EB96FAEDD180EB86F000EB96FA9DDD9
:1007560099C0AFF09AC0B0F0CADD150EB86F000EA2
:10076600B96F9FDD2C0EB86F000EB96F9ADD9BC076
:10077600AFF09CC0B0F0BBDD290EB86F000EB96FAC
:1007860090DD220EB86F000EB96F8BDD9DC0AFF005
:100796009EC0B0F0ACDD780EB86F000EB96F81DD8B
:1007A600750EB86F000EB96F7CDD6D0EB86F000E5A
:1007B600B96F77DD9FC0AFF0A0C0B0F098DD860EB0
:1007C600B86F000EB96F6DDD7E0EB86F000EB96F93
:1007D60068DDA1C0AFF0A2C0B0F089DD7B0EB86FB6
:1007E600000EB96F5EDD650EB86F000EB96F59DD8C
:1007F600A3C0AFF0A4C0B0F07ADD620EB86F000EF1
:10080600B96F4FDD5F0EB86F000EB96F4ADD12008B
:080816008FDD7DDD35DE1200EF
:10081E0094EC04F0946A948E190EAF6EAC842CDFB7
:10082E00070E0B6E170E0C6E6A0E0D6E0D2EFED78A
:10083E000C2EFCD70B2EFAD70000400E0001B86F1D
:10084E00000EB96F2ADD780EC86E03DF070E0B6E31
:10085E00170E0C6E6A0E0D6E0D2EFED70C2EFCD7DB
:10086E000B2EFAD70000D0DF070E0B6E170E0C6E94
:10087E006A0E0D6E0D2EFED70C2EFCD70B2EFAD750
:10088E00000026DF29DF3D0E0B6EE10E0C6E3F0ED3
:10089E000D6E0D2EFED70C2EFCD70B2EFAD70000A8
:0608AE000000EFD7FFD7A8
:1009280010EE15F0740E006E010E016EB40EF66E28
:0E093800080EF76E000EF86E3BEC03F0120096
:0308B40020200001
:0708B700585F6D61673A0014
:0308BE000D0A0020
:0708C1005A5F6D61673A0008
:0308C800202000ED
:0708CB00595F6D61673A00FF
:0308D200202000E3
:0308D500202000E0
:0708D800585F6163633A0001
:0E08DF0047592D38352053746172740D0A008C
:0708ED005A5F6163633A00EA
:0308F400202000C1
:0708F700595F6163633A00E1
:0308FE000D0A00E0
:03090100202000B3
:080904005A5F6779726F3A0037
:08090C00585F6779726F3A0031
:030914000D0A00C9
:030917002020009D
:03091A002020009A
:08091D00595F6779726F3A001F
:030925002020008F
:020000040030CA
:0E000000040E1F1EFF0181FF0FC00FE00F4016
:00000001FF
