:020000040800F2
:1000000000500020E15900086D0400087504000844
:100010007D040008850400088D040008000000002D
:10002000000000000000000000000000950400082F
:10003000A104000800000000AD040008B904000895
:10004000295A0008295A0008295A0008295A000884
:10005000295A0008295A0008295A0008295A000874
:10006000295A0008295A0008295A0008295A000864
:10007000295A0008295A0008295A0008295A000854
:10008000295A0008295A0008295A0008C5040008FE
:10009000E1040008295A0008295A0008295A0008D2
:1000A000295A0008295A0008295A0008295A000824
:1000B000295A0008295A0008295A0008295A000814
:1000C000295A0008295A0008295A0008295A000804
:1000D000295A0008295A0008FD040008295A000876
:1000E000295A0008295A0008295A0008000000006F
:1000F0000000000000000000000000000000000000
:0C01000000000000000000005FF808F1A3
:10010C0010B5054C237833B9044B13B10448AFF345
:10011C0000800123237010BD0C00002000000000A3
:10012C002C5A000808B5034B1BB103490348AFF325
:10013C00008008BD00000000100000202C5A0008B0
:10014C0003460244934200D1704703F8011BF9E7C0
:10015C0070B500260C4D0D4C641BA410A64209D1A1
:10016C0005F05EFC00260A4D0A4C641BA410A64246
:10017C0005D170BD55F8043B98470136EEE755F8AC
:10018C00043B98470136F2E7705A0008705A000891
:10019C00705A0008745A000880B500AF00F0FCFDDE
:1001AC0000F016F800F0F0F800F06CF800F0A0F891
:1001BC0000F0C8F84FF40051044801F0D5FC4FF49E
:1001CC007A7000F04BFE00BFF4E700BF0010014056
:1001DC0080B594B000AF07F12803282200211846FF
:1001EC00FFF7AEFF07F1140300221A605A609A6001
:1001FC00DA601A613B1D00221A605A609A60DA605C
:10020C000123BB624FF48033FB6200233B63012369
:10021C00BB6302237B644FF48033BB644FF4E01365
:10022C00FB6407F12803184600F03CFE0346002B44
:10023C0001D000F00FF90F237B610223BB61002377
:10024C00FB614FF480633B6200237B6207F1140374
:10025C000221184601F0A8F80346002B01D000F04B
:10026C00F9F810237B6000233B613B1D184601F01D
:10027C0029FA0346002B01D000F0ECF800BF5037F0
:10028C00BD4680BD80B500AF174B184A1A60164B9F
:10029C0004225A60144B00229A60134B0022DA603D
:1002AC00114B4FF460221A610F4B4FF480125A61BC
:1002BC000D4B00221A760C4B00225A760A4B002268
:1002CC009A76094B0022DA76074B00221A77064BF6
:1002DC0000225A77044800F037FA0346002B01D06D
:1002EC0000F0B8F800BF80BD28000020006400407A
:1002FC0080B500AF114B124A1A60104B4FF4E1322B
:10030C005A600E4B00229A600C4B0022DA600B4BA9
:10031C0000221A61094B0C225A61084B00229A6187
:10032C00064B0022DA61054801F0F7FD0346002B6D
:10033C0001D000F08FF800BF80BD00BF500000203E
:10034C000044004080B500AF0D4B0E4A1A600C4BB8
:10035C0008221A710A4B02229A71094B00229A72D6
:10036C00074B0022DA72064B00221A73044802F083
:10037C0007FB0346002B01D000F06CF800BF80BDDA
:10038C0098000020005C004080B588B000AF07F1F9
:10039C00100300221A605A609A60DA602A4B9B693B
:1003AC00294A43F010039361274B9B6903F0100318
:1003BC00FB60FB68244B9B69234A43F02003936149
:1003CC00214B9B6903F02003BB60BB681E4B9B69F0
:1003DC001D4A43F0040393611B4B9B6903F0040318
:1003EC007B607B68184B9B69174A43F00803936149
:1003FC00154B9B6903F008033B603B6801224FF4EB
:10040C000051124801F098FB4FF400533B6101235B
:10041C007B610123BB610223FB6107F110031946C9
:10042C000A4801F005FA04233B6100237B61002399
:10043C00BB6107F110031946054801F0F9F900BF3B
:10044C002037BD4680BD00BF0010024000100140A7
:10045C00000C014080B400AF72B600BF00BFFDE7D6
:10046C0080B400AF00BFFDE780B400AF00BFFDE774
:10047C0080B400AF00BFFDE780B400AF00BFFDE764
:10048C0080B400AF00BFFDE780B400AF00BFBD4635
:10049C0080BC704780B400AF00BFBD4680BC7047C5
:1004AC0080B400AF00BFBD4680BC704780B500AFC4
:1004BC0000F0B8FC00BF80BD80B500AF034800F071
:1004CC003EFA034802F052FB00BF80BD280000201A
:1004DC009800002080B500AF034800F030FA0348C4
:1004EC0002F044FB00BF80BD2800002098000020D3
:1004FC0080B500AF024801F061FD00BF80BD00BFB8
:10050C005000002080B485B000AF154B9B69144A95
:10051C0043F001039361124B9B6903F00103BB6031
:10052C00BB680F4BDB690E4A43F08053D3610C4B15
:10053C00DB6903F080537B607B680A4B5B68FB6074
:10054C00FB6823F0E063FB60FB6843F00073FB6027
:10055C00044AFB68536000BF1437BD4680BC70472B
:10056C00001002400000014080B58AB000AF7860F6
:10057C0007F1140300221A605A609A60DA607B68F3
:10058C001B682D4A934253D12C4BDB692B4A43F009
:10059C000073D361294BDB6903F000733B613B694A
:1005AC00264B9B69254A43F008039361234B9B69B7
:1005BC0003F00803FB60FB684FF480737B6100233E
:1005CC00BB610023FB6107F1140319461C4801F0C1
:1005DC002FF94FF400737B610223BB6103233B6251
:1005EC0007F114031946164801F022F9154B5B6804
:1005FC007B627B6A23F4C0437B627B6A43F0E063DB
:10060C007B627B6A43F480437B620E4A7B6A536055
:10061C0000220021132001F04AFC132001F063FC9E
:10062C0000220021142001F042FC142001F05BFC9C
:10063C0000BF2837BD4680BD00640040001002405A
:10064C00000C01400000014080B588B000AF78601C
:10065C0007F1100300221A605A609A60DA607B6816
:10066C001B681F4A934237D11E4BDB691D4A43F46A
:10067C000033D3611B4BDB6903F40033FB60FB6875
:10068C00184B9B69174A43F004039361154B9B6904
:10069C0003F00403BB60BB6804233B6102237B6152
:1006AC000323FB6107F1100319460F4801F0C0F852
:1006BC0008233B6100237B610023BB6107F110031E
:1006CC001946094801F0B4F800220021262001F057
:1006DC00EEFB262001F007FC00BF2037BD4680BD95
:1006EC0000440040001002400008014080B584B076
:1006FC0000AF78607B681B68114A93421BD1114B89
:10070C00DB69104A43F40003D3610E4BDB6903F43D
:10071C000003FB60FB6800220021132001F0C7FBE3
:10072C00132001F0E0FB00220021142001F0BFFB9C
:10073C00142001F0D8FB00BF1037BD4680BD00BFB0
:10074C00005C00400010024080B584B000AF7860BF
:10075C007B68002B01D10123EDE07B6893F82030FE
:10076C00DBB2002B02D17868FFF7FEFE7B681B68BA
:10077C001A687B681B6842F001021A6000F064FB87
:10078C00F86012E000F060FB0246FB68D31A0A2BFB
:10079C000BD97B685B6A43F400327B685A627B68D6
:1007AC00052283F820200123C5E07B681B685B6869
:1007BC0003F00103002BE5D07B681B681A687B688B
:1007CC001B6822F002021A6000F03EFBF86012E097
:1007DC0000F03AFB0246FB68D31A0A2B0BD97B6854
:1007EC005B6A43F400327B685A627B68052283F8AB
:1007FC00202001239FE07B681B685B6803F00203E9
:10080C00002BE5D17B681B7E012B08D17B681B6814
:10081C001A687B681B6842F080021A6007E07B68EC
:10082C001B681A687B681B6822F080021A607B6860
:10083C005B7E012B08D17B681B681A687B681B6880
:10084C0042F040021A6007E07B681B681A687B68FC
:10085C001B6822F040021A607B689B7E012B08D13A
:10086C007B681B681A687B681B6842F020021A6060
:10087C0007E07B681B681A687B681B6822F0200203
:10088C001A607B68DB7E012B08D17B681B681A68B9
:10089C007B681B6822F010021A6007E07B681B68FB
:1008AC001A687B681B6842F010021A607B681B7F19
:1008BC00012B08D17B681B681A687B681B6842F0A7
:1008CC0008021A6007E07B681B681A687B681B6863
:1008DC0022F008021A607B685B7F012B08D17B68D1
:1008EC001B681A687B681B6842F004021A6007E0F8
:1008FC007B681B681A687B681B6822F004021A600C
:10090C007B689A687B68DB681A437B681B691A43AF
:10091C007B685B6942EA03017B685B685A1E7B68F3
:10092C001B680A43DA617B6800225A627B680122E9
:10093C0083F82020002318461037BD4680BD80B5B3
:10094C008AB000AF786000237B627B681B685B69B0
:10095C003B627B681B685B68FB617B681B689B6800
:10096C00BB617B681B68DB687B617B681B681B69F0
:10097C003B617B681B689B69FB603B6A03F001036E
:10098C00002B7CD0BB6903F00103002B23D07B68C8
:10099C001B6801229A60BB6903F00203002B03D091
:1009AC00786800F083F916E0BB6903F00403002BB0
:1009BC0004D07B6A43F400637B620CE0BB6903F0F8
:1009CC000803002B04D07B6A43F480537B6202E063
:1009DC00786800F086F9BB6903F48073002B24D08F
:1009EC007B681B684FF480729A60BB6903F40073D8
:1009FC00002B03D0786800F062F916E0BB6903F4B1
:100A0C008063002B04D07B6A43F400537B620CE0C0
:100A1C00BB6903F40063002B04D07B6A43F480436E
:100A2C007B6202E0786800F065F9BB6903F48033FF
:100A3C00002B24D07B681B684FF480329A60BB6912
:100A4C0003F40033002B03D0786800F041F916E072
:100A5C00BB6903F48023002B04D07B6A43F400436E
:100A6C007B620CE0BB6903F40023002B04D07B6A8F
:100A7C0043F480337B6202E0786800F044F93B6A0F
:100A8C0003F00803002B0CD07B6903F01003002B40
:100A9C0007D07B6A43F400737B627B681B6810226F
:100AAC00DA603B6A03F00403002B0BD07B6903F084
:100ABC000803002B06D07B681B680822DA60786874
:100ACC0000F033F93B6A03F00203002B09D07B687A
:100ADC001B68DB6803F00303002B02D0786800F07E
:100AEC001BF93B6A03F04003002B0CD03B6903F06D
:100AFC001003002B07D07B6A43F480637B627B6816
:100B0C001B6810221A613B6A03F02003002B0BD0E8
:100B1C003B6903F00803002B06D07B681B68082296
:100B2C001A61786800F013F93B6A03F01003002B8C
:100B3C0009D07B681B681B6903F00303002B02D0F0
:100B4C00786800F0FBF83B6A03F40033002B0BD001
:100B5C00FB6903F01003002B06D07B681B68102286
:100B6C005A60786800F0FCF83B6A03F48033002B81
:100B7C000BD0FB6903F00803002B06D07B681B68C5
:100B8C0008225A60786800F0F4F83B6A03F40043DA
:100B9C00002B7BD0FB6903F00403002B72D03B6A63
:100BAC0003F48073002B08D0FB6803F00103002BC7
:100BBC0003D07B6A43F001037B623B6A03F400734E
:100BCC00002B08D0FB6803F00203002B03D07B6AD8
:100BDC0043F002037B623B6A03F48063002B08D072
:100BEC00FB6803F00403002B03D07B6A43F004037F
:100BFC007B623B6A03F40063002B43D0FB6803F079
:100C0C007003002B3ED0FB6803F07003602B2BD0DD
:100C1C00602B2ED8502B22D0502B2AD8402B19D0F9
:100C2C00402B26D8302B10D0302B22D8102B02D0B2
:100C3C00202B05D01DE07B6A43F008037B6219E092
:100C4C007B6A43F010037B6214E07B6A43F0200361
:100C5C007B620FE07B6A43F040037B620AE07B6AB5
:100C6C0043F080037B6205E07B6A43F480737B6214
:100C7C0000E000BF7B681B689A697B681B6822F0E8
:100C8C0070029A617B681B6804225A607B6A002B95
:100C9C0008D07B685A6A7B6A1A437B685A62786808
:100CAC0000F070F800BF2837BD4680BD80B483B01B
:100CBC0000AF786000BF0C37BD4680BC704780B475
:100CCC0083B000AF786000BF0C37BD4680BC704766
:100CDC0080B483B000AF786000BF0C37BD4680BCD9
:100CEC00704780B483B000AF786000BF0C37BD464E
:100CFC0080BC704780B483B000AF786000BF0C3705
:100D0C00BD4680BC704780B483B000AF786000BF34
:100D1C000C37BD4680BC704780B483B000AF7860A0
:100D2C0000BF0C37BD4680BC704780B483B000AFA9
:100D3C00786000BF0C37BD4680BC704780B483B070
:100D4C0000AF786000BF0C37BD4680BC704780B4E4
:100D5C0083B000AF786000BF0C37BD4680BC7047D5
:100D6C0080B483B000AF786000BF0C37BD4680BC48
:100D7C00704780B483B000AF786000BF0C37BD46BD
:100D8C0080BC704780B483B000AF786000BF0C3774
:100D9C00BD4680BC7047000080B500AF084B1B6897
:100DAC00074A43F010031360032001F075F80F207D
:100DBC0000F008F8FFF7A6FB0023184680BD00BF23
:100DCC000020024080B582B000AF7860124B1A68E8
:100DDC00124B1B7819464FF47A73B3FBF1F3B2FB49
:100DEC00F3F3184601F08DF80346002B01D00123D4
:100DFC000EE07B680F2B0AD8002279684FF0FF3089
:100E0C0001F055F8064A7B681360002300E00123CB
:100E1C0018460837BD4680BD08000020040000209D
:100E2C000000002080B400AF054B1B781A46054B20
:100E3C001B681344034A136000BFBD4680BC704757
:100E4C00040000207003002080B400AF024B1B682C
:100E5C001846BD4680BC70477003002080B584B036
:100E6C0000AF7860FFF7F0FFB8607B68FB60FB6851
:100E7C00B3F1FF3F05D00A4B1B781A46FB681344AD
:100E8C00FB6000BFFFF7E0FF0246BB68D31AFA68AD
:100E9C009A42F7D800BF00BF1037BD4680BD00BFD7
:100EAC000400002080B586B000AF78607B68002B12
:100EBC0001D1012372E27B681B6803F00103002B54
:100ECC0000F08780924B5B6803F00C03042B0CD072
:100EDC008F4B5B6803F00C03082B12D18C4B5B68B7
:100EEC0003F48033B3F5803F0BD1894B1B6803F4BB
:100EFC000033002B6CD07B685B68002B68D101231E
:100F0C004CE27B685B68B3F5803F06D1804B1B6875
:100F1C007F4A43F4803313602EE07B685B68002BC0
:100F2C000CD17B4B1B687A4A23F480331360784BCB
:100F3C001B68774A23F4802313601DE07B685B6891
:100F4C00B3F5A02F0CD1724B1B68714A43F480236C
:100F5C0013606F4B1B686E4A43F4803313600BE0D5
:100F6C006B4B1B686A4A23F480331360684B1B6815
:100F7C00674A23F4802313607B685B68002B13D0D3
:100F8C00FFF762FF386108E0FFF75EFF02463B693E
:100F9C00D31A642B01D9032300E25D4B1B6803F4C5
:100FAC000033002BF0D014E0FFF74EFF386108E05F
:100FBC00FFF74AFF02463B69D31A642B01D903237E
:100FCC00ECE1534B1B6803F40033002BF0D100E031
:100FDC0000BF7B681B6803F00203002B63D04C4BF3
:100FEC005B6803F00C03002B0BD0494B5B6803F0E0
:100FFC000C03082B1CD1464B5B6803F48033002B8D
:10100C0016D1434B1B6803F00203002B05D07B6801
:10101C001B69012B01D00123C0E13D4B1B6823F060
:10102C00F8027B685B69DB00394913430B603AE0DB
:10103C007B681B69002B20D0364B01221A60FFF70E
:10104C0003FF386108E0FFF7FFFE02463B69D31A45
:10105C00022B01D90323A1E12D4B1B6803F00203E2
:10106C00002BF0D02A4B1B6823F0F8027B685B69DD
:10107C00DB00274913430B6015E0264B00221A6056
:10108C00FFF7E2FE386108E0FFF7DEFE02463B693F
:10109C00D31A022B01D9032380E11D4B1B6803F0EB
:1010AC000203002BF0D17B681B6803F00803002BB4
:1010BC003AD07B689B69002B19D0174B01221A6020
:1010CC00FFF7C2FE386108E0FFF7BEFE02463B693F
:1010DC00D31A022B01D9032360E10D4B5B6A03F099
:1010EC000203002BF0D0012000F0CEFA1CE00A4BDA
:1010FC0000221A60FFF7A8FE38610FE0FFF7A4FE8C
:10110C0002463B69D31A022B08D9032346E100BFE0
:10111C00001002400000424280044242924B5B6A43
:10112C0003F00203002BE9D17B681B6803F0040376
:10113C00002B00F0A6800023FB758B4BDB6903F0C2
:10114C008053002B0DD1884BDB69874A43F08053C9
:10115C00D361854BDB6903F08053BB60BB68012313
:10116C00FB75824B1B6803F48073002B18D17F4BEB
:10117C001B687E4A43F480731360FFF765FE386189
:10118C0008E0FFF761FE02463B69D31A642B01D9D4
:10119C00032303E1754B1B6803F48073002BF0D021
:1011AC007B68DB68012B06D16F4B1B6A6E4A43F0E0
:1011BC00010313622DE07B68DB68002B0CD16A4BBA
:1011CC001B6A694A23F001031362674B1B6A664A68
:1011DC0023F0040313621CE07B68DB68052B0CD145
:1011EC00614B1B6A604A43F0040313625E4B1B6A3B
:1011FC005D4A43F0010313620BE05B4B1B6A5A4AD6
:10120C0023F001031362584B1B6A574A23F0040363
:10121C0013627B68DB68002B15D0FFF715FE386175
:10122C000AE0FFF711FE02463B69D31A41F28832FD
:10123C00934201D90323B1E04B4B1B6A03F0020329
:10124C00002BEED014E0FFF7FFFD38610AE0FFF74A
:10125C00FBFD02463B69D31A41F28832934201D915
:10126C0003239BE0404B1B6A03F00203002BEED1DF
:10127C00FB7D012B05D13C4BDB693B4A23F08053B2
:10128C00D3617B68DB69002B00F08780364B5B6891
:10129C0003F00C03082B61D07B68DB69022B46D171
:1012AC00334B00221A60FFF7CFFD386108E0FFF7DF
:1012BC00CBFD02463B69D31A022B01D903236DE007
:1012CC00294B1B6803F00073002BF0D17B681B6A61
:1012DC00B3F5803F08D1244B5B6823F400327B6864
:1012EC009B68214913434B601F4B5B6823F47412BA
:1012FC007B68196A7B685B6A0B431B4913434B6021
:10130C001B4B01221A60FFF79FFD386108E0FFF7C5
:10131C009BFD02463B69D31A022B01D903233DE006
:10132C00114B1B6803F00073002BF0D035E0104B11
:10133C0000221A60FFF788FD386108E0FFF784FD92
:10134C0002463B69D31A022B01D9032326E0064B34
:10135C001B6803F00073002BF0D11EE07B68DB6987
:10136C00012B07D1012319E000100240007000404E
:10137C00600042420B4B5B68FB60FB6803F48032FD
:10138C007B681B6A9A4206D1FB6803F470127B6877
:10139C005B6A9A4201D0012300E0002318461837FB
:1013AC00BD4680BD0010024080B584B000AF7860AF
:1013BC0039607B68002B01D10123D0E06A4B1B689C
:1013CC0003F007033A689A4210D9674B1B6823F065
:1013DC00070265493B6813430B60634B1B6803F0C2
:1013EC0007033A689A4201D00123B8E07B681B6876
:1013FC0003F00203002B20D07B681B6803F004036E
:10140C00002B05D0594B5B68584A43F4E06353609A
:10141C007B681B6803F00803002B05D0534B5B68FB
:10142C00524A43F460535360504B5B6823F0F00214
:10143C007B689B684D4913434B607B681B6803F0CA
:10144C000103002B40D07B685B68012B07D1474B15
:10145C001B6803F40033002B15D101237FE07B685C
:10146C005B68022B07D1414B1B6803F00073002B08
:10147C0009D1012373E03D4B1B6803F00203002BE1
:10148C0001D101236BE0394B5B6823F003027B68CD
:10149C005B68364913434B60FFF7D6FCF8600AE0F3
:1014AC00FFF7D2FC0246FB68D31A41F28832934212
:1014BC0001D9032353E02D4B5B6803F00C027B68CE
:1014CC005B689B009A42EBD1274B1B6803F0070328
:1014DC003A689A4210D2244B1B6823F00702224927
:1014EC003B6813430B60204B1B6803F007033A68FF
:1014FC009A4201D0012332E07B681B6803F004039D
:10150C00002B08D0194B5B6823F4E0627B68DB6826
:10151C00164913434B607B681B6803F00803002BD0
:10152C0009D0124B5B6823F460527B681B69DB00AB
:10153C000E4913434B6000F021F802460B4B5B68DD
:10154C001B0903F00F030A49CB5C22FA03F3094A87
:10155C001360094B1B681846FFF734FC0023184630
:10156C001037BD4680BD00BF002002400010024075
:10157C00585A0008080000200000002080B487B0F2
:10158C0000AF0023FB600023BB6000237B610023C2
:10159C007B6000233B611E4B5B68FB60FB6803F0C8
:1015AC000C03042B02D0082B03D027E0194B3B6112
:1015BC0027E0FB689B0C03F00F03174AD35C7B609E
:1015CC00FB6803F48033002B10D0114B5B685B0C71
:1015DC0003F00103114AD35CBB607B680D4A03FB2B
:1015EC0002F2BB68B2FBF3F37B6104E07B680C4A4C
:1015FC0002FB03F37B617B693B6102E0054B3B61C2
:10160C0000BF3B6918461C37BD4680BC704700BF05
:10161C000010024000127A00445A0008545A000884
:10162C0000093D0080B400AF024B1B681846BD4654
:10163C0080BC70470800002080B500AFFFF7F2FFB8
:10164C000246054B5B681B0A03F007030349CB5C9E
:10165C0022FA03F3184680BD00100240685A0008B5
:10166C0080B500AFFFF7DEFF0246054B5B68DB0A77
:10167C0003F007030349CB5C22FA03F3184680BD41
:10168C0000100240685A000880B485B000AF786042
:10169C000A4B1B680A4AA2FB03235B0A7A6802FB0B
:1016AC0003F3FB6000BFFB685A1EFA60002BF9D1F4
:1016BC0000BF00BF1437BD4680BC70470800002037
:1016CC00D34D621080B586B000AF786000233B61CB
:1016DC000023FB607B681B6803F00103002B7DD0AB
:1016EC000023FB754F4BDB6903F08053002B0DD1AE
:1016FC004C4BDB694B4A43F08053D361494BDB695C
:10170C0003F08053BB60BB680123FB75464B1B6821
:10171C0003F48073002B18D1434B1B68424A43F4EB
:10172C0080731360FFF790FB386108E0FFF78CFBC8
:10173C0002463B69D31A642B01D903236DE03A4B63
:10174C001B6803F48073002BF0D0364B1B6A03F438
:10175C004073FB60FB68002B2ED07B685B6803F446
:10176C004073FA689A4227D02E4B1B6A23F44073BD
:10177C00FB602E4B01221A602C4B00221A60294A66
:10178C00FB681362FB6803F00103002B14D0FFF716
:10179C005BFB38610AE0FFF757FB02463B69D31A43
:1017AC0041F28832934201D9032336E01D4B1B6A68
:1017BC0003F00203002BEED01A4B1B6A23F4407289
:1017CC007B685B68174913430B62FB7D012B05D1CA
:1017DC00144BDB69134A23F08053D3617B681B687D
:1017EC0003F00203002B08D00E4B5B6823F440423D
:1017FC007B689B680B4913434B607B681B6803F049
:10180C001003002B08D0074B5B6823F480027B6825
:10181C00DB68044913434B60002318461837BD4658
:10182C0080BD00BF001002400070004040044242E6
:10183C0080B48BB000AF7860396000237B620023EA
:10184C003B6269E101227B6A02FA03F3FB613B68AC
:10185C001B68FA691340BB61BA69FB699A4240F094
:10186C0058813B685B689A4A93425ED0984A93428F
:10187C0075D8984A934258D0964A93426FD8964A54
:10188C00934252D0944A934269D8944A93424CD092
:10189C00924A934263D8924A934246D0904A9342DA
:1018AC005DD8122B2AD8122B59D801A252F823F04A
:1018BC0037190008111900082319000865190008C8
:1018CC006B1900086B1900086B1900086B190008DC
:1018DC006B1900086B1900086B1900086B190008CC
:1018EC006B1900086B1900086B1900086B190008BC
:1018FC006B190008191900082D190008794A934230
:10190C0013D02CE03B68DB683B6229E03B68DB686A
:10191C0004333B6224E03B68DB6808333B621FE026
:10192C003B68DB680C333B621AE03B689B68002B1E
:10193C0002D104233B6213E03B689B68012B05D169
:10194C0008233B627B68FA691A6109E008233B6251
:10195C007B68FA695A6103E000233B6200E000BF38
:10196C00BB69FF2B01D87B6801E07B6804337B618A
:10197C00BB69FF2B02D87B6A9B0002E07B6A083BA9
:10198C009B003B617B691A680F213B6901FA03F3E9
:10199C00DB431A40396A3B6901FA03F31A437B694A
:1019AC001A603B685B6803F08053002B00F0B18039
:1019BC004D4B9B694C4A43F0010393614A4B9B6925
:1019CC0003F00103BB60BB68484A7B6A9B08023387
:1019DC0052F82330FB607B6A03F003039B000F2259
:1019EC0002FA03F3DB43FA681340FB607B68404A5E
:1019FC00934213D07B683F4A93420DD07B683E4A9A
:101A0C00934207D07B683D4A934201D1032306E001
:101A1C00042304E0022302E0012300E000237A6A9D
:101A2C0002F0030292009340FA681343FB602F49C3
:101A3C007B6A9B080233FA6841F823203B685B6899
:101A4C0003F48013002B06D02D4B9A682C49BB69EC
:101A5C0013438B6006E02A4B9A68BB69DB43284929
:101A6C0013408B603B685B6803F40013002B06D0BB
:101A7C00234BDA682249BB691343CB6006E0204B49
:101A8C00DA68BB69DB431E491340CB603B685B687B
:101A9C0003F40033002B06D0194B5A681849BB6964
:101AAC0013434B6006E0164B5A68BB69DB43144981
:101ABC0013404B603B685B6803F48033002B21D0F0
:101ACC000F4B1A680E49BB6913430B6021E000BF32
:101ADC000000321000003110000022100000211014
:101AEC000000121000001110001002400000014014
:101AFC0000080140000C014000100140001401409E
:101B0C00000401400B4B1A68BB69DB4309491340C5
:101B1C000B607B6A01337B623B681A687B6A22FA32
:101B2C0003F3002B7FF48EAE00BF00BF2C37BD46F5
:101B3C0080BC70470004014080B483B000AF786073
:101B4C000B467B8013467B707B78002B03D07A8806
:101B5C007B681A6103E07B881A047B681A6100BFFA
:101B6C000C37BD4680BC704780B485B000AF786040
:101B7C000B467B807B68DB68FB607A88FB681340D4
:101B8C001A04FB68D9437B880B401A437B681A61A3
:101B9C0000BF1437BD4680BC704780B485B000AF21
:101BAC0078600023FB737B6893F82130DBB2022B47
:101BBC0008D07B6804229A637B68002283F820207B
:101BCC00012320E07B681B681A687B681B6822F085
:101BDC000E021A607B681B681A687B681B6822F00F
:101BEC0001021A607B681A6C7B68DB6B012101FABD
:101BFC0002F25A607B68012283F821207B68002264
:101C0C0083F82020FB7B18461437BD4680BC7047F8
:101C1C0080B584B000AF78600023FB737B6893F8C9
:101C2C002130DBB2022B05D07B6804229A6301239E
:101C3C00FB7351E07B681B681A687B681B6822F099
:101C4C000E021A607B681B681A687B681B6822F09E
:101C5C0001021A607B681B68224A934229D07B6878
:101C6C001B68214A934222D07B681B681F4A93420F
:101C7C001AD07B681B681E4A934212D07B681B6883
:101C8C001C4A93420AD07B681B681B4A934202D1C0
:101C9C004FF480130EE04FF080730BE04FF4803361
:101CAC0008E04FF4805305E04FF4807302E01023FA
:101CBC0000E00123114A53607B68012283F8212044
:101CCC007B68002283F820207B685B6B002B03D0A1
:101CDC007B685B6B78689847FB7B18461037BD4672
:101CEC0080BD00BF080002401C00024030000240D2
:101CFC0044000240580002406C00024000000240C8
:101D0C0080B485B000AF78607B6803F00703FB609C
:101D1C000C4BDB68BB60BA684FF6FF031340BB602B
:101D2C00FB681A02BB68134343F0BF6343F40033F0
:101D3C00BB60044ABB68D36000BF1437BD4680BC8F
:101D4C00704700BF00ED00E080B400AF044BDB68CF
:101D5C001B0A03F007031846BD4680BC704700BF42
:101D6C0000ED00E080B483B000AF0346FB7197F93F
:101D7C000730002B0BDBFB7903F01F02064997F9A8
:101D8C0007305B09012000FA02F241F8232000BF62
:101D9C000C37BD4680BC704700E100E080B483B0D6
:101DAC0000AF03463960FB7197F90730002B0ADB53
:101DBC003B68DAB20C4997F907301201D2B20B44E6
:101DCC0083F800230AE03B68DAB20849FB7903F098
:101DDC000F03043B1201D2B20B441A7600BF0C372E
:101DEC00BD4680BC704700BF00E100E000ED00E0A4
:101DFC0080B489B000AFF860B9607A60FB6803F01A
:101E0C000703FB61FB69C3F10703042B28BF042301
:101E1C00BB61FB690433062B02D9FB69033B00E071
:101E2C0000237B614FF0FF32BB6902FA03F3DA4304
:101E3C00BB681A407B699A404FF0FF317B6901FA0D
:101E4C0003F3D9437B680B40134318462437BD4634
:101E5C0080BC704780B582B000AF78607B68013B76
:101E6C00B3F1807F01D301230FE00A4A7B68013B69
:101E7C0053600F214FF0FF30FFF790FF054B00220E
:101E8C009A60044B07221A60002318460837BD4697
:101E9C0080BD00BF10E000E080B582B000AF78607C
:101EAC007868FFF72DFF00BF0837BD4680BD80B5B1
:101EBC0086B000AF0346B9607A60FB7300237B6188
:101ECC00FFF742FF78617A68B9687869FFF790FF8D
:101EDC00024697F90F3011461846FFF75FFF00BF17
:101EEC001837BD4680BD80B582B000AF0346FB718C
:101EFC0097F907301846FFF735FF00BF0837BD4686
:101F0C0080BD80B582B000AF78607868FFF7A2FF23
:101F1C00034618460837BD4680BD80B582B000AF79
:101F2C0078607B68002B01D1012342E07B6893F839
:101F3C004130DBB2002B06D17B68002283F84020B5
:101F4C007868FEF781FB7B68242283F841207B684C
:101F5C001B68DA687B681B6822F40052DA607868C8
:101F6C0000F080FC7B681B681A697B681B6822F494
:101F7C0090421A617B681B685A697B681B6822F067
:101F8C002A025A617B681B68DA687B681B6842F41A
:101F9C000052DA607B6800225A647B68202283F846
:101FAC0041207B68202283F842207B6800225A6300
:101FBC00002318460837BD4680BD000080B5BAB076
:101FCC0000AF78607B681B681B68C7F8E4307B68DF
:101FDC001B68DB68C7F8E0307B681B685B69C7F877
:101FEC00DC300023C7F8D8300023C7F8D430D7F83A
:101FFC00E43003F00F03C7F8D830D7F8D830002BF3
:10200C000FD1D7F8E43003F02003002B09D0D7F818
:10201C00E03003F02003002B03D0786800F063FB62
:10202C005BE2D7F8D830002B00F0DE80D7F8DC303C
:10203C0003F00103002B06D1D7F8E03003F49073C2
:10204C00002B00F0D180D7F8E43003F00103002B13
:10205C000BD0D7F8E03003F48073002B05D07B68ED
:10206C005B6C43F001027B685A64D7F8E43003F0F0
:10207C000403002B0BD0D7F8DC3003F00103002B4A
:10208C0005D07B685B6C43F002027B685A64D7F81E
:10209C00E43003F00203002B0BD0D7F8DC3003F054
:1020AC000103002B05D07B685B6C43F004027B685A
:1020BC005A64D7F8E43003F00803002B11D0D7F89A
:1020CC00E03003F02003002B05D1D7F8DC3003F00F
:1020DC000103002B05D07B685B6C43F008027B6826
:1020EC005A647B685B6C002B00F0F281D7F8E4300B
:1020FC0003F02003002B08D0D7F8E03003F02003C6
:10210C00002B02D0786800F0EEFA7B681B685B69E4
:10211C0003F04003002B14BF01230023DBB2C7F8EC
:10212C00D4307B685B6C03F00803002B03D1D7F829
:10213C00D430002B4FD0786800F0F8F97B681B681E
:10214C005B6903F04003002B41D07B681B681433A0
:10215C00C7F89C30D7F89C3053E8003FC7F898304C
:10216C00D7F8983023F04003C7F8D0307B681B6851
:10217C001433D7F8D020C7F8A820C7F8A430D7F864
:10218C00A410D7F8A82041E80023C7F8A030D7F84E
:10219C00A030002BD9D17B68DB6B002B13D07B6874
:1021AC00DB6B7E4A5A637B68DB6B1846FFF730FDAE
:1021BC000346002B16D07B68DB6B5B6B7A68D26BAB
:1021CC00104698470EE0786800F09CF90AE07868B1
:1021DC0000F098F906E0786800F094F97B6800222A
:1021EC005A6475E100BF73E17B681B6B012B40F0F7
:1021FC004F81D7F8E43003F01003002B00F0488136
:10220C00D7F8E03003F01003002B00F041810023DD
:10221C00BB607B681B681B68BB607B681B685B686A
:10222C00BB60BB687B681B685B6903F04003002BD9
:10223C0000F0B6807B68DB6B1B685B68A7F8BE3070
:10224C00B7F8BE30002B00F045817B689B8DB7F84A
:10225C00BE209A4280F03E817B68B7F8BE20DA85BA
:10226C007B68DB6B9B69202B00F088807B681B688C
:10227C000C33C7F88830D7F8883053E8003FC7F8DC
:10228C008430D7F8843023F48073C7F8B8307B6877
:10229C001B680C33D7F8B820C7F89420C7F89030D7
:1022AC00D7F89010D7F8942041E80023C7F88C3069
:1022BC00D7F88C30002BD9D17B681B6814337B6723
:1022CC007B6F53E8003F3B673B6F23F00103C7F87C
:1022DC00B4307B681B681433D7F8B420C7F880205F
:1022EC00FB67F96FD7F8802041E80023BB67BB6F11
:1022FC00002BE1D17B681B6814333B663B6E53E8C3
:10230C00003FFB65FB6D23F04003C7F8B0307B68E2
:10231C001B681433D7F8B020FA66BB66B96EFA6E38
:10232C0041E800237B667B6E002BE3D17B68202287
:10233C0083F842207B6800221A637B681B680C338D
:10234C00FB64FB6C53E8003FBB64BB6C23F01003D5
:10235C00C7F8AC307B681B680C33D7F8AC20BA6577
:10236C007B65796DBA6D41E800233B653B6D002BB5
:10237C00E3D17B68DB6B1846FFF70FFC7B6802220E
:10238C005A637B689A8D7B68DB8D9BB2D31A9BB2A8
:10239C001946786800F0BFF89CE000BFFD250008E6
:1023AC007B689A8D7B68DB8D9BB2D31AA7F8CE30F5
:1023BC007B68DB8D9BB2002B00F08E80B7F8CE30A3
:1023CC00002B00F089807B681B680C33BB63BB6BF4
:1023DC0053E8003F7B637B6B23F49073C7F8C830E2
:1023EC007B681B680C33D7F8C8207A643B64396C63
:1023FC007A6C41E80023FB63FB6B002BE3D17B6819
:10240C001B6814337B627B6A53E8003F3B623B6A78
:10241C0023F00103C7F8C4307B681B681433D7F86A
:10242C00C4203A63FB62F96A3A6B41E80023BB6251
:10243C00BB6A002BE3D17B68202283F842207B68A7
:10244C0000221A637B681B680C333B613B6953E8C1
:10245C00003FFB60FB6823F01003C7F8C0307B68BB
:10246C001B680C33D7F8C020FA61BB61B969FA69F3
:10247C0041E800237B617B69002BE3D17B6802225E
:10248C005A63B7F8CE301946786800F044F823E068
:10249C00D7F8E43003F08003002B09D0D7F8E030F4
:1024AC0003F08003002B03D0786800F0B5F814E03B
:1024BC00D7F8E43003F04003002B0ED0D7F8E0300F
:1024CC0003F04003002B08D0786800F0F4F804E027
:1024DC0000BF02E000BF00E000BFE837BD4680BD92
:1024EC0080B483B000AF786000BF0C37BD4680BCB1
:1024FC00704780B483B000AF786000BF0C37BD4626
:10250C0080BC704780B483B000AF786000BF0C37DC
:10251C00BD4680BC704780B483B000AF78600B467A
:10252C007B8000BF0C37BD4680BC704780B495B033
:10253C0000AF78607B681B680C337B637B6B53E864
:10254C00003F3B633B6B23F49073FB647B681B681D
:10255C000C33FA6C3A64FB63F96B3A6C41E8002378
:10256C00BB63BB6B002BE5D17B681B6814333B62F0
:10257C003B6A53E8003FFB61FB6923F00103BB643A
:10258C007B681B681433BA6CFA62BB62B96AFA6A6C
:10259C0041E800237B627B6A002BE5D17B681B6BD7
:1025AC00012B19D17B681B680C33FB60FB6853E86B
:1025BC00003FBB60BB6823F010037B647B681B6827
:1025CC000C337A6CBA617B617969BA6941E8002392
:1025DC003B613B69002BE5D17B68202283F84220CC
:1025EC007B6800221A6300BF5437BD4680BC70471D
:1025FC0080B584B000AF78607B685B6AFB60FB6879
:10260C000022DA85FB680022DA84F868FFF77AFF8B
:10261C0000BF1037BD4680BD80B485B000AF786078
:10262C007B6893F84130DBB2212B3ED17B689B68F1
:10263C00B3F5805F14D17B681B69002B10D17B68CC
:10264C001B6AFB60FB681B881A467B681B68C2F31D
:10265C0008025A607B681B6A9A1C7B681A6208E045
:10266C007B681B6A591C7A6811621A787B681B6834
:10267C005A607B68DB8C9BB2013B9BB27A68194633
:10268C00D184002B0FD17B681B68DA687B681B68D0
:10269C0022F08002DA607B681B68DA687B681B6852
:1026AC0042F04002DA60002300E00223184614379F
:1026BC00BD4680BC704780B582B000AF78607B6847
:1026CC001B68DA687B681B6822F04002DA607B6862
:1026DC00202283F841207868FFF702FF0023184678
:1026EC000837BD4680BD80B58CB000AF78607B6884
:1026FC0093F84230DBB2222B40F0AE807B689B68B3
:10270C00B3F5805F17D17B681B69002B13D10023B5
:10271C00FB627B689B6ABB627B681B685B689BB2D5
:10272C00C3F308039AB2BB6A1A807B689B6A9A1C33
:10273C007B689A6226E07B689B6AFB620023BB6223
:10274C007B689B68B3F5805F07D07B689B68002B28
:10275C000AD17B681B69002B06D17B681B685B6800
:10276C00DAB2FB6A1A7008E07B681B685B68DBB244
:10277C0003F07F03DAB2FB6A1A707B689B6A5A1CFF
:10278C007B689A627B68DB8D9BB2013B9BB27A685B
:10279C001946D185002B5DD17B681B68DA687B6894
:1027AC001B6822F02002DA607B681B68DA687B68A1
:1027BC001B6822F48072DA607B681B685A697B683C
:1027CC001B6822F001025A617B68202283F84220A8
:1027DC007B6800225A637B681B6B012B35D17B68AD
:1027EC0000221A637B681B680C337B617B6953E89E
:1027FC00003F3B613B6923F010037B627B681B68E5
:10280C000C337A6A3A62FB61F9693A6A41E800234F
:10281C00BB61BB69002BE5D17B681B681B6803F0AF
:10282C001003102B0AD10023FB607B681B681B680C
:10283C00FB607B681B685B68FB60FB687B689B8D3F
:10284C0019467868FFF767FE02E07868FFF751FEDB
:10285C00002302E0002300E0022318463037BD4677
:10286C0080BD000080B584B000AF78607B681B68C9
:10287C001B6923F440517B68DA687B681B680A4348
:10288C001A617B689A687B681B691A437B685B6971
:10289C001343BB607B681B68DB6823F4B05323F0E5
:1028AC000C037A681268B9680B43D3607B681B68A9
:1028BC005B6923F440717B689A697B681B680A43E7
:1028CC005A617B681B682C4A934203D1FEF7C8FE01
:1028DC00F86002E0FEF7B0FEF860FA6813469B0061
:1028EC0013449A001A447B685B689B00B2FBF3F3B9
:1028FC00224AA2FB03235B091901FA6813469B00C9
:10290C0013449A001A447B685B689B00B2FBF3F299
:10291C001A4BA3FB02035B09642000FB03F3D31ADD
:10292C001B013233154AA2FB03235B0903F0F003AE
:10293C001944FA6813469B0013449A001A447B68A6
:10294C005B689B00B2FBF3F20C4BA3FB02035B092D
:10295C00642000FB03F3D31A1B013233074AA2FB9A
:10296C0003235B0903F00F027B681B680A449A601F
:10297C0000BF1037BD4680BD003801401F85EB51AC
:10298C0080B584B000AF78607B68002B01D1012347
:10299C00E8E07B6893F89132DBB2002B06D17B68C0
:1029AC00002283F890227868FDF7A0FE7B68032252
:1029BC0083F891227B6800225A717B681B68184649
:1029CC0001F04EFB7B6818687B6804330ECB01F07A
:1029DC003AFB0346002B05D07B68022283F8912238
:1029EC000123BFE07B681B680021184601F052FBF5
:1029FC000346002B05D07B68022283F89122012329
:102A0C00B0E00023FB733EE0FA7B796813469B0031
:102A1C001344DB000B44113301221A70FA7B7968E2
:102A2C0013469B001344DB000B441033FA7B1A70E3
:102A3C00FA7B796813469B001344DB000B44133379
:102A4C0000221A70FA7B796813469B001344DB0052
:102A5C000B44203300221A60FA7B796813469B00E2
:102A6C001344DB000B44243300221A60FB7B79688F
:102A7C005A1C13469B001344DB000B4400221A60C3
:102A8C00FB7B0133FB737B681B79FA7B9A42BBD3CC
:102A9C000023FB7344E0FA7B796813469B001344D4
:102AAC00DB000B4403F2511300221A70FA7B796895
:102ABC0013469B001344DB000B4403F5A873FA7B0D
:102ACC001A70FA7B796813469B001344DB000B44A5
:102ADC0003F2531300221A70FA7B796813469B0099
:102AEC001344DB000B4403F5B07300221A60FA7B2D
:102AFC00796813469B001344DB000B4403F5B27357
:102B0C0000221A60FA7B796813469B001344DB00A1
:102B1C000B4403F5B47300221A60FB7B0133FB7387
:102B2C007B681B79FA7B9A42B5D37B6818687B6803
:102B3C0004330ECB01F0BAFA0346002B05D07B68A8
:102B4C00022283F8912201230CE07B6800225A7345
:102B5C007B68012283F891227B681B68184602F07F
:102B6C0086FE002318461037BD4680BD80B588B060
:102B7C0000AF78607B681B68184602F082FEB86173
:102B8C00BB6903F40043002B03D0786800F085F98F
:102B9C0019E1BB6903F48063002B13D07B681B68BD
:102BAC00B3F844309AB27B681B6822F4806292B20C
:102BBC00A3F84420786800F031F90021786800F01F
:102BCC0048F900E1BB6903F48043002B0CD07B680F
:102BDC001B68B3F844309AB27B681B6822F48042BD
:102BEC0092B2A3F84420EEE0BB6903F40053002B2F
:102BFC000CD07B681B68B3F844309AB27B681B68B6
:102C0C0022F4005292B2A3F84420DCE0BB6903F436
:102C1C008053002B27D07B681B68B3F840309AB2E6
:102C2C007B681B6822F0040292B2A3F840207B68F8
:102C3C001B68B3F840309AB27B681B6822F008021C
:102C4C0092B2A3F84020786800F0FAF87B681B6811
:102C5C00B3F844309AB27B681B6822F4805292B26B
:102C6C00A3F84420AFE0BB6903F40063002B00F031
:102C7C0083800023FB7710E07B681B681A46FB7F80
:102C8C009B001A44FB7F128892B25B0020333B44BA
:102C9C0023F8182CFB7F0133FB77FB7F072BEBD939
:102CAC007B681B68B3F840309AB27B681B6842F0B3
:102CBC00010292B2A3F840207B681B68B3F8403045
:102CCC009AB27B681B6822F0010292B2A3F84020F2
:102CDC0000BF7B681B68B3F844309BB203F480637D
:102CEC00002BF6D07B681B68B3F844309AB27B6833
:102CFC001B6822F4806292B2A3F844200023FB7775
:102D0C000FE0FB7F7A6812681146FA7F92000A4442
:102D1C005B0020333B4433F8183C1380FB7F0133BA
:102D2C00FB77FB7F072BECD97B681B68B3F8403033
:102D3C009AB27B681B6842F0080292B2A3F840205A
:102D4C007B681B68B3F844309AB27B681B6822F42A
:102D5C00006292B2A3F844207B681B68B3F8403041
:102D6C009AB27B681B6842F0040292B2A3F840202E
:102D7C00786800F05CF826E0BB6903F40073002B64
:102D8C000FD07B681B68B3F844309AB27B681B6821
:102D9C0022F4007292B2A3F84420786800F035F85F
:102DAC0011E0BB6903F48073002B0CD07B681B68AB
:102DBC00B3F844309AB27B681B6822F4807292B2EA
:102DCC00A3F8442000BF2037BD4680BD80B483B03B
:102DDC0000AF78600B46FB7000BF0C37BD4680BC63
:102DEC00704780B483B000AF78600B46FB7000BFB7
:102DFC000C37BD4680BC704780B483B000AF7860A0
:102E0C0000BF0C37BD4680BC704780B483B000AFA8
:102E1C00786000BF0C37BD4680BC704780B483B06F
:102E2C0000AF786000BF0C37BD4680BC704780B4E3
:102E3C0083B000AF786000BF0C37BD4680BC7047D4
:102E4C0080B483B000AF786000BF0C37BD4680BC47
:102E5C00704780B582B000AF78600B46FB707B6822
:102E6C0093F89032012B01D1022312E07B680122EE
:102E7C0083F890227B68FA785A737B681B68FA781F
:102E8C001146184602F0E0FC7B68002283F8902281
:102E9C00002318460837BD4680BD80B596B000AFFC
:102EAC007860BBE37B681B68B3F84430A7F84E30FE
:102EBC00B7F84E30DBB203F00F0387F84D3097F8BC
:102ECC004D30002B40F07581B7F84E3003F01003F5
:102EDC00002B4ED17B681B681B889BB223F4E1430B
:102EEC0023F07003FB817B681A68FB896FEA43430C
:102EFC006FEA53439BB213807B6810337B657B680E
:102F0C001B68B3F850309BB21A467B6D1B78DB0004
:102F1C00134402335B007A681268134403F5806330
:102F2C001B88C3F309027B6DDA617B6D5A697B6D7B
:102F3C00DB691A447B6D5A6100217868FFF751FFF9
:102F4C007B685B7BDBB2002B00F068837B6D9B693D
:102F5C00002B40F063837B685B7BDBB263F07F0309
:102F6C00DAB27B681B68A3F84C207B6800225A738A
:102F7C0054E37B6803F5A8737B657B681B681B882F
:102F8C00A7F84A30B7F84A3003F40063002B34D06A
:102F9C007B681B68B3F850309BB21A467B6D1B786C
:102FAC00DB00134406335B007A681268134403F5A4
:102FBC0080631B88C3F309027B6DDA617B68186838
:102FCC007B6803F526717B6DDA887B6DDB699BB2C0
:102FDC0002F0ABFC7B681B681B889AB240F68F73BF
:102FEC0013403B827B681B683A8A42F0800292B2A3
:102FFC001A807868FFF700FF10E3B7F94A30002B0E
:10300C0080F20C837B681B681B889AB240F68F7326
:10301C001340FB837B681B68FA8B42F0800292B2F0
:10302C001A807B681B68B3F850309BB21A467B6DD4
:10303C001B78DB00134406335B007A681268134478
:10304C0003F580631B88C3F309027B6DDA617B6D2A
:10305C00DB69002B19D07B6D5B69002B15D07B686D
:10306C0018687B6D59697B6DDA887B6DDB699BB267
:10307C0002F05BFC7B6D5A697B6DDB691A447B6DDE
:10308C005A6100217868FFF7A1FE7B681B681B88DA
:10309C00A7F84A30B7F84A3003F40063002B40F02D
:1030AC00BD82B7F84A3003F44053B3F5405F00F0EB
:1030BC00B5827B681B68BB617B681B68B3F85030BA
:1030CC009BB21A46BB691344BB61BB6903F20C4348
:1030DC007B617B691B889BB2C3F309039AB27B6942
:1030EC001A807B6D1B693E2B1DD97B6D1B695B099F
:1030FC007B647B6D1B6903F01F03002B02D17B6C7F
:10310C00013B7B647B691B889AB27B6C9BB29B02F4
:10311C009BB213439BB26FEA43436FEA53439AB299
:10312C007B691A8026E07B6D1B69002B0AD17B69B9
:10313C001B889BB26FEA43436FEA53439AB27B6995
:10314C001A8017E07B6D1B695B087B647B6D1B69C8
:10315C0003F00103002B02D07B6C01337B647B6991
:10316C001B889AB27B6C9BB29B029BB213439AB2A4
:10317C007B691A807B681B681B889BB223F4804395
:10318C0023F070037B827B8A83F480537B827B8A5F
:10319C0083F400537B827B681A687B8A43F07F43FD
:1031AC0043F47F0343F4004343F080039BB213804A
:1031BC0034E27B681B681A4697F84D309B00134429
:1031CC001B88A7F84A30B7F94A30002B80F2FC80F4
:1031DC007B681B681A4697F84D309B0013441B887C
:1031EC009AB240F68F731340A7F848307B681B687F
:1031FC001A4697F84D309B001344B7F8482042F01C
:10320C00800292B21A8097F84D2013469B0013440B
:10321C00DB0003F5A8737A6813447B657B6D1B7B1D
:10322C00002B25D17B681B68B3F850309BB21A4633
:10323C007B6D1B78DB00134406335B007A681268E5
:10324C00134403F580631B88C3F30903A7F85030BC
:10325C00B7F85030002B00F092807B6818687B6DBB
:10326C0059697B6DDA88B7F8503002F05EFB86E066
:10327C007B6DDB78022B0AD1B7F84A301A46796D90
:10328C00786800F0D9F90346A7F8503077E07B68EE
:10329C001B681A467B6D1B789B0013441B889BB2E2
:1032AC0023F4E04323F07003A7F852307B681B68CB
:1032BC001A467B6D1B789B001A44B7F8523043F0CA
:1032CC007F4343F47F0343F4004343F0C0039BB2BA
:1032DC0013807B681B681A467B6D1B789B0013441C
:1032EC001B889BB203F48043002B24D07B681B68A3
:1032FC00B3F850309BB21A467B6D1B78DB0013443D
:10330C0002335B007A681268134403F580631B88F0
:10331C00C3F30903A7F85030B7F85030002B2ED068
:10332C007B6818687B6D59697B6D1A89B7F85030CA
:10333C0002F0FBFA23E07B681B68B3F850309BB2B9
:10334C001A467B6D1B78DB00134406335B007A68EE
:10335C001268134403F580631B88C3F30903A7F8B1
:10336C005030B7F85030002B09D07B6818687B6D53
:10337C0059697B6D5A89B7F8503002F0D6FA7B6DDB
:10338C00DA69B7F850301A447B6DDA617B6D5A6993
:10339C00B7F850301A447B6D5A617B6D9B69002BDA
:1033AC0005D0B7F850207B6D1B699A4206D27B6D15
:1033BC001B7819467868FFF709FD05E07B681B68E8
:1033CC00796D184600F08FFEB7F84A3003F0800391
:1033DC00002B00F0238197F84D2013469B001344DB
:1033EC00DB0010337A6813447B657B681B681A46D4
:1033FC0097F84D309B0013441B889BB223F4E14398
:10340C0023F07003A7F842307B681B681A4697F8C4
:10341C004D309B001A44B7F842306FEA43436FEAD1
:10342C0053439BB213807B6DDB78012B40F0A28061
:10343C007B6D00229A617B6D1B7B002B00F09380CF
:10344C00B7F84A3003F04003002B46D07B6D5B7815
:10345C00002B26D17B681B687B627B681B68B3F8EA
:10346C0050309BB21A467B6A13447B627B6D1B788F
:10347C001A017B6A134403F204433B623B6A1B88C8
:10348C009BB2C3F309039AB23B6A1A803B6A1B884E
:10349C009BB26FEA43436FEA53439AB23B6A1A807A
:1034AC0061E07B6D5B78012B5DD17B681B68FB62F7
:1034BC007B681B68B3F850309BB21A46FB6A134406
:1034CC00FB627B6D1B781A01FB6A134403F2044305
:1034DC00BB62BB6A00221A8045E07B681B68FB63F9
:1034EC007B6D5B78002B26D17B681B687B637B68CC
:1034FC001B68B3F850309BB21A467B6B13447B634A
:10350C007B6D1B781A017B6B134403F20C433B63FA
:10351C003B6B1B889BB2C3F309039AB23B6B1A80BB
:10352C003B6B1B889BB26FEA43436FEA53439AB2DF
:10353C003B6B1A8017E07B6D5B78012B13D17B689A
:10354C001B68B3F850309BB21A46FB6B1344FB63F9
:10355C007B6D1B781A01FB6B134403F20C43BB63AA
:10356C00BB6B00221A807B6D1B7819467868FFF7BD
:10357C0038FC53E0B7F84A3003F48073002B46D183
:10358C007B681B68B3F850309BB21A467B6D1B7876
:10359C00DB00134402335B007A681268134403F5B2
:1035AC0080631B88C3F30903A7F840307B6D9A69CD
:1035BC00B7F840309A4207D97B6D9A69B7F840301A
:1035CC00D21A7B6D9A6102E07B6D00229A617B6D51
:1035DC009B69002B06D17B6D1B7819467868FFF729
:1035EC0000FC1BE07B6D5A69B7F840301A447B6DC8
:1035FC005A617B6DDA69B7F840301A447B6DDA6139
:10360C007B681B68796D184600F06DFD06E0B7F815
:10361C004A301A46796D786800F01BF97B681B6894
:10362C00B3F844309BB21BB2002BFFF63BAC00232B
:10363C0018465837BD4680BD80B588B000AFF860DD
:10364C00B9601346FB80FB8803F48043002B7ED0CB
:10365C00FB681B68B3F850309BB21A46BB681B78EA
:10366C00DB00134402335B00FA681268134403F561
:10367C0080631B88C3F309037B83BB689A697B8BCC
:10368C009A4206D3BB689A697B8BD21ABB689A6143
:10369C0002E0BB6800229A61BB689B69002B23D1B6
:1036AC00FB681B681A46BB681B789B0013441B887D
:1036BC009BB223F4804323F070033B833B8B83F456
:1036CC0000533B83FB681B681A46BB681B789B0046
:1036DC001A443B8B43F07F4343F47F0343F4004392
:1036EC0043F080039BB21380FB8803F04003002B54
:1036FC001FD0FB681B681A46BB681B789B001344E1
:10370C001B889BB223F4E04323F07003FB82FB681D
:10371C001B681A46BB681B789B001A44FB8A43F053
:10372C007F4343F47F0343F4004343F0C0039BB255
:10373C0013807B8B002B00F08780FB681868BB68BC
:10374C005969BB681A897B8B02F0EFF87CE0FB6847
:10375C001B68B3F850309BB21A46BB681B78DB0071
:10376C00134406335B00FA681268134403F5806354
:10377C001B88C3F309037B83BB689A697B8B9A42D2
:10378C0006D3BB689A697B8BD21ABB689A6102E03C
:10379C00BB6800229A61BB689B69002B23D1FB6834
:1037AC001B681A46BB681B789B0013441B889BB292
:1037BC0023F4804323F07003FB83FB8B83F40053CF
:1037CC00FB83FB681B681A46BB681B789B001A447A
:1037DC00FB8B43F07F4343F47F0343F4004343F0FC
:1037EC0080039BB21380FB8803F04003002B1FD196
:1037FC00FB681B681A46BB681B789B0013441B882C
:10380C009BB223F4E04323F07003BB83FB681B687B
:10381C001A46BB681B789B001A44BB8B43F07F4352
:10382C0043F47F0343F4004343F0C0039BB2138083
:10383C007B8B002B08D0FB681868BB685969BB6888
:10384C005A897B8B02F071F87B8B18462037BD466A
:10385C0080BD80B5A4B000AFF860B9601346FB80A2
:10386C00FB8803F04003002B00F0DD81FB681B6834
:10387C00B3F850309BB21A46BB681B78DB0013447C
:10388C0002335B00FA681268134403F580631B88EB
:10389C00C3F30903A7F88630BB689A69B7F886307A
:1038AC009A4207D9BB689A69B7F88630D21ABB68B6
:1038BC009A6102E0BB6800229A61BB689B69002B8D
:1038CC0040F0B980BB685B78002B26D1FB681B6885
:1038DC00FB62FB681B68B3F850309BB21A46FB6A5C
:1038EC001344FB62BB681B781A01FB6A134403F296
:1038FC000443BB62BB6A1B889BB2C3F309039AB235
:10390C00BB6A1A80BB6A1B889BB26FEA43436FEA9F
:10391C0053439AB2BB6A1A801AE0BB685B78012BDE
:10392C0016D1FB681B687B63FB681B68B3F85030CF
:10393C009BB21A467B6B13447B63BB681B781A01E2
:10394C007B6B134403F204433B633B6B00221A80F2
:10395C00FB681B687B62BB685B78002B26D1FB681D
:10396C001B68FB61FB681B68B3F850309BB21A46AE
:10397C00FB691344FB61BB681B781A01FB69134498
:10398C0003F20C43BB61BB691B889BB2C3F30903F5
:10399C009AB2BB691A80BB691B889BB26FEA43431E
:1039AC006FEA53439AB2BB691A8017E0BB685B7825
:1039BC00012B13D1FB681B68B3F850309BB21A462D
:1039CC007B6A13447B62BB681B781A017B6A1344C5
:1039DC0003F20C433B623B6A00221A80BB681B78E3
:1039EC001946F868FFF7FDF9FB8803F48043002BB8
:1039FC0000F0FC82FB681B681A46BB681B789B00B6
:103A0C0013441B889BB223F4E04323F07003FB8226
:103A1C00FB681B681A46BB681B789B001A44FB8A20
:103A2C0043F07F4343F47F0343F4404343F080036C
:103A3C009BB21380DAE2FB8803F48043002B21D085
:103A4C00FB681B681A46BB681B789B0013441B88D9
:103A5C009BB223F4E04323F07003A7F88A30FB6891
:103A6C001B681A46BB681B789B001A44B7F88A304F
:103A7C0043F07F4343F47F0343F4404343F080031C
:103A8C009BB21380BB6893F82430012B40F0AE82BC
:103A9C00BB685A69B7F886301A44BB685A61BB6870
:103AAC00DA69B7F886301A44BB68DA61BB681A6AFF
:103ABC00BB681B699A420BD3BB681B69C7F88C3077
:103ACC00BB681A6AD7F88C30D21ABB681A6217E036
:103ADC00BB681B6A002B08D1B7F88630C7F88C304E
:103AEC00BB68002283F824200AE0BB68002283F81C
:103AFC002420BB681B6AC7F88C30BB6800221A6292
:103B0C00BB685B78002B65D1FB681B68FB63FB68AB
:103B1C001B68B3F850309BB21A46FB6B1344FB6323
:103B2C00BB681B781A01FB6B134403F20443BB63A1
:103B3C00BB6B1B889BB2C3F309039AB2BB6B1A8095
:103B4C00D7F88C303E2B1DD9D7F88C305B09BB6471
:103B5C00D7F88C3003F01F03002B02D1BB6C013B58
:103B6C00BB64BB6B1B889AB2BB6C9BB29B029BB2B7
:103B7C0013439BB26FEA43436FEA53439AB2BB6B56
:103B8C001A8044E0D7F88C30002B0AD1BB6B1B8811
:103B9C009BB26FEA43436FEA53439AB2BB6B1A80F2
:103BAC0035E0D7F88C305B08BB64D7F88C3003F069
:103BBC000103002B02D0BB6C0133BB64BB6B1B88B5
:103BCC009AB2BB6C9BB29B029BB213439AB2BB6B77
:103BDC001A801CE0BB685B78012B18D1FB681B6852
:103BEC007B64FB681B68B3F850309BB21A467B6C45
:103BFC0013447B64BB681B781A017B6C134403F27F
:103C0C0004433B64D7F88C309AB23B6C1A80FB6847
:103C1C001868BB685969BB681A89D7F88C309BB295
:103C2C0001F03EFEE2E1FB681B68B3F850309BB23A
:103C3C001A46BB681B78DB00134406335B00FA683A
:103C4C001268134403F580631B88C3F30903A7F8B8
:103C5C008630BB689A69B7F886309A4207D3BB683E
:103C6C009A69B7F88630D21ABB689A6102E0BB68D1
:103C7C0000229A61BB689B69002B40F0C080BB6836
:103C8C005B78002B26D1FB681B68FB67FB681B6805
:103C9C00B3F850309BB21A46FB6F1344FB67BB68FA
:103CAC001B781A01FB6F134403F20443BB67BB6F11
:103CBC001B889BB2C3F309039AB2BB6F1A80BB6F0C
:103CCC001B889BB26FEA43436FEA53439AB2BB6FB4
:103CDC001A801AE0BB685B78012B16D1FB681B6855
:103CEC007B66FB681B68B3F850309BB21A467B6E40
:103CFC0013447B66BB681B781A017B6E134403F27A
:103D0C0004433B663B6E00221A80FB681B687B6792
:103D1C00BB685B78002B2BD1FB681B68FB66FB68D0
:103D2C001B68B3F850309BB21A46FB6E1344FB660B
:103D3C00BB681B781A01FB6E134403F20C43C7F8E3
:103D4C008030D7F880301B889BB2C3F309039AB23A
:103D5C00D7F880301A80D7F880301B889BB26FEA76
:103D6C0043436FEA53439AB2D7F880301A8017E076
:103D7C00BB685B78012B13D1FB681B68B3F8503020
:103D8C009BB21A467B6F13447B67BB681B781A0186
:103D9C007B6F134403F20C433B673B6F00221A808A
:103DAC00BB681B781946F868FFF71BF8FB8803F40F
:103DBC008043002B40F01A81FB681B681A46BB68D5
:103DCC001B789B0013441B889BB223F4E04323F025
:103DDC007003A7F88830FB681B681A46BB681B7811
:103DEC009B001A44B7F8883043F07F4343F47F03B9
:103DFC0043F4404343F080039BB21380F6E0FB880E
:103E0C0003F48043002B21D1FB681B681A46BB6866
:103E1C001B789B0013441B889BB223F4E04323F0D4
:103E2C007003A7F84E30FB681B681A46BB681B78FA
:103E3C009B001A44B7F84E3043F07F4343F47F03A2
:103E4C0043F4404343F080039BB21380BB6893F868
:103E5C002430012B40F0CA80BB685A69B7F8863011
:103E6C001A44BB685A61BB68DA69B7F886301A44E1
:103E7C00BB68DA61BB681A6ABB681B699A420BD3D0
:103E8C00BB681B69C7F88C30BB681A6AD7F88C30D2
:103E9C00D21ABB681A6217E0BB681B6A002B08D1E8
:103EAC00B7F88630C7F88C30BB68002283F8242022
:103EBC000AE0BB681B6AC7F88C30BB6800221A6228
:103ECC00BB68002283F82420FB681B687B65BB68F9
:103EDC005B78002B65D1FB681B68FB65FB681B6876
:103EEC00B3F850309BB21A46FB6D1344FB65BB68AC
:103EFC001B781A01FB6D134403F20C43BB65BB6DBD
:103F0C001B889BB2C3F309039AB2BB6D1A80D7F816
:103F1C008C303E2B1DD9D7F88C305B09BB66D7F89B
:103F2C008C3003F01F03002B02D1BB6E013BBB6630
:103F3C00BB6D1B889AB2BB6E9BB29B029BB21343A8
:103F4C009BB26FEA43436FEA53439AB2BB6D1A803C
:103F5C0041E0D7F88C30002B0AD1BB6D1B889BB28B
:103F6C006FEA43436FEA53439AB2BB6D1A8032E057
:103F7C00D7F88C305B08BB66D7F88C3003F00103A4
:103F8C00002B02D0BB6E0133BB66BB6D1B889AB293
:103F9C00BB6E9BB29B029BB213439AB2BB6D1A8051
:103FAC0019E0BB685B78012B15D1FB681B68B3F873
:103FBC0050309BB21A467B6D13447B65BB681B78F3
:103FCC001A017B6D134403F20C433B65D7F88C301C
:103FDC009AB23B6D1A80FB681868BB685969BB685C
:103FEC005A89D7F88C309BB201F05AFCFB681B68DD
:103FFC001A46BB681B789B0013441B889BB223F4A6
:10400C00E04323F04003BB82BB8A83F01003BB82E6
:10401C00BB8A83F02003BB82FB681B681A46BB6813
:10402C001B789B001A44BB8A43F07F4343F47F0305
:10403C0043F4004343F080039BB2138000231846E3
:10404C009037BD4680BD80B485B000AFF86038466F
:10405C0080E80E00002318461437BD4680BC70471C
:10406C0080B485B000AF78604FF43F43FB607B6851
:10407C00B3F840309AB2FB689BB2DB439BB213405F
:10408C009AB27B68A3F84020002318461437BD462B
:10409C0080BC704780B483B000AF78600B46FB7077
:1040AC00002318460C37BD4680BC704780B485B0E1
:1040BC0000AFF860384680E80E00FB680122A3F8D8
:1040CC004020FB680022A3F84020FB680022A3F8E4
:1040DC004420FB680022A3F8502000231846143714
:1040EC00BD4680BC704780B5C2B000AF07F5847385
:1040FC00A3F58273186007F58473A3F584731960B4
:10410C0007F58473A3F584731B685B78012B40F06F
:10411C00B78607F58473A3F584731B689A6907F552
:10412C008473A3F584731B681B699A4208D907F53D
:10413C008473A3F584731B681B69C7F8043107E00B
:10414C0007F58473A3F584731B689B69C7F8043166
:10415C0007F58473A3F584731B681B7B002B3AD182
:10416C0007F58473A3F584731B68596907F5847389
:10417C00A3F584731B68DA88D7F804319BB207F572
:10418C008470A0F58270006801F08AFB07F58473D7
:10419C00A3F582731B683B6107F58473A3F58273E7
:1041AC001B68B3F850309BB21A463B6913443B6111
:1041BC0007F58473A3F584731B681B781A013B699C
:1041CC00134403F20443FB60D7F804319AB2FB6842
:1041DC001A8000F01FBE07F58473A3F584731B6867
:1041EC00DB78022B40F0628407F58473A3F58473AB
:1041FC001B681A6A07F58473A3F584731B681B6923
:10420C009A4240F2DF8307F58473A3F582731A6830
:10421C0007F58473A3F584731B681B789B00134408
:10422C001B889BB223F4E04323F07003A7F85630AD
:10423C0007F58473A3F582731A6807F58473A3F5E5
:10424C0084731B681B789B001A44B7F8563043F0F4
:10425C007F4343F47F0343F4014343F080039BB259
:10426C00138007F58473A3F584731B681A6AD7F857
:10427C000431D21A07F58473A3F584731B681A6290
:10428C0007F58473A3F582731A6807F58473A3F595
:10429C0084731B681B789B0013441B889BB203F030
:1042AC004003002B00F0C78107F58473A3F58273DC
:1042BC001B683B6307F58473A3F584731B685B78F9
:1042CC00002B77D107F58473A3F582731B68BB624F
:1042DC0007F58473A3F582731B68B3F850309BB257
:1042EC001A46BB6A1344BB6207F58473A3F5847347
:1042FC001B681B781A01BB6A134403F20C437B62E4
:10430C007B6A1B889BB2C3F309039AB27B6A1A803F
:10431C00D7F804313E2B21D9D7F804315B09C7F803
:10432C000031D7F8043103F01F03002B04D1D7F868
:10433C000031013BC7F800317B6A1B889AB2D7F871
:10434C0000319BB29B029BB213439BB26FEA434377
:10435C006FEA53439AB27B6A1A8050E0D7F8043163
:10436C00002B0AD17B6A1B889BB26FEA43436FEA2E
:10437C0053439AB27B6A1A8041E0D7F804315B0848
:10438C00C7F80031D7F8043103F00103002B04D037
:10439C00D7F800310133C7F800317B6A1B889AB219
:1043AC00D7F800319BB29B029BB213439AB27B6A43
:1043BC001A8024E007F58473A3F584731B685B787B
:1043CC00012B1CD107F58473A3F582731B68B3F81A
:1043DC0050309BB21A463B6B13443B6307F5847316
:1043EC00A3F584731B681B781A013B6B134403F20F
:1043FC000C43FB62D7F804319AB2FB6A1A8007F5BA
:10440C008473A3F584731B685B89A7F8763007F572
:10441C008473A3F584731B685969D7F804319BB274
:10442C00B7F8762007F58470A0F58270006801F06B
:10443C0037FA07F58473A3F584731B685A69D7F8A8
:10444C0004311A4407F58473A3F584731B685A610D
:10445C0007F58473A3F584731B681A6A07F58473D4
:10446C00A3F584731B681B699A420FD907F58473F3
:10447C00A3F584731B681A6AD7F80431D21A07F5AE
:10448C008473A3F584731B681A620EE007F58473BA
:10449C00A3F584731B681B6AC7F8043107F5847392
:1044AC00A3F584731B6800221A6207F58473A3F5C5
:1044BC0084731B685B78002B77D107F58473A3F5A5
:1044CC0082731B68BB6107F58473A3F582731B6849
:1044DC00B3F850309BB21A46BB691344BB6107F565
:1044EC008473A3F584731B681B781A01BB6913448E
:1044FC0003F204437B617B691B889BB2C3F3090302
:10450C009AB27B691A80D7F804313E2B21D9D7F89F
:10451C0004315B09C7F8FC30D7F8043103F01F03F2
:10452C00002B04D1D7F8FC30013BC7F8FC307B6979
:10453C001B889AB2D7F8FC309BB29B029BB21343F8
:10454C009BB26FEA43436FEA53439AB27B691A807A
:10455C0056E0D7F80431002B0AD17B691B889BB23B
:10456C006FEA43436FEA53439AB27B691A8047E080
:10457C00D7F804315B08C7F8FC30D7F8043103F0E6
:10458C000103002B04D0D7F8FC300133C7F8FC3002
:10459C007B691B889AB2D7F8FC309BB29B029BB20A
:1045AC0013439AB27B691A802AE007F58473A3F54A
:1045BC0084731B685B78012B22D107F58473A3F5F8
:1045CC0082731B683B6207F58473A3F582731B68C7
:1045DC00B3F850309BB21A463B6A13443B6207F562
:1045EC008473A3F584731B681B781A013B6A13440C
:1045FC0003F20443FB61D7F804319AB2FB691A80C9
:10460C0007F58473A3F584731B681B89A7F87630B0
:10461C0007F58473A3F584731B685969D7F80431C3
:10462C009BB2B7F8762007F58470A0F5827000680D
:10463C0001F036F9EEE307F58473A3F584731B6878
:10464C005B78002B77D107F58473A3F582731B6815
:10465C00BB6407F58473A3F582731B68B3F8503001
:10466C009BB21A46BB6C1344BB6407F58473A3F569
:10467C0084731B681B781A01BB6C134403F204434C
:10468C007B647B6C1B889BB2C3F309039AB27B6C73
:10469C001A80D7F804313E2B21D9D7F804315B09A5
:1046AC00C7F8F830D7F8043103F01F03002B04D1FE
:1046BC00D7F8F830013BC7F8F8307B6C1B889AB2FE
:1046CC00D7F8F8309BB29B029BB213439BB26FEAB4
:1046DC0043436FEA53439AB27B6C1A8056E0D7F887
:1046EC000431002B0AD17B6C1B889BB26FEA4343CD
:1046FC006FEA53439AB27B6C1A8047E0D7F80431C7
:10470C005B08C7F8F830D7F8043103F00103002B2D
:10471C0004D0D7F8F8300133C7F8F8307B6C1B881D
:10472C009AB2D7F8F8309BB29B029BB213439AB261
:10473C007B6C1A802AE007F58473A3F584731B68DD
:10474C005B78012B22D107F58473A3F582731B6868
:10475C003B6507F58473A3F582731B68B3F850307F
:10476C009BB21A463B6D13443B6507F58473A3F566
:10477C0084731B681B781A013B6D134403F20443CA
:10478C00FB64D7F804319AB2FB6C1A8007F584737A
:10479C00A3F584731B681B89A7F8763007F584731F
:1047AC00A3F584731B685969D7F804319BB2B7F829
:1047BC00762007F58470A0F58270006801F070F81F
:1047CC0007F58473A3F584731B685A69D7F8043111
:1047DC001A4407F58473A3F584731B685A6107F5B3
:1047EC008473A3F584731B681A6A07F58473A3F5A5
:1047FC0084731B681B699A420FD907F58473A3F560
:10480C0084731B681A6AD7F80431D21A07F58473BB
:10481C00A3F584731B681A620EE007F58473A3F585
:10482C0084731B681B6AC7F8043107F58473A3F5FE
:10483C0084731B6800221A6207F58473A3F58273D4
:10484C001B683B6407F58473A3F584731B685B7862
:10485C00002B77D107F58473A3F582731B68BB63B8
:10486C0007F58473A3F582731B68B3F850309BB2C1
:10487C001A46BB6B1344BB6307F58473A3F58473AF
:10488C001B681B781A01BB6B134403F20C437B634C
:10489C007B6B1B889BB2C3F309039AB27B6B1A80A8
:1048AC00D7F804313E2B21D9D7F804315B09C7F86E
:1048BC00F430D7F8043103F01F03002B04D1D7F8E0
:1048CC00F430013BC7F8F4307B6B1B889AB2D7F8F5
:1048DC00F4309BB29B029BB213439BB26FEA4343EF
:1048EC006FEA53439AB27B6B1A8050E0D7F80431CD
:1048FC00002B0AD17B6B1B889BB26FEA43436FEA98
:10490C0053439AB27B6B1A8041E0D7F804315B08B1
:10491C00C7F8F430D7F8043103F00103002B04D0AE
:10492C00D7F8F4300133C7F8F4307B6B1B889AB29C
:10493C00D7F8F4309BB29B029BB213439AB27B6BB9
:10494C001A8024E007F58473A3F584731B685B78E5
:10495C00012B1CD107F58473A3F582731B68B3F884
:10496C0050309BB21A463B6C13443B6407F584737E
:10497C00A3F584731B681B781A013B6C134403F278
:10498C000C43FB63D7F804319AB2FB6B1A8007F522
:10499C008473A3F584731B685B89A7F8763007F5DD
:1049AC008473A3F584731B685969D7F804319BB2DF
:1049BC00B7F8762007F58470A0F58270006800F0D7
:1049CC006FFF27E207F58473A3F584731B681B6ADA
:1049DC00C7F8043107F58473A3F582731A6807F5D9
:1049EC008473A3F584731B681B789B0013441B888A
:1049FC009BB223F4E24323F07003A7F8623007F56F
:104A0C008473A3F582731A6807F58473A3F5847312
:104A1C001B681B789B001A44B7F8623043F07F4345
:104A2C0043F47F0343F4004343F080039BB21380B1
:104A3C0007F58473A3F582731B68FB6507F5847314
:104A4C00A3F582731B68B3F850309BB21A46FB6D0A
:104A5C001344FB6507F58473A3F584731B681B78FB
:104A6C001A01FB6D134403F20443BB65D7F8043100
:104A7C009AB2BB6D1A8007F58473A3F584731B6817
:104A8C001B89A7F8763007F58473A3F584731B682C
:104A9C005969D7F804319BB2B7F8762007F58470C2
:104AAC00A0F58270006800F0FBFEB3E107F584739B
:104ABC00A3F584731B681A6AD7F80431D21A07F568
:104ACC008473A3F584731B681A6207F58473A3F5CA
:104ADC0082731A6807F58473A3F584731B681B78BB
:104AEC009B0013441B889BB203F04003002B00F087
:104AFC00C68007F58473A3F582731B683B6707F5C3
:104B0C008473A3F584731B685B78002B77D107F54E
:104B1C008473A3F582731B68BB6607F58473A3F5D6
:104B2C0082731B68B3F850309BB21A46BB6E1344A9
:104B3C00BB6607F58473A3F584731B681B781A0195
:104B4C00BB6E134403F20C437B667B6E1B889BB2DB
:104B5C00C3F309039AB27B6E1A80D7F804313E2B4B
:104B6C0021D9D7F804315B09C7F8F030D7F80431F4
:104B7C0003F01F03002B04D1D7F8F030013BC7F82A
:104B8C00F0307B6E1B889AB2D7F8F0309BB29B0248
:104B9C009BB213439BB26FEA43436FEA53439AB2FF
:104BAC007B6E1A8050E0D7F80431002B0AD17B6E53
:104BBC001B889BB26FEA43436FEA53439AB27B6EF6
:104BCC001A8041E0D7F804315B08C7F8F030D7F809
:104BDC00043103F00103002B04D0D7F8F03001337B
:104BEC00C7F8F0307B6E1B889AB2D7F8F0309BB2C6
:104BFC009B029BB213439AB27B6E1A8024E007F59A
:104C0C008473A3F584731B685B78012B1CD107F5A7
:104C1C008473A3F582731B68B3F850309BB21A46A9
:104C2C003B6F13443B6707F58473A3F584731B68D0
:104C3C001B781A013B6F134403F20C43FB66D7F845
:104C4C0004319AB2FB6E1A8007F58473A3F5847352
:104C5C001B685B89A7F8763007F58473A3F584731A
:104C6C001B685969D7F804319BB2B7F8762007F561
:104C7C008470A0F58270006800F012FECAE007F59F
:104C8C008473A3F584731B685B78002B77D107F5CD
:104C9C008473A3F582731B68FB6707F58473A3F514
:104CAC0082731B68B3F850309BB21A46FB6F1344E7
:104CBC00FB6707F58473A3F584731B681B781A01D3
:104CCC00FB6F134403F20443BB67BB6F1B889BB29F
:104CDC00C3F309039AB2BB6F1A80D7F804313E2B89
:104CEC0021D9D7F804315B09C7F8EC30D7F8043177
:104CFC0003F01F03002B04D1D7F8EC30013BC7F8AD
:104D0C00EC30BB6F1B889AB2D7F8EC309BB29B028D
:104D1C009BB213439BB26FEA43436FEA53439AB27D
:104D2C00BB6F1A805CE0D7F80431002B0AD1BB6F43
:104D3C001B889BB26FEA43436FEA53439AB2BB6F33
:104D4C001A804DE0D7F804315B08C7F8EC30D7F87F
:104D5C00043103F00103002B04D0D7F8EC300133FD
:104D6C00C7F8EC30BB6F1B889AB2D7F8EC309BB20B
:104D7C009B029BB213439AB2BB6F1A8030E007F5CB
:104D8C008473A3F584731B685B78012B28D107F51A
:104D9C008473A3F582731B68C7F8843007F584739A
:104DAC00A3F582731B68B3F850309BB21A46D7F840
:104DBC0084301344C7F8843007F58473A3F58473E7
:104DCC001B681B781A01D7F88430134403F2044390
:104DDC00C7F88030D7F804319AB2D7F880301A80EF
:104DEC0007F58473A3F584731B681B89A7F87630C9
:104DFC0007F58473A3F584731B685969D7F80431DC
:104E0C009BB2B7F8762007F58470A0F58270006825
:104E1C0000F046FD07F58473A3F582731A6807F555
:104E2C008473A3F584731B681B789B0013441B8845
:104E3C009BB223F4E04323F040037B817B8983F016
:104E4C0010037B817B8983F020037B8107F58473BE
:104E5C00A3F582731A6807F58473A3F584731B6832
:104E6C001B789B001A447B8943F07F4343F47F03F8
:104E7C0043F4004343F080039BB2138000F0DEBC8C
:104E8C0007F58473A3F584731B681B7B002B40F020
:104E9C00BB8007F58473A3F584731B689A6907F5C7
:104EAC008473A3F584731B681B699A4217D907F5A1
:104EBC008473A3F584731B681B69C7F8043107F569
:104ECC008473A3F584731B689A69D7F80431D21ADA
:104EDC0007F58473A3F584731B689A610EE007F5DC
:104EEC008473A3F584731B689B69C7F8043107F5B9
:104EFC008473A3F584731B6800229A6107F584738D
:104F0C00A3F582731B68C7F8903007F58473A3F57B
:104F1C0082731B68B3F850309BB21A46D7F89030A6
:104F2C001344C7F8903007F58473A3F584731B689A
:104F3C001B781A01D7F89030134403F20C43C7F8CE
:104F4C008C30D7F88C301B889BB2C3F309039AB210
:104F5C00D7F88C301A80D7F804313E2B24D9D7F8E7
:104F6C0004315B09C7F8E830D7F8043103F01F03AC
:104F7C00002B04D1D7F8E830013BC7F8E830D7F85C
:104F8C008C301B889AB2D7F8E8309BB29B029BB24C
:104F9C0013439BB26FEA43436FEA53439AB2D7F879
:104FAC008C301A8000F010BCD7F80431002B0CD1D7
:104FBC00D7F88C301B889BB26FEA43436FEA53439C
:104FCC009AB2D7F88C301A80FEE3D7F804315B081C
:104FDC00C7F8E830D7F8043103F00103002B04D0F4
:104FEC00D7F8E8300133C7F8E830D7F88C301B8895
:104FFC009AB2D7F8E8309BB29B029BB213439AB299
:10500C00D7F88C301A80DFE307F58473A3F584732B
:10501C001B68DB78022B40F0188207F58473A3F52C
:10502C0084731B685B78002B40F09D8007F58473BC
:10503C00A3F582731B68C7F8AC3007F58473A3F52E
:10504C0082731B68B3F850309BB21A46D7F8AC3059
:10505C001344C7F8AC3007F58473A3F584731B684D
:10506C001B781A01D7F8AC30134403F20443C7F889
:10507C00A830D7F8A8301B889BB2C3F309039AB2A7
:10508C00D7F8A8301A8007F58473A3F584731B68CE
:10509C001B693E2B2BD907F58473A3F584731B680E
:1050AC001B695B09C7F8E43007F58473A3F58473B7
:1050BC001B681B6903F01F03002B04D1D7F8E430E5
:1050CC00013BC7F8E430D7F8A8301B889AB2D7F860
:1050DC00E4309BB29B029BB213439BB26FEA4343F7
:1050EC006FEA53439AB2D7F8A8301A8070E007F5EC
:1050FC008473A3F584731B681B69002B0CD1D7F840
:10510C00A8301B889BB26FEA43436FEA53439AB2B1
:10511C00D7F8A8301A805BE007F58473A3F5847385
:10512C001B681B695B08C7F8E43007F58473A3F5AB
:10513C0084731B681B6903F00103002B04D0D7F8A0
:10514C00E4300133C7F8E430D7F8A8301B889AB2A2
:10515C00D7F8E4309BB29B029BB213439AB2D7F8B8
:10516C00A8301A8034E007F58473A3F584731B68A8
:10517C005B78012B2CD107F58473A3F582731B6824
:10518C00C7F8B43007F58473A3F582731B68B3F8C2
:10519C0050309BB21A46D7F8B4301344C7F8B43029
:1051AC0007F58473A3F584731B681B781A01D7F871
:1051BC00B430134403F20443C7F8B03007F58473DA
:1051CC00A3F584731B681B699AB2D7F8B0301A80A8
:1051DC0007F58473A3F582731B68C7F8A43007F531
:1051EC008473A3F584731B685B78002B40F09D805F
:1051FC0007F58473A3F582731B68C7F89C3007F519
:10520C008473A3F582731B68B3F850309BB21A46B3
:10521C00D7F89C301344C7F89C3007F58473A3F57A
:10522C0084731B681B781A01D7F89C30134403F263
:10523C000C43C7F89830D7F898301B889BB2C3F34F
:10524C0009039AB2D7F898301A8007F58473A3F53E
:10525C0084731B681B693E2B2BD907F58473A3F54C
:10526C0084731B681B695B09C7F8E03007F584730E
:10527C00A3F584731B681B6903F01F03002B04D177
:10528C00D7F8E030013BC7F8E030D7F898301B88EE
:10529C009AB2D7F8E0309BB29B029BB213439BB2FD
:1052AC006FEA43436FEA53439AB2D7F898301A80A7
:1052BC0069E007F58473A3F584731B681B69002BE5
:1052CC000CD1D7F898301B889BB26FEA43436FEA36
:1052DC0053439AB2D7F898301A8054E007F5847388
:1052EC00A3F584731B681B695B08C7F8E03007F5EE
:1052FC008473A3F584731B681B6903F00103002BF3
:10530C0004D0D7F8E0300133C7F8E030D7F8983044
:10531C001B889AB2D7F8E0309BB29B029BB2134326
:10532C009AB2D7F898301A802DE007F58473A3F55C
:10533C0084731B685B78012B25D107F58473A3F567
:10534C0082731B68B3F850309BB21A46D7F8A4305E
:10535C001344C7F8A43007F58473A3F584731B6852
:10536C001B781A01D7F8A430134403F20C43C7F886
:10537C00A03007F58473A3F584731B681B699AB27C
:10538C00D7F8A0301A8007F58473A3F584731B68D3
:10539C00DB69002B00F0188207F58473A3F5827388
:1053AC001A6807F58473A3F584731B681B789B003C
:1053BC0013441B88A7F89630B7F8963003F4804353
:1053CC00002B05D0B7F8963003F04003002B0DD11D
:1053DC00B7F8963003F48043002B40F0F581B7F812
:1053EC00963003F04003002B40F0EE8107F58473F8
:1053FC00A3F582731A6807F58473A3F584731B688D
:10540C001B789B0013441B889BB223F4E04323F0CE
:10541C007003A7F8943007F58473A3F582731A68A8
:10542C0007F58473A3F584731B681B789B001A44DF
:10543C00B7F8943043F07F4343F47F0343F40043C5
:10544C0043F0C0039BB21380BEE107F58473A3F550
:10545C0084731B68DB78012B40F0B48107F58473EF
:10546C00A3F584731B689A6907F58473A3F5847399
:10547C001B681B699A4217D907F58473A3F58473CB
:10548C001B681B69C7F8043107F58473A3F5847393
:10549C001B689A69D7F80431D21A07F58473A3F5FF
:1054AC0084731B689A610EE007F58473A3F584730B
:1054BC001B689B69C7F8043107F58473A3F58473E3
:1054CC001B6800229A6107F58473A3F584731B682B
:1054DC005B78002B40F0858007F58473A3F582730D
:1054EC001B68C7F8CC3007F58473A3F582731B686F
:1054FC00B3F850309BB21A46D7F8CC301344C7F8E7
:10550C00CC3007F58473A3F584731B681B781A01E0
:10551C00D7F8CC30134403F20443C7F8C830D7F89B
:10552C00C8301B889BB2C3F309039AB2D7F8C830B2
:10553C001A80D7F804313E2B23D9D7F804315B09F4
:10554C00C7F8DC30D7F8043103F01F03002B04D16B
:10555C00D7F8DC30013BC7F8DC30D7F8C8301B88F3
:10556C009AB2D7F8DC309BB29B029BB213439BB22E
:10557C006FEA43436FEA53439AB2D7F8C8301A80A4
:10558C0060E0D7F80431002B0CD1D7F8C8301B8859
:10559C009BB26FEA43436FEA53439AB2D7F8C830D1
:1055AC001A804FE0D7F804315B08C7F8DC30D7F825
:1055BC00043103F00103002B04D0D7F8DC300133A5
:1055CC00C7F8DC30D7F8C8301B889AB2D7F8DC3073
:1055DC009BB29B029BB213439AB2D7F8C8301A8085
:1055EC0030E007F58473A3F584731B685B78012B9B
:1055FC0028D107F58473A3F582731B68C7F8D430E0
:10560C0007F58473A3F582731B68B3F850309BB213
:10561C001A46D7F8D4301344C7F8D43007F584733E
:10562C00A3F584731B681B781A01D7F8D430134484
:10563C0003F20443C7F8D030D7F804319AB2D7F844
:10564C00D0301A8007F58473A3F582731B68C7F8F2
:10565C00C43007F58473A3F584731B685B78002B47
:10566C0040F0858007F58473A3F582731B68C7F837
:10567C00BC3007F58473A3F582731B68B3F8503004
:10568C009BB21A46D7F8BC301344C7F8BC3007F5A8
:10569C008473A3F584731B681B781A01D7F8BC308C
:1056AC00134403F20C43C7F8B830D7F8B8301B8852
:1056BC009BB2C3F309039AB2D7F8B8301A80D7F863
:1056CC0004313E2B23D9D7F804315B09C7F8D83005
:1056DC00D7F8043103F01F03002B04D1D7F8D830CE
:1056EC00013BC7F8D830D7F8B8301B889AB2D7F836
:1056FC00D8309BB29B029BB213439BB26FEA4343DD
:10570C006FEA53439AB2D7F8B8301A805CE0D7F8F6
:10571C000431002B0CD1D7F8B8301B889BB26FEA40
:10572C0043436FEA53439AB2D7F8B8301A804BE030
:10573C00D7F804315B08C7F8D830D7F8043103F038
:10574C000103002B04D0D7F8D8300133C7F8D83078
:10575C00D7F8B8301B889AB2D7F8D8309BB29B02D6
:10576C009BB213439AB2D7F8B8301A802CE007F5E5
:10577C008473A3F584731B685B78012B24D107F524
:10578C008473A3F582731B68B3F850309BB21A462E
:10579C00D7F8C4301344C7F8C43007F58473A3F5A5
:1057AC0084731B681B781A01D7F8C430134403F2B6
:1057BC000C43C7F8C030D7F804319AB2D7F8C030D0
:1057CC001A8001E001233AE007F58473A3F5827394
:1057DC001A6807F58473A3F584731B681B789B0008
:1057EC0013441B889BB223F4804323F07003A7F867
:1057FC008A30B7F88A3083F48053A7F88A30B7F828
:10580C008A3083F40053A7F88A3007F58473A3F524
:10581C0082731A6807F58473A3F584731B681B786D
:10582C009B001A44B7F88A3043F07F4343F47F035C
:10583C0043F4004343F080039BB2138000231846CB
:10584C0007F58477BD4680BD80B483B000AF786027
:10585C000B46FB70FB78002B03D17B688022A3F8EE
:10586C004C20002318460C37BD4680BC704780B4D2
:10587C0083B000AF7860002318460C37BD4680BC5F
:10588C00704780B485B000AF78607B68B3F8443063
:10589C009BB2FB60FB6818461437BD4680BC704752
:1058AC0080B48BB000AFF860B96011461A460B4655
:1058BC00FB801346BB80BB8801335B08BB61FB6874
:1058CC007B61BB68FB61FB885A007B69134403F561
:1058DC0080633B62BB697B621EE0FB691B787B8249
:1058EC00FB6901331B781B021AB2B7F91230134350
:1058FC001BB27B823B6A7A8A1A803B6A02333B6218
:10590C003B6A02333B62FB690133FB61FB69013388
:10591C00FB617B6A013B7B627B6A002BDDD100BFA4
:10592C0000BF2C37BD4680BC704780B48BB000AF35
:10593C00F860B96011461A460B46FB801346BB80D3
:10594C00BB885B089BB2BB61FB687B61BB68FB617E
:10595C00FB885A007B69134403F580633B62BB6987
:10596C007B621BE03B6A1B889BB23B613B6A023348
:10597C003B623B69DAB2FB691A70FB690133FB616C
:10598C003B691B0ADAB2FB691A70FB690133FB61D4
:10599C003B6A02333B627B6A013B7B627B6A002B76
:1059AC00E0D1BB8803F001039BB2002B07D03B6A0C
:1059BC001B889BB23B613B69DAB2FB691A7000BF72
:1059CC002C37BD4680BC704780B400AF00BFBD46CD
:1059DC0080BC7047FFF7F8FF0B480C490C4A0023BA
:1059EC0002E0D458C4500433C4188C42F9D3094A89
:1059FC00094C002301E013600432A242FBD3FAF7F6
:105A0C00A7FBFAF7C9FB7047000000200C00002030
:105A1C00785A00080C00002074030020FEE70000F8
:105A2C00F8B500BFF8BC08BC9E467047F8B500BF7F
:085A3C00F8BC08BC9E4670474F
:105A440002030405060708090A0B0C0D0E0F1010BB
:105A54000102000000000000000000000102030435
:0C5A64000607080900000000010203040E
:045A700031010008F8
:045A74000D01000818
:0C5A7800100000000100000000127A0085
:04000005080059E1B5
:00000001FF
